:020000040000FA
:10000000F8032020D5000000D9000000DB0000002C
:1000100000000000000000000000000000000000E0
:10002000000000000000000000000000DD000000F3
:100030000000000000000000DF000000E100000000
:10004000E3000000650A0000E3000000E300000098
:1000500039040000E3000000E3000000E3000000BA
:1000600000000000E3000000E300000000000000CA
:1000700000000000E3000000E3000000E3000000D7
:10008000F1110000E3000000E3000000E3000000C5
:10009000E3000000E300000000000000000000009A
:1000A000E3000000E300000000000000000000008A
:1000B000E300000000000000E3000000E300000097
:1000C0000348854600F0A0F90048004711140000DD
:1000D000F803202003480047FEE7FEE7FEE7FEE7BF
:1000E000FEE7FEE7C1000000F8B502464A40D40F23
:1000F00042004B0052085B089A4202D20246084670
:1001000011464A0023D0C30D4A00DDB2120EAD1ACB
:10011000202D35DA49020126490AF6058A19002CF4
:1001200000D0524220214F1B1146B9402A411018DD
:10013000C20D9A4221D0002C17D0012D08DCDA051F
:10014000801AD20F8019D207DBB200F023F9F8BD74
:10015000DA05801A012340001B06C01880185A4295
:100160008018CA0F1043490007E04908C20711432D
:10017000DA05801A80194008801800F003F9F8BDEC
:1001800061000122511A001BF7E70122D2075140FA
:10019000AAE70122D2075040A6E7024670B54A40BE
:1001A000D30FDB0740002DD04A002AD0010E140ED9
:1001B000000212020919400A520A8418E501044695
:1001C0005443000A120A2E045043A4194219200C69
:1001D000C543AA18120C0125AD03521C5219120472
:1001E0007F39240400D0521C104301D44000491E22
:1001F000C2B20C06C0092018401C4008802A02D058
:1002000003E0002070BD40084000002900DA002013
:10021000184370BD70B502464A40D50F40004A00F1
:10022000ED0740085208002814D0002A12D0C40D4F
:10023000D30D41020120C0055202490A520AE41AB4
:10024000091812187D34914201D3641C00E0490062
:10025000002C01DA002070BD0023914201D3891ADD
:100260000343400849000028F7D100290AD09142F1
:1002700002D10121C90705E0914201D2012101E02B
:100280000121C943E005C018401900F07BF870BD9A
:100290000122D207002800DB101A002900DB511AC6
:1002A000814201D201207047002070470122D2070D
:1002B000002800DB101A002900DB511A814201D30B
:1002C0000120704700207047C217C10F504010B581
:1002D0004018CA079623002100F05CF810BD10B545
:1002E00000229623114600F055F810BDC20F4100C0
:1002F00040020123400ADB05D207090EC0187F29FE
:1003000001DA00207047962903DC9623591AC84069
:1003100001E096398840002AF4D0404270474100FD
:1003200040020122400AD205090E80187F2901DA15
:1003300000207047962903DC9622511AC840704766
:1003400096398840704770B50446002903D00020D4
:100350002022012310E0002801D00020C043C04625
:10036000C0460DE02546D5408D4205D30D4695404B
:10037000641B1D46954040191546521E002DF1DCA8
:10038000214670BD002904DA401C490001D1400813
:100390004000704770B40024050C05D110240004FF
:1003A00002D1002921D01124050E01D10002083408
:1003B000050F01D10001241D850F01D18000A41C6F
:1003C000002801DB4000641C002908D020252E1BDA
:1003D0000D46F540A14000D0012129430843010604
:1003E0001B1B000ADB1D02D5002070BC7047DB051B
:1003F000181880180029F8DA401C4900F5D170BCA3
:1004000040084000704700001CB5094800900948AA
:10041000019005460126009C05E0E36807CC3343C4
:100420000C3C98471034AC42F7D3FFF74DFE000068
:10043000641C0000841C000004480068C0B20A2844
:1004400002D10348012101707047C04620100040CE
:100450005901202070470000B049884206D0B049B9
:10046000884207D0AF49884207D0704740480121F1
:10047000016070470120800601E00120C0063D496F
:10048000086070477047704770470000B0B5044679
:10049000007F012847D1A148844218D0A048844257
:1004A0001ED0A048844225D0A34884420BD09E4849
:1004B00084422DD09D4884422DD09D4884422DD029
:1004C0009C4884422ED12A48012101602AE0284814
:1004D000012101603F200106284801F039F821E0A0
:1004E00001208006234908603F200106224801F0D0
:1004F0002FF817E00120C0061E4908601E4800259D
:10050000294601F025F81D48294601F021F809E0A7
:100510000120800604E00120C00601E001208005E2
:1005200014490860207F022808D17C48844206D004
:100530007B4884420DD07B48844214D0B0BD0C4827
:10054000103801210160BF2001060C4801F000F8BD
:10055000B0BD0120800607490861BF20010606489A
:1005600000F0F6FFB0BD0120C00602490861B0BD31
:10057000A0120A4090320A40C0022020C802202067
:10058000F0B581B064480468002C00D1C2E01920A5
:1005900000010090614E694D61490CE02046FFF773
:1005A00075FF2046FFF76FFF002020752469002C9F
:1005B0005B4900D1AEE0B44216D08C4217D0594905
:1005C0008C4216D058498C4215D058498C4214D0D0
:1005D00057498C4213D057498C4212D05648844216
:1005E0001AD10B2054490DE0142031460AE01620A0
:1005F00008E0172006E0072004E0082002E00920B8
:1006000000E00A202A680B78FD271F40C240022024
:100610000240D21942400A702078FE22024081072F
:10062000C80F80182070002906D4227D032A01D12A
:100630006268A26100226260032203461340032B1A
:1006400004D13F4B1B786768FB186360237D042B44
:100650000BD13B480078A1680818A060C8289DD835
:1006600060681528A2D302209FE70027A760032B0C
:100670009CD82E467B441B795B009F4401080C16D6
:10068000277700293546254E90D501208DE7002992
:1006900013D4277506E000291BD404202075207F81
:1006A000401C207735461D4E80E7A18900291ED0C9
:1006B000234A1278891AA1811FE0606815283546FF
:1006C000164E00D272E7022020752046FFF7DAFEB0
:1006D0006CE760681B4988423546104E00D265E7DA
:1006E0000098A08122752046FFF7B4FE5EE70098CF
:1006F000A0812046FFF7B0FE20783546074E8007E0
:1007000000D553E72046FFF7BFFE2046FFF7BBFEAC
:1007100027754BE701B0F0BDBC022020440020202B
:100720006400202084002020A4002020C400202079
:10073000E4002020040120202401202080330A40EE
:100740000000202021030000B0B50A7803231340E5
:100750000B4A84580B4D2540EB18A92424061B197D
:100760008350072212064B681340112424020559B6
:100770009543EA180251001949780161B0BDC0469D
:1007800008080000FCFFFF00811E091F00BFFCD20B
:1007900070470000B0B51122120283580C4C1C4067
:1007A0000B894D881D438B792B430A4D1D406319DE
:1007B0008350CB798C881C43097821435D239B00AF
:1007C0001940801842689A4351184160B0BDC04634
:1007D00080CCFFFF7F33000010B501221203831885
:1007E0000C785C604978815010BD000070B582B013
:1007F0000B794A79002A24D0174A21242401202B7E
:1008000000D070348218002B00D18824156C3F4E24
:1008100035402D191564556C35402C1954641468F5
:10082000774D2C40146054682C40546000241462AE
:1008300054628F24E443156D25401565556D2540A0
:1008400055656A4613718B79537109680091114699
:1008500000F004F802B070BD38180000F0B5664A28
:100860008218294BC318087920280DD000281DD1E3
:100870000C68641E5460D56E244C25408835D566BE
:100880001646703688251DE00C68641E5460D46ED0
:100890001E4D2C401E4EA419D466146F2C40A41972
:1008A0001467012465071B4C16460BE00C686408AE
:1008B0005460D66E154C26400525ED017619D66696
:1008C00016467036376827402F433760D46A4C4D40
:1008D0002C40D462146B2C4014630024D46414653F
:1008E0008F24E443D56F2540D5671D6825401D60E2
:1008F00049790143BD2008401168074B0B40C018DF
:10090000801C1060F0BDC0468418000024493E00E1
:1009100001040000FFFFFFCF4000FFCFB0B5364A13
:1009200080184A6842600A78222A57D8930001A4A6
:10093000E3589F46D3090000DD090000D3090000F9
:10094000DD090000DD090000DD090000DD0900000F
:10095000DD090000DD090000DD090000DD090000FF
:10096000DD090000DD090000DD090000DD090000EF
:10097000DD090000C1090000DD090000C109000017
:10098000DD090000DD090000DD090000DD090000CF
:10099000DD090000DD090000DD090000DD090000BF
:1009A000DD090000DD090000DD090000DD090000AF
:1009B000DD090000C1090000DD090000C1090000D7
:1009C00003231B0704689C4301235B07E3180360B0
:1009D00004E003231B0704689C4304600B8AC36084
:1009E000CB68064C1C40C36A054D1D402B19C362E1
:1009F000097A11430160B0BD041800007777020046
:100A00008888FDFF10B507239B04194092008018C9
:100A1000024A84589C436118815010BD3018000070
:100A200010B5029CA400001911431943014A8150DA
:100A300010BDC0465018000092008018014A815035
:100A40007047C0461018000010B501221203831829
:100A50000C789C604B7883508978014A815010BD96
:100A60000C110000F0B581B0304F384618380068DE
:100A7000800758D500200090C0432D4D103D2968B7
:100A8000C9062C4A25D51168402701260F40034688
:100A900000D03346002F344600D00446264949781A
:100AA000002900D02346254C626B9A186263002F00
:100AB00001D1009AD6431D4F6671002900D07642BD
:100AC000E16A7118E1621A4B196810220A431A6030
:100AD000184A2968890622D51168802501240D400D
:100AE000214600D00146002D00D02046124A16783B
:100AF000002E00D00146114B186B08181863002D0A
:100B000001D00098C4431C71002E00D06442986A42
:100B100020189862064A1068202101431160386845
:100B200002210143396001B0F0BDC0465811404078
:100B300048300A4080330A40E4022020040020208C
:100B4000B0B5144605467E2800D9491C5039C8B2B4
:100B500000F020F97E2D00D900252809103000F082
:100B600019F90E202840401C00F014F9203CE0B296
:100B7000062444432C4D285D00F032F92C1960788E
:100B800000F02EF9A07800F02BF9E07800F028F9B9
:100B9000207900F025F9607900F022F9B0BDC04657
:100BA000F0B583B001921478002C3AD006460027A5
:100BB00029E0F0B20009103000F0ECF80E203040CF
:100BC000401C00F0E7F8203CE0B206244443164DF8
:100BD000285D00F005F92C19607800F001F9A07883
:100BE00000F0FEF8E07800F0FBF8207900F0F8F86B
:100BF000607900F0F5F8B61D7F1CF8B201990C5C25
:100C0000002C02990DD0F5B27E2D00D9491C02911D
:100C100008465038C0B200F0BDF87E2DC9D9002674
:100C2000C7E703B0F0BDC046F6190000B0B50446F2
:100C30005039CDB2284600F0ADF8012000F0AAF8F6
:100C4000102000F0A7F8284600F0A4F82009103082
:100C500000F0A0F80E202040401C00F09BF860B28D
:100C6000002806D4002000F0BBF8601C44B2002C21
:100C7000F8D5B0BDB0B50446B02000F08BF8012027
:100C800000F088F8102000F085F80025204600F0DC
:100C9000A7F8681C45B2002DF8D5B12000F07AF80D
:100CA000012000F077F8102000F074F800252046AD
:100CB00000F096F8681C45B2002DF8D5B22000F07F
:100CC00069F8012000F066F8102000F063F80025B4
:100CD000204600F085F8681C45B2002DF8D5B320F9
:100CE00000F058F8012000F055F8102000F052F8FC
:100CF0000025204600F074F8681C45B2002DF8D598
:100D0000B42000F047F8012000F044F8102000F073
:100D100041F80025204600F063F8681C45B2002D1C
:100D2000F8D5B52000F036F8012000F033F8102097
:100D300000F030F80025204600F052F8681C45B25B
:100D4000002DF8D5B62000F025F8012000F022F89B
:100D5000102000F01FF80025204600F041F8681C24
:100D600045B2002DF8D5B72000F014F8012000F0AE
:100D700011F8102000F00EF80025204600F030F8A1
:100D8000681C45B2002DF8D5B0BD80B500F002F862
:100D900080BD0000B0B501231905234A11615B0431
:100DA0001361224C2568ED0608D52568ED0605D5AA
:100DB0002568ED0602D52568ED06F3D4206320688A
:100DC000400708D52068400705D52068400702D5B0
:100DD00020684007F3D4206A13601160B0BDC0469C
:100DE00010B501231905104A11615B0413600F4B04
:100DF0001C68E40608D51C68E40605D51C68E406F2
:100E000002D51C68E406F3D418631868400708D5B7
:100E10001868400705D51868400702D518684007CC
:100E2000F3D4186A116010BD90320A4010B14640E8
:100E300010B50124A0071149FFF786FC1F2001040B
:100E40000F4882688A432104511881600D490C6063
:100E50007D210902416161020B4A136A0B4313624F
:100E600013680B43136009490A68C02313433F22E8
:100E700093430B6001682143016010BD201C0000FA
:100E800000110040841100402810004004E400E0FC
:100E9000F0B5274A8725956701218B032548036014
:100EA0008823D361244B08241C6085245463802646
:100EB0001E60146210241C60204C2565CD051D6049
:100EC0008425956104251D608325A561D5671C4D8A
:100ED000AE1C666181261660266666666664194FDA
:100EE0002764A764E764576617669766D76617672F
:100EF0002660A662E66395651564D56555641A4655
:100F0000403A11601960014630390F4A0A600260A8
:100F10000F2000020D490A6802430A600C48016A6A
:100F2000302211430162016811430160F0BDC046E7
:100F300004804240D0320A40D0120A4084804240AD
:100F400081000400810006000000530C90330A4029
:100F500028300A40F0B583B02C4C2D492046FFF7CD
:100F600073FD2C492046FFF741FC002500952046E3
:100F700029462A462B46FFF753FD204629462A4696
:100F8000FFF740FD204629462A46FFF755FD01267A
:100F900002960096204629462A462B46FFF740FD3A
:100FA000204629463246FFF72DFD20462946324687
:100FB000FFF742FD022600961027204629463A46B2
:100FC0002B46FFF72DFD204629463246FFF71AFD36
:100FD000204629463246FFF72FFD0326009620467D
:100FE00029463A462B46FFF71BFD20462946324646
:100FF000FFF708FD204629463246FFF71DFD06484B
:10100000029981600F21016003B0F0BD00008640AD
:10101000281C00002C1C00000011864070B582B016
:10102000194C1A492046FFF70FFD19492046FFF7D2
:1010300015FC00250095204629462A462B46FFF739
:10104000EFFC204629462A46FFF7DCFC20462946CD
:101050002A46FFF7F1FC01260096204629462A463B
:101060002B46FFF7DDFC204629463246FFF7CAFC37
:10107000204629463246FFF7DFFC064886600321FA
:10108000016002B070BDC04600A08640341C000064
:10109000381C000000B1864010B50D4C0D492046AB
:1010A000FFF79AFB0C492046FFF774FB0B48416899
:1010B0000B4A0A400F324260816812220A432D21F6
:1010C0008A438260016801220A43026010BDC04663
:1010D00000A04640401C0000421C000004B14640F5
:1010E00000FCFFFF08480021016008480168032256
:1010F00091430160FF20000205490A6882430120F4
:10110000800310180860704708030B4000010B4073
:1011100000E400E010B5084C08492046FFF794FCB5
:1011200007492046FFF7FAFB0648016801221143F0
:1011300001600548026010BD004008404C1C0000E2
:10114000501C0000285008400851084080B500F0AD
:101150001FF8FFF79DFEFFF7C5FFFFF7FBFEFFF748
:101160005DFFFFF7D7FFFFF797FFFFF761FE7420E2
:10117000044900220A54B82003490A542420034990
:101180000A5480BD180220205C01202090022020FB
:10119000F0B581B00D480E4941600E4A51600E4BCA
:1011A00059600E4C61600E4D69600E4E71600E4FBD
:1011B00079600E4901601160196021602960316019
:1011C00039601020FFF7E0FA01B0F0BD00080A40D6
:1011D000030000B100280A400008864000A88640AD
:1011E0000048084000A846400008004001000026D2
:1011F00010B516480068C0B2012825D1144C2078DB
:10120000401C2070C0B20A2803D3FFF7B9F90020B0
:10121000207010480178491C0170C9B2642906D3B6
:101220000D4901220A70B6490A70002101700B486D
:101230000188491C018089B289087D2904D30021D5
:10124000018072480121017010BDC0462050084045
:10125000DE022020DD02202056012020E002202096
:101260002E48102101607047F0B581B00125280299
:10127000194E716801437160184F38681849FEF7BC
:101280008CFF044617480088FFF729F81649FEF737
:1012900084FF1649FEF7BEFF01462046FEF724FFF5
:1012A00038601349FEF779FF9849086011480178C2
:1012B000002908D10178002905D10178002902D13F
:1012C00001780029F3D00C4800680649088030688E
:1012D0002843306001B0F0BD00110040B80220206A
:1012E0003333333F50012020A4707D3F00F07F4511
:1012F00000003041590120208462554080B500F043
:1013000019FA80BD80B5FFF74BFC80BD0248022171
:10131000016002480160704780E200E000E100E007
:10132000F0B52B4B002018612A4A14682A49002C7A
:10133000144601D00C68103423601468002C154644
:1013400001D01D461035254C2C6020611568002DFC
:10135000164601D026461036214D356028611668A4
:10136000002E174601D02F4610371E4E3E603061CA
:1013700018752075287530751B4B18751861146821
:10138000002C144601D0103634462360174C2061DF
:1013900020751568002D154601D010331D462C60B0
:1013A000134B187518611568002D154601D01034BF
:1013B00025462B600F4C0A2525700F4C20751568AB
:1013C000002D01D010331A46146020610C60F0BD6E
:1013D00044002020BC022020D402202064002020D1
:1013E0008400202024012020A4002020C4002020EC
:1013F000E400202000002020040120200348017880
:10140000002901D0002101707047C04658012020FA
:10141000FFF79CFE00F080F9FFF782FF00F00EF866
:10142000FFF71EFFFFF772FF00F07CF8FFF7E6FF03
:1014300000F026F8FFF718FFF8E70000F0B581B0DC
:10144000012005040D4E35617D20040264272046ED
:10145000FFF79AF97F1E3804F9D13560322520460E
:10146000FFF792F96D1E2804F9D1022000F0B6F8BA
:101470000020FFF7FFFB01B0F0BDC04690320A40EC
:10148000F0B581B01E480178002936D000240470E0
:1014900020462146FFF7CAFB1AA220462146FFF745
:1014A00031FF1A4802681E202146FFF727FF012658
:1014B00020463146FFF7BAFB15A220463146FFF71A
:1014C00021FF154F786BFEF7FFFE024622252846C6
:1014D0003146FFF713FF022620463146FFF7A6FBF1
:1014E0000EA220463146FFF70DFF386BFEF7ECFEEB
:1014F000024628463146FFF701FF01B0F0BDC04665
:10150000570120204144433A200000004C01202094
:1015100052696768743A2000040020204C656674A4
:10152000203A20000648002141600122028005483F
:101530004160054901800548016811430160704719
:10154000C0022020C80220200203000004188640A8
:1015500070B50D460446416000212846FEF798FE0E
:1015600000281DD000212846FEF7A0FE00282FD11C
:101570002278194E032A03D800213046FFF75CFA7F
:101580006478032C24D80120C007854311492846DC
:10159000FEF703FEFEF7C3FE01463046224615E085
:1015A0002678032E0DD80120C00785430949284617
:1015B000FEF7F3FDFEF7B3FE014607483246FFF79C
:1015C0003BFA6278032A03D803480021FFF734FA74
:1015D00070BDC04600007A4400008640F0B581B07E
:1015E00004464048002606803F4804703F48068075
:1015F0003F48012101703F4801703F4806703F4855
:1016000001703F48802707803E4801703E484025D2
:1016100005803E480670F0433D4908803D490880FA
:10162000AE20FFF7B2FBD520FFF7AFFB3846FFF740
:10163000ACFBA820FFF7A9FB3F20FFF7A6FBD320B8
:10164000FFF7A3FB3046FFF7A0FB2846FFF79DFB03
:101650008D20FFF79AFB012C01D0142000E0102010
:10166000FFF793FB2020FFF790FB3046FFF78DFB41
:10167000A1263046FFF789FBC8273846FFF785FBD0
:10168000DA20FFF782FB1220FFF77FFB8120FFF7B4
:101690007CFB012C01D0CF2000E09F20FFF775FBE1
:1016A000D920FFF772FB012C01D0F12000E02220AD
:1016B000FFF76BFBDB20FFF768FB2846FFF765FBB6
:1016C000A420FFF762FBA620FFF75FFB3046FFF781
:1016D0005CFB3846FFF759FBAF20FFF756FB01B024
:1016E000F0BDC04652012020480120205401202096
:1016F000DC022020F402202045012020440120208B
:101700004A0120204000202046012020D002202035
:10171000D8022020DA02202001200104034A1160AF
:1017200003490A6802430A607047C04600E100E0CE
:1017300004580840F0B589B017460C46054600210C
:1017400010460491FEF7B2FD002803940AD105A8C3
:101750002D22027028462146FFF7F2F90120C0072A
:101760004740AD1D02953846FEF7C0FD0446FEF722
:10177000ABFD01463846FEF708FD01908448864AD5
:101780008649874D874FBC4203DAAC421DDD049F7A
:101790000DE084492046FEF7D6FD302102460A437B
:1017A00005AB1A704743E41BAC4215D901277F49AA
:1017B0002046FEF7C8FD05A9C919024630320A7055
:1017C000691C4143641A7D1C09E08C4200DCBEE0C8
:1017D0000F460025019E06E005A841700225019EE6
:1017E0006E4FBC420CD972492046FEF7ACFD05A9EC
:1017F0004919024630320A70791C4143641A03E0E9
:1018000005A8401930210170634837466E1C844298
:101810000DD9054667492046FEF795FD0146303152
:1018200005AA9155691C4143641A751C03E005A87B
:1018300030218155AD1C574EB4420BD95E4920462C
:10184000FEF781FD0146303105AA5155711C414317
:10185000641A02E005A8302141554D486E1C8442AF
:101860000DD9054655492046FEF76DFD014630313C
:1018700005AA9155691C4143641A701C03E005A830
:1018800030218155A81CE1087C290ED9A1B2C908D4
:101890004B4A4A43110D0A46303205AB1A547D2299
:1018A000D2004A43A11A8CB202E005A930220A54A0
:1018B000411C632C10D9A0B28008424A4243500C0C
:1018C0000246303205AB5A5464224243A01A84B215
:1018D0004E1C092C06D812E005AA30235354861C4E
:1018E000092C0CD9E0B2CD214143C80A0146303160
:1018F00005AA91550A214143601AC4B202E005A825
:1019000030218155761CF5B2303405A844552E4956
:101910003846FEF7BDFC00280DD12C493846FEF7AD
:101920003CFCFEF7E3FC3030B61CF1B205AA505483
:10193000A8182E2141700399029BF0B205AA8018C5
:10194000049C4470D8B2FFF72BF909B0F0BD944263
:1019500003DD15460026019F5CE70E4EB44202DD12
:101960000025019F6AE7844203DD05460026019FAA
:1019700078E70D48844202DD0020019F86E7642C51
:10198000019F01DB002196E700260A2CAADABAE7BC
:101990000F2700009F8601003F420F007F969800AE
:1019A000FFE0F50500CA9A3BE703000000E1F505FA
:1019B0008096980040420F00A0860100102700008A
:1019C000C52000007B140000CDCCCC3D00002041A0
:1019D00002E008C8121F08C1002AFAD170470000AF
:1019E0007047000000000000002001E001C1121F4C
:1019F000002AFBD170470000000000000000002F0B
:101A0000000000000700070000147F147F1400246A
:101A10002A7F2A1200626408132300364955225097
:101A200000000503000000001C22410000004122CC
:101A30001C000014083E08140008083E08080000B6
:101A400000A06000000808080808000060600000AE
:101A5000002010080402003E5149453E0000427F2C
:101A60004000004261514946002141454B31001878
:101A700014127F10002745454539003C4A4949303A
:101A800000017109050300364949493600064949F4
:101A9000291E0000363600000000563600000008FF
:101AA00014224100001414141414000041221408DC
:101AB00000020151090600324959513E007C1211C1
:101AC000127C007F49494936003E41414122007F56
:101AD0004141221C007F49494941007F0909090110
:101AE000003E4149497A007F0808087F0000417F95
:101AF0004100002040413F01007F08142241007F47
:101B000040404040007F020C027F007F0408107FAD
:101B1000003E4141413E007F09090906003E415116
:101B2000215E007F091929460046494949310001D3
:101B3000017F0101003F4040403F001F2040201F27
:101B4000003F4038403F00631408146300070870EA
:101B5000080700615149454300007F41410000559D
:101B60002A552A55000041417F0000040201020469
:101B70000040404040400000010204000020545456
:101B80005478007F484444380038444444200038A6
:101B90004444487F00385454541800087E09010218
:101BA0000018A4A4A47C007F080404780000447DED
:101BB0004000004080847D00007F10284400000029
:101BC000417F4000007C04180478007C08040478FD
:101BD00000384444443800FC2424241800182424E9
:101BE00018FC007C080404080048545454200004E5
:101BF0003F444020003C4040207C001C2040201CF2
:101C0000003C4030403C004428102844001CA0A068
:101C1000A07C004464544C441414141414140000A4
:101C2000000500000000000008001F00E80300009D
:101C30002001000008072700E80300002000000042
:101C40000800040000030000071000000800000066
:101C500002000000FF7C0000000000000000000007
:101C600000000000881C0000000020204000000050
:101C7000D0190000C81C000040002020B80300005C
:101C8000E8190000000000000A0000000000000049
:101C90000000000000000000000000000000000044
:101CA0000000000000000000000000000000A04153
:101CB0000000A04100000000000000000000000043
:081CC00000000000000000001C
:04000005000000C136
:00000001FF
