:020000040000FA
:10000000600120206D0100007101000073010000FB
:1000100000000000000000000000000000000000E0
:10002000000000000000000000000000750100005A
:1000300000000000000000007701000079010000CE
:100040007B0100007B0100007B0100007B010000C0
:100050007B0100007B0100007B0100007B010000B0
:10006000000000007B0100007B0100000000000098
:10007000000000007B0100007B0100007B0100000C
:100080007B0100007B0100007B0100007B01000080
:100090007B0100007B010000000000000000000068
:1000A0007B0100007B010000000000000000000058
:1000B0007B010000000000007B0100007B010000CC
:1000C00000F002F800F042F812A030C808382418F6
:1000D0002D18AC4201D100F039F80FCCA246AB4646
:1000E0000CA730CF2D1B083F3F197C427F1E544484
:1000F0002D090426F441641EAC4201D300F026F819
:100100000126334200D0FB1A3343984754465D46DC
:10011000DFE70000CC020000DC020000000000006D
:100120007047000000000000002300240025002686
:10013000103A01D378C1FBD8520700D330C100D5A3
:100140000B6070471FB51FBD10B510BD00F027F83C
:100150001146FFF7F7FF00F023F900F03FF803B472
:10016000FFF7F2FF03BC00F045F800000648004727
:10017000FEE7FEE7FEE7FEE7FEE7FEE70348044989
:10018000024A044B70470000C100000060002020BC
:10019000600120206000202070477047704775463E
:1001A00000F024F8AE46050069465346C008C0007A
:1001B000854618B020B5FFF7E1FF60BCB6460026C3
:1001C0000027C0C5C0C5C0C5C0C5C0C5C0C5C0C565
:1001D000C0C5403D490849008D46704710B50446EA
:1001E000C046C0462046FFF7BAFF10BD0048704722
:1001F0000000202001491820ABBEFEE726000200C7
:10020000704782B001900199881E001F00BFFCD288
:10021000009002B0704784B003900291019203985D
:100220000068009000980199884300900098029916
:10023000019A114008430399086004B0704782B0E6
:10024000019000910098019995225201885002B0C6
:100250007047000082B00190009100980199024A15
:10026000885002B07047C046D012000081B00090A4
:1002700000990120C2020248885001B07047C04670
:100280000100002681B0009000988100024A812080
:10029000885001B07047C0460480424081B0009051
:1002A0000099024A0248885001B0704704080000D3
:1002B000030000B182B00190009100980199024AB8
:1002C000885002B07047C046B012000081B00146AD
:1002D0006846017000780249086001B07047C04666
:1002E00008030B4080B582B0014601A80170017877
:1002F00002480322FFF78FFF02B080BD00010B40D0
:1003000080B586B00020FFF7BDFF3820FFF7BAFFA9
:100310003920FFF7B7FF31200390FFF7B3FF2B48D9
:10032000019001210291FFF78AFF01980299FFF7DE
:1003300091FF03988105059125480490FFF77FFF01
:1003400004980599FFF786FF06B080BD80B582B09E
:1003500000200190FFF7BAFF0198FFF7C3FF02B03A
:1003600080BD80B500F006F8FFF7CAFFFFF7EEFF8B
:1003700080BD000080B582B014480090FFF78EFF6A
:1003800013480190FFF78AFF0098FFF76FFF01986D
:10039000FFF76CFF1020FFF734FF02B080BDC046AE
:1003A00080B582B00020019000F014F8FFE7064805
:1003B000FFF727FF05480121FFF77CFF312081056A
:1003C0000348FFF777FFF2E70024F40000000A403B
:1003D00000200A4080B5FFF7C4FF80BD0000000088
:1003E000F003000000002020600100002801000050
:04000005000000C136
:00000001FF
