:020000040000FA
:1000000028042020D5000000D9000000DB000000FB
:1000100000000000000000000000000000000000E0
:10002000000000000000000000000000DD000000F3
:100030000000000000000000DF000000E100000000
:10004000E3000000CD0E0000E3000000E30000002C
:1000500035080000E3000000E3000000E3000000BA
:1000600000000000E3000000E300000000000000CA
:1000700000000000E3000000E3000000E3000000D7
:1000800065160000E3000000E3000000E30000004C
:10009000E3000000E300000000000000000000009A
:1000A000E3000000E300000000000000000000008A
:1000B000E300000000000000E3000000E300000097
:1000C0000348854600F08CFB004800478919000072
:1000D0002804202003480047FEE7FEE7FEE7FEE78E
:1000E000FEE7FEE7C1000000F8B502464A40D40F23
:1000F00042004B0052085B089A4202D20246084670
:1001000011464A0023D0C30D4A00DDB2120EAD1ACB
:10011000202D35DA49020126490AF6058A19002CF4
:1001200000D0524220214F1B1146B9402A411018DD
:10013000C20D9A4221D0002C17D0012D08DCDA051F
:10014000801AD20F8019D207DBB200F0AEFAF8BDE8
:10015000DA05801A012340001B06C01880185A4295
:100160008018CA0F1043490007E04908C20711432D
:10017000DA05801A80194008801800F08EFAF8BD60
:1001800061000122511A001BF7E70122D2075140FA
:10019000AAE70122D2075040A6E7024670B54A40BE
:1001A000D30FDB0740002DD04A002AD0010E140ED9
:1001B000000212020919400A520A8418E501044695
:1001C0005443000A120A2E045043A4194219200C69
:1001D000C543AA18120C0125AD03521C5219120472
:1001E0007F39240400D0521C104301D44000491E22
:1001F000C2B20C06C0092018401C4008802A02D058
:1002000003E0002070BD40084000002900DA002013
:10021000184370BD70B502464A40D50F40004A00F1
:10022000ED0740085208002814D0002A12D0C40D4F
:10023000D30D41020120C0055202490A520AE41AB4
:10024000091812187D34914201D3641C00E0490062
:10025000002C01DA002070BD0023914201D3891ADD
:100260000343400849000028F7D100290AD09142F1
:1002700002D10121C90705E0914201D2012101E02B
:100280000121C943E005C018401900F006FA70BD0D
:10029000F0B507460846584087B0C00F04904800A4
:1002A0000E46590040084908BC1A884105D2384614
:1002B00031461E4617460B4602465800400810437A
:1002C0004CD0300D039040055900400D490D05906C
:1002D000401A0290402872DA18030121000B090528
:1002E0000843019004980092002805D001995242D9
:1002F0000020884100920190029840210A1A019939
:10030000009800F0A7F905460C466B4607CB00F0B5
:10031000B1F9C0197141039A0E0D0023D717564049
:100320001A467A40164344D0049A002A2DD0029AE5
:10033000012A039A15DC1205C01A914101263605DF
:10034000001C7141D20F059ED207009301920296C4
:100350002A46234600F0EFF907B0F0BD3846314693
:10036000FAE71605224A0F46B218C01AB741012112
:100370000905001C4F4100187F41114618187941AA
:10038000E20F10436D19644113E0E2076D08154355
:100390006408C2071443039A01261205C01A91414A
:1003A0003605001C7141CE07400830434908C0188B
:1003B00051412A46234600F0B1F9CDE7FFE7049802
:1003C00001224000C117121A00238B4104983146C4
:1003D000C417381AA141EEE730B40124E4076340A2
:1003E00030BC55E730B40124E407614030BC4FE72E
:1003F0000000E0FFF0B50C465C4085B0E40FE40778
:1004000003944C00002664085900944649080246AB
:100410000296224321D062460A431ED06200570D45
:100420004A000E032303550D012402462C492405DE
:10043000781B1B0B360B4018234326436146009064
:100440001C46501AB44103D30098401C009002E0AF
:10045000921800985B41002803DA0020014605B09D
:10046000F0BD0020012109050746864611E06446DB
:100470001D46141BB54106D36546521BB341744655
:1004800007430C43A646CD07400849082843921865
:100490005B4105460D43EAD11046184313D0604630
:1004A000194650407140084306D06046101AB341C7
:1004B00006D20122002306E000220123DB0702E02E
:1004C0000122D2435310009874460105381C614143
:1004D000029C039D0019694100F020F9BFE700006C
:1004E000FD0300000122D207002800DB101A0029BA
:1004F00000DB511A814201D2012070470020704771
:100500000122D207002800DB101A002900DB511A53
:10051000814201D301207047002070470122D20799
:10052000002800DB101A002900DB511A814201D992
:100530000120704700207047C217C10F504010B50E
:100540004018CA079623002100F0AFF810BD10B57F
:1005500000229623114600F0A8F810BDC20F4100FA
:1005600040020123400ADB05D207090EC0187F298B
:1005700001DA00207047962903DC9623591AC840F7
:1005800001E096398840002AF4D04042704741008B
:1005900040020122400AD205090E80187F2901DAA3
:1005A00000207047962903DC9622511AC8407047F4
:1005B000963988407047C20FD207400040080BD0E0
:1005C000C10D0723DB01C91840020905400A114388
:1005D000C208400711437047002001467047CB0F07
:1005E000DB07490010B5490802460A4307D00A0D47
:1005F00007240903E401090B121B002A01DC002077
:1006000010BDC900440F0C43C100E018D20580188A
:1006100000F043F810BD70B50446002903D0002057
:100620002022012310E0002801D00020C043C04652
:10063000C0460DE02546D5408D4205D30D46954078
:10064000641B1D46954040191546521E002DF1DCD5
:10065000214670BD10B5202A04DB0146203A9140A6
:10066000002010BD914020239C1A0346E34019430B
:10067000904010BD10B5202A06DBCB170846203A63
:100680001041C1170B4306E00B461341D040202414
:10069000A21A91400843194610BD002904DA401CF3
:1006A000490001D140084000704770B40024050C97
:1006B00005D11024000402D1002921D01124050EF7
:1006C00001D100020834050F01D10001241D850F5E
:1006D00001D18000A41C002801DB4000641C00291B
:1006E00008D020252E1B0D46F540A14000D0012149
:1006F0002943084301061B1B000ADB1D02D500200D
:1007000070BC7047DB05181880180029F8DA401C07
:100710004900F5D170BC40084000704710B5002B6F
:1007200008DA0024401C614192185B411A4301D150
:100730004008400010BDF0B51FB482B005460C0063
:1007400003D0084601F042FC02E001F03FFC2030FB
:100750000246009021462846FFF77CFF049B059A3D
:1007600004460F4618431143084314D0184610435B
:100770001BD0009840210A1A1846059900F048F845
:1007800005460E46009A05990498FFF763FF084353
:1007900005D0012004E02046394607B0F0BD002016
:1007A000C11705430E432C43374300990E98630548
:1007B000401A7905E40A00220C43FD0A0A3002D5EA
:1007C00000200146E9E70105101969410C9C0D9DC7
:1007D00000196941FFF7A2FFDFE7000000000000F9
:1007E0001CB5094800900948019005460126009C67
:1007F00005E0E36807CC33430C3C98471034AC4227
:10080000F7D3FFF761FC000094220000B42200003F
:1008100010B5202A04DB0846203AD040002110BD44
:100820000B46D340D0402024A21A914008431946D9
:1008300010BD000004480068C0B20A2802D1034875
:10084000012101707047C04620100040780120202F
:1008500070470000C049884206D0C049884207D08E
:10086000BF49884207D070474B480121016070475B
:100870000120800601E00120C00648490860704759
:10088000704770477047000070B50446007F01282C
:100890005CD1B148844218D0B04884421ED0B048E0
:1008A000844225D0B348844230D0AE48844242D0FE
:1008B000AD48844242D0AD48844242D0AC488442E4
:1008C00043D13548012101603FE0334801210160F7
:1008D0003F200106384801F027F936E00120800664
:1008E0002E4908603F200106324801F01DF92CE036
:1008F0000120C006294908602E480025294601F03C
:1009000013F92D48294601F00FF91EE02248012174
:100910000160234E30682349FFF7E6FB0546224974
:10092000FFF7FCFD002800D0204D35602048294607
:1009300001F0D4F809E00120800604E00120C0069F
:1009400001E00120800515490860207F022808D1B8
:100950008148844206D0814884420DD08048844238
:1009600014D070BD0C48103801210160BF20010671
:10097000114801F0D9F870BD0120800607490861CF
:10098000BF2001060B4801F0CFF870BD0120C00662
:100990000249086170BDC046A0120A4090320A4068
:1009A000F4022020000020410000B4420000B4C244
:1009B000F8022020E0022020E8022020F0B581B0DB
:1009C00064480468002C00D1C2E0192000010090A6
:1009D000614E694D61490CE02046FFF755FF204606
:1009E000FFF74FFF002020752469002C5B4900D1E0
:1009F000AEE0B44216D08C4217D059498C4216D082
:100A000058498C4215D058498C4214D057498C42D1
:100A100013D057498C4212D0564884421AD10B2029
:100A200054490DE0142031460AE0162008E0172052
:100A300006E0072004E0082002E0092000E00A2088
:100A40002A680B78FD271F40C24002200240D219BD
:100A500042400A702078FE2202408107C80F8018A9
:100A60002070002906D4227D032A01D16268A26188
:100A700000226260032203461340032B04D13F4B44
:100A80001B786768FB186360237D042B0BD13B4800
:100A90000078A1680818A060C8289DD8606815284B
:100AA000A2D302209FE70027A760032B9CD82E46E5
:100AB0007B441B795B009F440118081027770029AD
:100AC0003546254E90D501208DE7002913D404200A
:100AD0002075207F401C20770AE0A189002924D0BE
:100AE000264A1278891AA18125E0002911D4277598
:100AF0003546194E78E76068214988423546164EDA
:100B000000D271E70098A08122752046FFF7A0FE71
:100B10006AE76068152835460F4E00D264E7022068
:100B200020752046FFF7ACFE5EE70098A0812046C6
:100B3000FFF790FE207835468007074E00D553E733
:100B40002046FFF79FFE2046FFF79BFE27754BE7E9
:100B500001B0F0BDDC0220204400202064002020F1
:100B600084002020A4002020C4002020E4002020B5
:100B7000040120202401202080330A40000020208E
:100B800021030000B0B50A78032313400B4A8458B0
:100B90000B4D2540EB18A92424061B19835007226E
:100BA00012064B6813401124240205599543EA1894
:100BB0000251001949780161B0BDC0460808000023
:100BC000FCFFFF00811E091F00BFFCD27047000020
:100BD000B0B51122120283580C4C1C400B894D8871
:100BE0001D438B792B430A4D1D4063198350CB79EC
:100BF0008C881C43097821435D239B001940801891
:100C000042689A4351184160B0BDC04680CCFFFF96
:100C10007F33000010B50122120383180C785C604A
:100C20004978815010BD0000F0B583B00B794A7946
:100C3000002A2AD01A4A1B4C1B4F21252D01202B9C
:100C400000D07035861802190092C219002B00D10D
:100C500088251768464C27407F191760576827403A
:100C60007D1955603568804F3D40356075683D4061
:100C700075600025009C256065608F24E44315693C
:100C80002540156155692540556101AA13718B797D
:100C9000537109680191114600F008F803B0F0BDE6
:100CA000381800005818000078180000F0B584B01B
:100CB0006B4A82180292734BC618784BC218009286
:100CC0002A4BC4180A7901910D68294F202A0392F2
:100CD0000AD0254BC018002A17D16B1E029A536008
:100CE00023683B40882517E0681E029A5060206800
:100CF0003840204B184320606068384018436060DB
:100D0000012045071C4F104608E06B08029A53600B
:100D100023683B400525ED012B43236000990368C0
:100D20003B402B43036030684F4B18403060706885
:100D3000184070600020086048608F20C04323691D
:100D4000034023616369034063610198407903991B
:100D50000843BD2101401068084B0340C818801C9F
:100D6000106004B0F0BDC046741800007018000098
:100D700024493E0001040000FFFFFFCF4000FFCFE9
:100D800070B5374A82184B6853603E4BC3180878D9
:100D9000222857D8840001A52C59A7463B0E0000F5
:100DA000450E00003B0E0000450E0000450E000001
:100DB000450E0000450E0000450E0000450E0000E7
:100DC000450E0000450E0000450E0000450E0000D7
:100DD000450E0000450E0000450E0000290E0000E3
:100DE000450E0000290E0000450E0000450E0000D3
:100DF000450E0000450E0000450E0000450E0000A7
:100E0000450E0000450E0000450E0000450E000096
:100E1000450E0000450E0000450E0000290E0000A2
:100E2000450E0000290E0000032424071568A54381
:100E3000012464072C19146004E0032424071568B6
:100E4000A54315600C8AD460CC68064D25401C680B
:100E5000054E264074191C60097A0143116070BD6B
:100E600004180000777702008888FDFF10B507237B
:100E70009B04194092008018024A84589C436118D0
:100E8000815010BD3018000010B5029CA40000195C
:100E900011431943014A815010BDC046501800004B
:100EA00092008018014A81507047C0461018000017
:100EB00010B50122120383180C789C604B78835084
:100EC0008978014A815010BD0C110000F0B581B045
:100ED000304F384618380068800758D500200090F9
:100EE000C0432D4D103D2968C9062C4A25D51168EF
:100EF000402701260F40034600D03346002F3446DA
:100F000000D0044626494978002900D02346254CC4
:100F1000626B9A186263002F01D1009AD6431D4F6D
:100F20006671002900D07642E16A7118E1621A4BBD
:100F3000196810220A431A60184A2968890622D5BE
:100F40001168802501240D40214600D00146002D66
:100F500000D02046124A1678002E00D00146114BD0
:100F6000186B08181863002D01D00098C4431C7139
:100F7000002E00D06442986A20189862064A1068D1
:100F8000202101431160386802210143396001B01A
:100F9000F0BDC0465811404048300A4080330A40F6
:100FA0001403202004002020B0B5144605467E28F6
:100FB00000D9491C5039C8B200F020F97E2D00D963
:100FC00000252809103000F019F90E202840401C97
:100FD00000F014F9203CE0B2062444432C4D285D77
:100FE00000F032F92C19607800F02EF9A07800F0AA
:100FF0002BF9E07800F028F9207900F025F96079E4
:1010000000F022F9B0BDC046F0B583B0019214786B
:10101000002C3AD00646002729E0F0B20009103033
:1010200000F0ECF80E203040401C00F0E7F8203CC7
:10103000E0B206244443164D285D00F005F92C1952
:10104000607800F001F9A07800F0FEF8E07800F098
:10105000FBF8207900F0F8F8607900F0F5F8B61D9B
:101060007F1CF8B201990C5C002C02990DD0F5B2EE
:101070007E2D00D9491C029108465038C0B200F0BC
:10108000BDF87E2DC9D90026C7E703B0F0BDC04624
:1010900026200000B0B504465039CDB2284600F0F5
:1010A000ADF8012000F0AAF8102000F0A7F82846BB
:1010B00000F0A4F82009103000F0A0F80E20204025
:1010C000401C00F09BF860B2002806D4002000F01D
:1010D000BBF8601C44B2002CF8D5B0BDB0B50446D6
:1010E000B02000F08BF8012000F088F8102000F00C
:1010F00085F80025204600F0A7F8681C45B2002DB1
:10110000F8D5B12000F07AF8012000F077F810202F
:1011100000F074F80025204600F096F8681C45B2EF
:10112000002DF8D5B22000F069F8012000F066F833
:10113000102000F063F80025204600F085F8681CB8
:1011400045B2002DF8D5B32000F058F8012000F08A
:1011500055F8102000F052F80025204600F074F8F1
:10116000681C45B2002DF8D5B42000F047F80120E6
:1011700000F044F8102000F041F80025204600F06F
:1011800063F8681C45B2002DF8D5B52000F036F89C
:10119000012000F033F8102000F030F80025204640
:1011A00000F052F8681C45B2002DF8D5B62000F0CA
:1011B00025F8012000F022F8102000F01FF800258B
:1011C000204600F041F8681C45B2002DF8D5B72044
:1011D00000F014F8012000F011F8102000F00EF8D3
:1011E0000025204600F030F8681C45B2002DF8D5E7
:1011F000B0BD80B500F002F880BD0000B0B501239D
:101200001905234A11615B041361224C2568ED0620
:1012100008D52568ED0605D52568ED0602D52568B3
:10122000ED06F3D420632068400708D52068400706
:1012300005D52068400702D520684007F3D4206A0E
:1012400013601160B0BDC04610B501231905104AE6
:1012500011615B0413600F4B1C68E40608D51C6821
:10126000E40605D51C68E40602D51C68E406F3D440
:1012700018631868400708D51868400705D518682E
:10128000400702D518684007F3D4186A116010BDF2
:1012900090320A4010B1464010B50124A007114910
:1012A000FFF770FC1F2001040F4882688A43210465
:1012B000511881600D490C607D2109024161610274
:1012C0000B4A136A0B43136213680B4313600949FB
:1012D0000A68C02313433F2293430B6001682143F4
:1012E000016010BD50220000001100408411004038
:1012F0002810004004E400E0F0B52A4B87259D67E4
:1013000001218A03284802608822DA61274A0824DA
:10131000146085245C63802616601C6210241460AF
:10132000234C2565CD05156084259D610425156038
:101330008325A561DD671F4DAE1C666181261E6099
:101340002666666666641C4F2764A764E7645F666A
:101350001F669F66DF661F672660A662E6639D655F
:101360001D64DD655D64E6661346303BCC061C609B
:101370001346403B1960611C1160014630390F4A29
:101380000A6002600F2000020D490A6802430A60E9
:101390000C48016A30221143016201681143016067
:1013A000F0BDC04604804240D0320A40D0120A400C
:1013B0008480424081000400810006000000530C3C
:1013C00090330A4028300A40F0B583B02C4C2D49A8
:1013D0002046FFF76DFD2C492046FFF725FC002530
:1013E0000095204629462A462B46FFF74DFD20460C
:1013F00029462A46FFF73AFD204629462A46FFF7A6
:101400004FFD012602960096204629462A462B4685
:10141000FFF73AFD204629463246FFF727FD2046D2
:1014200029463246FFF73CFD02260096102720464B
:1014300029463A462B46FFF727FD204629463246E5
:10144000FFF714FD204629463246FFF729FD032603
:101450000096204629463A462B46FFF715FD2046C2
:1014600029463246FFF702FD204629463246FFF75D
:1014700017FD0648029981600F21016003B0F0BD9D
:1014800000008640582200005C22000000118640C7
:1014900070B582B0194C1A492046FFF709FD194969
:1014A0002046FFF703FC00250095204629462A46E2
:1014B0002B46FFF7E9FC204629462A46FFF7D6FCD3
:1014C000204629462A46FFF7EBFC012600962046D7
:1014D00029462A462B46FFF7D7FC204629463246A6
:1014E000FFF7C4FC204629463246FFF7D9FC0648E0
:1014F00086600321016002B070BDC04600A0864036
:10150000642200006822000000B1864010B50D4C36
:101510000D492046FFF77EFB0C492046FFF758FB9C
:101520000B4841680B4A0A400F3242608168122220
:101530000A432D218A438260016801220A43026026
:1015400010BDC04600A0464070220000722200007C
:1015500004B1464000FCFFFF084800210160084834
:101560000168032291430160FF20000205490A68D7
:1015700082430120800310180860704708030B4065
:1015800000010B4000E400E010B5084C084920467B
:10159000FFF78EFC07492046FFF7F2FB064801687B
:1015A0000122114301600548026010BD004008405F
:1015B0007C2200008022000028500840085108408A
:1015C00080B500F01FF8FFF797FEFFF7C5FFFFF7A4
:1015D000FBFEFFF75DFFFFF7D7FFFFF797FFFFF772
:1015E0005BFE7420044900220A54B82003490A54BF
:1015F000242003490A5480BD380220207C01202089
:10160000B0022020F0B581B00D480E4941600E4A6D
:1016100051600E4B59600E4C61600E4D69600E4E6C
:1016200071600E4F79600E49016011601960216090
:101630002960316039601020FFF7C4FA01B0F0BDB5
:1016400000080A40030000B100280A400008864054
:1016500000A886400048084000A846400008004016
:101660000100002610B51C480068C0B2012831D125
:101670001A480178491C0170C9B2052904D375497B
:1016800001220A7000210170154C2078401C207046
:10169000C0B20A2803D3FFF791F900202070114847
:1016A0000178491C0170C9B2642906D30E49012290
:1016B0000A70F6490A70002101700C480188491C23
:1016C000018089B289087D2904D300210180AD48B9
:1016D0000121017010BDC046205008401203202097
:1016E0000E0320200D032020740120201003202051
:1016F0006848102101607047F0B581B001252802CB
:101700001F4E7168014371601E4F38681E49FEF715
:1017100044FD04461D480088FEF719FF1C49FEF7EA
:101720003CFD1C49FEF776FD01462046FEF7DCFC39
:1017300038601949FEF731FDD749086017490A7822
:10174000002A08D10A78002A05D10A78002A02D195
:101750000A78002AF3D0124909680C4A11803168CE
:10176000294331600F49FEF7D9FE002806D17D20BC
:10177000C0003F210906012200F070F801B0F0BD61
:1017800000110040D80220203333333F5001202085
:10179000A4707D3F00F07F45EE7C3341780120202E
:1017A000846255400000284110B58648C821064A89
:1017B00001238370002404803F242406DB06C260DA
:1017C00003614161846110BD00000A40F0B583B03F
:1017D000044620480178002939D000250570A078FA
:1017E000012804D16560A57025722F4600E0E788C6
:1017F0002088874203D10120207203B0F0BDA08869
:10180000401CA08080B20190FEF7A1FE02906669A4
:101810003046FEF79CFE0146A069FEF7BEFC029929
:10182000FEF760FE002809D0019886420CD9952069
:101830004001E16822690A5003B0F0BDE068216907
:10184000054A815003B0F0BDA580781CE08003B04C
:10185000F0BDC046770120209012000010B5594C11
:10186000A1610121A17022800521FEF7D4FE6061F3
:1018700010BDC04680B500F065FA80BD80B5FFF7A9
:10188000C3FB80BD0248022101600248016070472D
:1018900080E200E000E100E0F0B52B4B0020186191
:1018A0002A4A14682A49002C144601D00C681034C6
:1018B00023601468002C154601D01D461035254CB8
:1018C0002C6020611568002D164601D02646103682
:1018D000214D356028611668002E174601D02F462D
:1018E00010371E4E3E6030611875207528753075B2
:1018F0001B4B187518611468002C144601D0103663
:1019000034462360174C206120751568002D15465C
:1019100001D010331D462C60134B187518611568E3
:10192000002D154601D0103425462B600F4C0A259A
:1019300025700F4C20751568002D01D010331A4604
:10194000146020610C60F0BD44002020DC022020E7
:101950000403202064002020840020202401202073
:10196000A4002020C4002020E4002020000020202B
:101970000401202003480178002901D000210170D2
:101980007047C04676012020FFF71AFE00F0CCF920
:10199000FFF782FF00F018F8FFF7AAFEFFF772FFCB
:1019A00000F086F800F008F9FFF7FEFE054CFFF79F
:1019B000E1FF00F02BF8FFF79FFE2046FFF706FF40
:1019C000F5E7C04654012020F0B581B001200504A0
:1019D0000D4E35617D20040264272046FFF7F2F8A2
:1019E0007F1E3804F9D1356032252046FFF7EAF82A
:1019F0006D1E2804F9D1022000F0F8F80020FFF74E
:101A00006DFB01B0F0BDC04690320A40F0B581B028
:101A10001E480178002936D0002404702046214653
:101A2000FFF738FB1AA220462146FFF727FF1A4886
:101A300002681E202146FFF71DFF01262046314681
:101A4000FFF728FB15A220463146FFF717FF154F79
:101A5000786BFEF771FD0246222528463146FFF7D6
:101A600009FF022620463146FFF714FB0EA220464E
:101A70003146FFF703FF386BFEF75EFD024628464E
:101A80003146FFF7F7FE01B0F0BDC04675012020DA
:101A90004144433A200000004C012020526967680D
:101AA000743A2000040020204C656674203A20001F
:101AB0000648002141600122028005484160054935
:101AC000018005480168114301607047E002202051
:101AD000E80220200203000004188640B0B5044646
:101AE00081600846FEF767FD00250C4B2A46FEF78D
:101AF00081FC0B4B2A46FEF7CBFBFEF770FD6060C6
:101B00002478032C09D80749FEF747FBFEF73FFD71
:101B1000014635482246FFF7C3F9B0BD0000224018
:101B200000002C4000002041F0B581B00D46044675
:101B3000416000212846FEF7D5FC00281DD0002179
:101B40002846FEF7DDFC002830D12278184E032A03
:101B500003D800213046FFF7A3F96478032C25D879
:101B60000120C007854313492846FEF716FBFEF700
:101B70000EFD01463046224616E027780C4E032F14
:101B80000DD80120C00785430A492846FEF705FB0A
:101B9000FEF7FDFC014630463A46FFF781F96278D0
:101BA000032A03D800213046FFF77AF901B0F0BDCF
:101BB0000000864000007A4480B5084800210122D8
:101BC0000270074B43608160064801681143016061
:101BD00005488C21FFF764F980BDC046F80220203B
:101BE0000000604104B8864000A08640F0B581B096
:101BF00004464048002606803F4804703F4806805F
:101C00003F48012101703F4801703F4806703F483E
:101C100001703F48802707803E4801703E484025BC
:101C200005803E480670F0433D4908803D490880E4
:101C3000AE20FFF7DEFAD520FFF7DBFA3846FFF7D4
:101C4000D8FAA820FFF7D5FA3F20FFF7D2FAD32021
:101C5000FFF7CFFA3046FFF7CCFA2846FFF7C9FA6C
:101C60008D20FFF7C6FA012C01D0142000E01020CF
:101C7000FFF7BFFA2020FFF7BCFA3046FFF7B9FAAA
:101C8000A1263046FFF7B5FAC8273846FFF7B1FA64
:101C9000DA20FFF7AEFA1220FFF7ABFA8120FFF748
:101CA000A8FA012C01D0CF2000E09F20FFF7A1FA75
:101CB000D920FFF79EFA012C01D0F12000E022206C
:101CC000FFF797FADB20FFF794FA2846FFF791FA1F
:101CD000A420FFF78EFAA620FFF78BFA3046FFF715
:101CE00088FA3846FFF785FAAF20FFF782FA01B08D
:101CF000F0BDC04670012020480120207201202044
:101D00000C03202024032020450120204401202012
:101D10004A0120204000202046012020F0022020FF
:101D2000080320200A03202001200104034A116037
:101D300003490A6802430A607047C04600E100E0B8
:101D400004580840F0B589B017460C4605460021F6
:101D500010460491FEF7D4FB002803940AD105A88D
:101D60002D22027028462146FFF71EF90120C007E8
:101D70004740AD1D02953846FEF7F0FB0446FEF7DE
:101D8000DBFB01463846FEF700FA01907F48834EA0
:101D9000834D844FBC4203DAAC421DDD049F0DE04D
:101DA00080492046FEF737FC302102460A4305AB46
:101DB0001A704743E41BAC4214D901277A492046E4
:101DC000FEF729FC05A9C919024630320A70691CC0
:101DD0004143641A7D1C08E0B44200DCBAE00025EF
:101DE0006B4F05E005A841700225B442684F0CD93D
:101DF0006E492046FEF70FFC05A94919024630320C
:101E00000A70711C4143641A03E005A8401930218F
:101E100001706E1C604884420DD965492046FEF76A
:101E2000FAFB0146303105AA91555B49491C4143F3
:101E3000641A751C03E005A830218155AD1C554E70
:101E4000B4420BD95B492046FEF7E5FB0146303131
:101E500005AA5155711C4143641A02E005A83021BE
:101E600041556E1CBC420CD953492046FEF7D3FBAA
:101E70000146303105AA9155791C4143641A701C02
:101E800003E005A830218155A81C40498C420ED999
:101E9000A1B2C908494A4A43110D0A46303205AB7E
:101EA0001A547D22D2004A43A11A8CB202E005A93D
:101EB00030220A54411C632C10D9A0B28008404A39
:101EC0004243500C0246303205AB5A54642242431E
:101ED000A01A84B24E1C092C06D812E005AA3023A1
:101EE0005354861C092C0CD9E0B2CD214143C80AB9
:101EF0000146303105AA91550A214143601AC4B206
:101F000002E005A830218155761CF5B2303405A8D1
:101F100044552C49019C2046FEF7E4FA00280DD1D7
:101F200029492046FEF739F9FEF718FB3030B61C78
:101F3000F1B205AA5054A8182E2141700399F0B2AD
:101F400005AA8018049B43700298C0B2FFF75CF8A2
:101F500009B0F0BD10498C420D4F01DD00265CE751
:101F60000C4EB44201DD00256CE7BC4201DD0026C9
:101F70007AE7844201DD00208AE7642C01DB00213E
:101F80009BE700260A2CAFDABFE7C046E703000054
:101F90000F2700009F8601003F420F007F969800A8
:101FA000FFE0F50500CA9A3B00E1F5058096980030
:101FB00040420F00A086010010270000C52000004D
:101FC0007B140000CDCCCC3D000020412021020C30
:101FD00001D010211046020A01D01046083902092A
:101FE00001D01046091F820801D01046891E420800
:101FF00001D0881E7047081A7047000000000000DA
:1020000002E008C8121F08C1002AFAD17047000078
:102010007047000000000000002001E001C1121F15
:10202000002AFBD170470000000000000000002FD4
:10203000000000000700070000147F147F14002434
:102040002A7F2A1200626408132300364955225061
:1020500000000503000000001C2241000000412296
:102060001C000014083E08140008083E0808000080
:1020700000A0600000080808080800006060000078
:10208000002010080402003E5149453E0000427FF6
:102090004000004261514946002141454B31001842
:1020A00014127F10002745454539003C4A49493004
:1020B00000017109050300364949493600064949BE
:1020C000291E0000363600000000563600000008C9
:1020D00014224100001414141414000041221408A6
:1020E00000020151090600324959513E007C12118B
:1020F000127C007F49494936003E41414122007F20
:102100004141221C007F49494941007F09090901D9
:10211000003E4149497A007F0808087F0000417F5E
:102120004100002040413F01007F08142241007F10
:1021300040404040007F020C027F007F0408107F77
:10214000003E4141413E007F09090906003E4151E0
:10215000215E007F0919294600464949493100019D
:10216000017F0101003F4040403F001F2040201FF1
:10217000003F4038403F00631408146300070870B4
:10218000080700615149454300007F414100005567
:102190002A552A55000041417F0000040201020433
:1021A0000040404040400000010204000020545420
:1021B0005478007F48444438003844444420003870
:1021C0004444487F00385454541800087E090102E2
:1021D0000018A4A4A47C007F080404780000447DB7
:1021E0004000004080847D00007F102844000000F3
:1021F000417F4000007C04180478007C08040478C7
:1022000000384444443800FC2424241800182424B2
:1022100018FC007C080404080048545454200004AE
:102220003F444020003C4040207C001C2040201CBB
:10223000003C4030403C004428102844001CA0A032
:10224000A07C004464544C4414141414141400006E
:10225000000500000000000008001F00E803000067
:102260002001000008072700E8030000200000000C
:102270000800040000030000071000000800000030
:1022800002000000FF7C00000000000000000000D1
:1022900000000000B82200000000202040000000E4
:1022A00000200000F822000040002020E803000089
:1022B00018200000000000000A00000000000000DC
:1022C000000000000000000000000000000000000E
:1022D0000000000000000000000000000000A0411D
:1022E0000000A0410000000000000000000000000D
:0822F0000000000000000000E6
:04000005000000C136
:00000001FF
