:020000040000FA
:10000000B00420208D010000910100009301000048
:1000100000000000000000000000000000000000E0
:10002000000000000000000000000000950100003A
:10003000000000000000000097010000990100008E
:100040009B010000FD1600009B0100009B010000C9
:10005000D50D00009B0100009B0100009B010000EA
:10006000000000009B0100009B0100000000000058
:10007000000000009B0100009B0100009B010000AC
:100080008D2200009B0100009B0100009B010000ED
:100090009B0100009B010000000000000000000028
:1000A0009B0100009B010000000000000000000018
:1000B0009B010000000000009B0100009B0100006C
:1000C00000F002F800F052F812A030C808382418E6
:1000D0002D18AC4201D100F049F80FCCA246AB4636
:1000E0000CA730CF2D1B083F3F197C427F1E544484
:1000F0002D090426F441641EAC4201D300F036F809
:100100000126334200D0FB1A3343984754465D46DC
:10011000DFE7000044360000643600000000000005
:10012000103A02D378C878C1FAD8520701D330C840
:1001300030C101D504680C60704700000000000069
:100140007047000000000000002300240025002666
:10015000103A01D378C1FBD8520700D330C100D583
:100160000B6070471FB51FBD10B510BD00F0B0FD8E
:100170001146FFF7F7FF02F03BFA00F0C8FD03B4A9
:10018000FFF7F2FF03BC00F01DFE00000648004729
:10019000FEE7FEE7FEE7FEE7FEE7FEE70348044969
:1001A000024A044B70470000C1000000B003202049
:1001B000B0042020B0032020704770477047000033
:1001C0000246C80FC00781434B0030B54B405B006F
:1001D0009B0D20D01923DB06C91801231B0599426A
:1001E00020DB0324A40704251346AB400BD3002BCC
:1001F00004D1EB0613409B00E34204D401246407BE
:10020000002312195941FF231B0599420BD2C90043
:100210000143500F09E0CB0204D501430803024318
:1002200005D0054830BDFF21C905084330BD08464B
:1002300007210905884330BD0000C07FF0B50C469A
:10024000871A9C410D46861A9D4103D2C01BA141CD
:10025000D21963410D0D1F0DC94EEC1BAE435CD08E
:100260007F057F0D0026002F51D02D05AC46A943F8
:10027000DD020123ED0A1B051D4320231B1B24D493
:100280001746E740381871412F46E740CC199D408A
:100290002818314661410C0D27D161449A4013D58D
:1002A0000023401C594152000ED140084000012259
:1002B0004B005205D34207D305204007C14201D568
:1002C000B04900E0B0493046F0BD6B00002A00D0D4
:1002D00001229A181F23203C1B1B01D5002302E09A
:1002E000E540281871410C0DD7D0012424050919C7
:1002F000C407CD0740084908E40F28436144002C97
:10030000D5D00024401C61419A40D0D1CDE76A0588
:10031000520DD9D1C90FC907D5E79C4D4E00002811
:1003200001D0012400E0002434195F00002A01D02C
:10033000012600E00026BE19954FAC420CD8AE4213
:100340000AD8B44206D001256D05EC42BCD0104657
:100350001946F0BD9942FCD000203946F0BDF0B5F9
:100360001FB40C460F46811A9F412546861A9D41AF
:1003700006D20125ED076F40401ABC4152187B415F
:10038000210D1E0D8D1BAC467D4D8D437ED0750518
:100390006D0D7CD00D05AE46AC431B031B0B794D98
:1003A00052429D41202366469B1B14D31746F740BB
:1003B000381800260090744160462F460741E41922
:1003C00000989D402818664116D4714671189A40CD
:1003D00025D5012320E093182A466A415200002BBC
:1003E00000D0521C1E23203E9B1B002B61DD35419B
:1003F000EE1728186641E8D5001876415B1C9A4034
:1004000000D3401C4B05F3181524E34010D3002BF8
:1004100052D071467118D30FC01802D3491C05B0D1
:10042000F0BD0123DB079A42F9D140084000F6E70E
:1004300001225205B21801D1002853D00123CC0A61
:10044000DB029943891E002A08D1020C03D0020C5A
:100450000004103902E00246002020390023550B29
:1004600005D112020823550B01D152010D23550C61
:1004700001D112011B1DD50C01D192009B1C150D41
:1004800001D152005B1C2025EE1A01E02CE022E095
:100490000546F54015439840CA1AE1076918130547
:1004A000C918002ABBDA032040070818C10FC90782
:1004B0000FE071466118B2E7F10740080843711078
:1004C00071444A000CD001235B059A42A7D2C90FA0
:1004D000C9070020A3E74905490D26D1002001E006
:1004E0000028F4D100219AE7284D6600002801D0A9
:1004F000012100E0002171185F00002A01D00126CF
:1005000000E00026BE19224FA94210D8AE420ED8F4
:10051000B14208D001256D05E94206D01946A8026E
:10052000414010467BE79C4201D0214677E70020FE
:10053000394674E710B50C465C4005D50124E40744
:100540006340FFF70CFF10BDFFF778FE10BD30B41D
:100550000C465C4004D50124E407634030BC6DE6E2
:1005600030BCFCE670B50124E40761400D465D40F7
:1005700002D4FFF763FE70BD6340FFF7F0FE70BD6D
:10058000FF0700000000F0FF0000F07F0000E0FF28
:100590000000F87FF0B5F94D0C091E092C402E40E3
:1005A0002F468BB0A7437DD0B543FCD0002E7AD028
:1005B000002CFCD00D465D40ED0F2543AC1BFF2504
:1005C000AD0464190894C502440DC9022143500DBD
:1005D000DC0204430120C00701430443D20201911D
:1005E000200C110C00958C46010423468B430A9184
:1005F00061460904E24D8A430991010A7D44491983
:100600008039097805464D4301266D18F605751B9E
:100610006943C90C640B891C4C436418B5012C1B3D
:10062000250C2E04B4434C434D43210C6918890911
:100630000591009DE90701D00121C90704912C46CD
:1006400001996708CD072F434C08059DE10B4D43E9
:100650002D0C29466646754302950D4645432E46A8
:10066000029D7D1BB44100950D465D4301942C0C09
:100670002F040D465543AE462D0C3D430295039481
:100680007546049C2D04641B049406D2029C039DB1
:10069000641C002675410395029401AC70CC009F48
:1006A0007D1B01E03EE162E1B44109040095079140
:1006B00001940599A4086143090C0C464443650B59
:1006C000E7040C4666467443A646640B3C43039518
:1006D00002947446049DE4042C1B049406D2029CEC
:1006E000039D641C002675410395029401AC70CCF7
:1006F000009F7D1BB44101940C465C430095650F3F
:10070000E7000C465443A646640F3C43039502940D
:100710007446049DE4002C1B049406D2029C039DA5
:10072000641C002675410395029401AC70CC009FB7
:100730007D1BB441AE09AF06049DC900AD092F432E
:10074000049DA406AD060495079D344369180791DE
:10075000059DE10B4D432D0C2946664675430295D8
:100760000D4645432E46029D7D1BB44100950D4626
:100770005D4301942C0C2F040D465543AE462D0CC1
:100780003D43029503947546049C2D04641B049418
:1007900006D2029C039D641C0026754103950294B9
:1007A00001AC70CC009F7D1BB44101948C05069474
:1007B000079C890A611800950791019C0599A40876
:1007C0006143090C0D464543680BEF040D46644632
:1007D00065436C0B3C43049FED047D1BAC4602D289
:1007E0000025641C6841009E019D371B8541084619
:1007F000584301950C46460FC5005443600F2843EB
:100800006546E4002C1B02D20025401C6E41019D70
:100810003F1AB5412846BD09800628438446A009F1
:10082000BF064E020699A40676180743079D0020CE
:1008300068410A99079019430020099B009060467F
:10084000FF1913434041E20F64003A43A4460446B3
:10085000D71A8C41A04203D90120009020463A4685
:10086000C70F941840416246D20F22436446640089
:100870000494009CBE466400D71AA446044602971E
:100880008C417746002F01D1A04204D96046401C1C
:100890008446029A2046C40FA64694184041049A02
:1008A0000546D20F224364466400D31A8D41714637
:1008B000002901D1A84202D928461A46641C1043D7
:1008C0000122002800D0164361020020079B8919ED
:1008D00004465C410223002C02DB491813466441A4
:1008E000089DCE0A2D145D194B056705E10A2C05FC
:1008F0000D1908993E43C9076940002B08D0934061
:1009000006D30022761C5141002B01D176087600D7
:100910001C4A002D43DB154241D0AA433FD030464C
:100920000BB0F0BD06180D464D41174C7642AC4158
:100930001AD395181C465C41134A6D42A24113D349
:10094000012252054C00D4420AD15C00D4420BD0A3
:100950004B4002D592021143E2E749004908DFE724
:100960005940C90FC90718E000200849D8E70548D1
:1009700001420DD10342F7D0F2E700000000FF076B
:10098000FC2D00000000F07F0000E0FF0000F87F79
:10099000114859400143C01241400020C0E70123E3
:1009A000089A9B069A4205DC032252078918C90F50
:1009B000C907B5E7052252078918074A1143D21221
:1009C0005140ADE770B515461C4602460B46284619
:1009D0002146FFF7DFFD70BDFFFFFF7F0121C90545
:1009E0000123411842001B06D3185B0E0AD0C11028
:1009F0000722D206891840075242D14201D552003F
:100A000089187047090208D50146002A03D0C10F92
:100A1000C9070020704710467047420202D00020EC
:100A200002497047072109050143F4E70000F87FF8
:100A3000F0B5FF252D04C609C209FF2704462E4044
:100A40000137CB093E4348402A402B400746002A45
:100A50006BD0002B69D0AA4267D0AB4265D000288A
:100A600000DA32460125ED0529432C430902200214
:100A7000090AD21A4B0C7F24E31A434C000A7C4427
:100A8000E35C7D242404121914145B00A21888422C
:100A900001D3521C00E0400049420C465C43241143
:100AA0005C43DB016415E318040A5C43C502200DB6
:100AB0000C4644436419250A5D432303EC0C0D46A0
:100AC000654300030019EB184C42A34201D35B18A5
:100AD000401CD4052018002B07D05B00C91804D394
:100AE000401C002901D1400840003F2189048A426E
:100AF00009D3002A08DC1106090F04D00321490795
:100B00004018C00FC007F0BD01224100120689182D
:100B10007F2252069142F6D205214907C84201D5EB
:100B20009010F0BDFF20C005F0BD002F00DA324666
:100B30001648AA4207D2AB4205D21902090E17D0B5
:100B4000F80FC007F0BDFF2563002D06AB42F9D8B2
:100B50004900A942F6D8AB4201D1A942F2D0A9423C
:100B600001D1002101E061004908D0050843F0BD32
:100B70001102090EFBD0FF200243D005F0BD0A464A
:100B80000146104654E70000FA2900000000C07F2B
:100B900010B501469E240002CA15A307002A02D000
:100BA0001843002A04DBA21A002A0CDDD04010BD35
:100BB0001206120E01D140004008A21A03D4D04000
:100BC00040420028F3DDFF2248001206904201D97E
:100BD000002010BDC817C043584010BD0102C21507
:100BE00004D00123DB071943002A0ADB9E239A1A4B
:100BF00002D40846D0407047FF22410012069142BD
:100C000001D900207047C017C04370471F22030C52
:100C100002D10F2200041CD0030E01D10002083AB9
:100C2000030F01D10001121F830F01D18000921E1A
:100C3000002801DB4000521ED20551180212511843
:100C40001922904004D3491C002801D149084900C9
:100C500008467047C10FC90700D0404201229207E1
:100C60001143D3E701218907D0E7000010B5FF2326
:100C70001B0644009C421DD84C009C421AD80346D7
:100C8000124A0B4307D4401A02D3EFF3008010BD81
:100C9000EFF3008010BD081A03D3EFF300809043F8
:100CA00005E0EFF3008001219043C907084380F37A
:100CB000008810BD0D231B041A4204D011460020E9
:100CC00000F02DF810BD00F041F810BD00000090BC
:100CD000754600F043F8AE46050069465346C00825
:100CE000C000854618B020B5FFF758FA60BCB6467C
:100CF00000260027C0C5C0C5C0C5C0C5C0C5C0C589
:100D0000C0C5C0C5403D490849008D46704710B573
:100D10000446C046C0462046FFF731FA10BDC8025F
:100D200012D54803400F002804D0C803C043012156
:100D300088407047EFF30080000100090321090794
:100D4000084380F3008870470020704710B50248C0
:100D500000F008F810BD00000000C07F0048704798
:100D60004000202010B50C461107090F092904D0B6
:100D70000A290AD008290CD104E011460820FFF7FF
:100D8000CEFF06E0510606D501E0510601D501204F
:100D9000C007214610BDD10607D501010909CC08BD
:100DA0004907000E0006044309E0410F20024907ED
:100DB000000A0143200E00061D22D14101430846CE
:100DC000E7E7000001491820ABBEFEE7260002005D
:100DD0007047000004480068C0B20A2802D10348E6
:100DE000012101707047C04620100040E40120201E
:100DF00070470000C049884206D0C049884207D0E9
:100E0000BF49884207D070474B48012101607047B5
:100E10000120800601E00120C006484908607047B3
:100E2000704770477047000070B50446007F012886
:100E30005CD1B148844218D0B04884421ED0B0483A
:100E4000844225D0B348844230D0AE48844242D058
:100E5000AD48844242D0AD48844242D0AC4884423E
:100E600043D13548012101603FE033480121016051
:100E70003F200106384801F099FD36E00120800648
:100E80002E4908603F200106324801F08FFD2CE01A
:100E90000120C006294908602E480025294601F096
:100EA00085FD2D48294601F081FD1EE022480121E3
:100EB0000160234E3068234902F046F90546224975
:100EC00002F02CF9002800D0204D3560204829463A
:100ED00001F046FD09E00120800604E00120C00683
:100EE00001E00120800515490860207F022808D113
:100EF0008148844206D0814884420DD08048844293
:100F000014D070BD0C48103801210160BF200106CB
:100F1000114801F04BFD70BD0120800607490861B2
:100F2000BF2001060B4801F041FD70BD0120C00645
:100F30000249086170BDC046A0120A4090320A40C2
:100F400074032020000020410000B4420000B4C21D
:100F5000780320206003202068032020F0B581B0B2
:100F600064480468002C00D1C2E019200001009000
:100F7000614E694D61490CE02046FFF755FF204660
:100F8000FFF74FFF002020752469002C5B4900D13A
:100F9000AEE0B44216D08C4217D059498C4216D0DC
:100FA00058498C4215D058498C4214D057498C422C
:100FB00013D057498C4212D0564884421AD10B2084
:100FC00054490DE0142031460AE0162008E01720AD
:100FD00006E0072004E0082002E0092000E00A20E3
:100FE0002A680B78FD271F40C24002200240D21918
:100FF00042400A702078FE2202408107C80F801804
:101000002070002906D4227D032A01D16268A261E2
:1010100000226260032203461340032B04D13F4B9E
:101020001B786768FB186360237D042B0BD13B485A
:101030000078A1680818A060C8289DD860681528A5
:10104000A2D302209FE70027A760032B9CD82E463F
:101050007B441B795B009F44011808102777002907
:101060003546254E90D501208DE7002913D4042064
:101070002075207F401C20770AE0A189002924D018
:10108000264A1278891AA18125E0002911D42775F2
:101090003546194E78E76068214988423546164E34
:1010A00000D271E70098A08122752046FFF7A0FECC
:1010B0006AE76068152835460F4E00D264E70220C3
:1010C00020752046FFF7ACFE5EE70098A081204621
:1010D000FFF790FE207835468007074E00D553E78E
:1010E0002046FFF79FFE2046FFF79BFE27754BE744
:1010F00001B0F0BD54032020A4002020C400202013
:10110000E40020200401202024012020440120208C
:10111000640120208401202080330A400100202027
:1011200021030000B0B50A78032313400B4A84580A
:101130000B4D2540EB18A92424061B1983500722C8
:1011400012064B6813401124240205599543EA18EE
:101150000251001949780161B0BDC046080800007D
:10116000FCFFFF00811E091F00BFFCD27047F0B5D5
:1011700082B0002A31D091235B01C3180220801A6B
:101180000190009255420F2006020320DC69344290
:1011900027D00F18FC1E24781C602C18022C1AD0A3
:1011A000DA6932421FD0BA1E12781A60019A1218F8
:1011B000032A10D0DA69324217D07A1E12781A60E8
:1011C000002C08D0DA69324208D00A5C1A60001D8F
:1011D0002A18032ADAD1009800E0002080B202B079
:1011E000F0BDC01EFAE7801EF8E7401EF6E70000DB
:1011F00010B50F4A835880210B4383508018012279
:10120000D2020F231B0244681C4094420BD0446856
:101210001C40944207D044681C40944203D0446868
:101220001C409442EFD102688A43026010BDC04660
:101230003812000070B50A780C231A4001242403E8
:1012400005196E689E43B2186A60497807221140FA
:10125000035993435918015170BD0000B0B51122D4
:10126000120283580C4C1C400B894D881D438B790E
:101270002B430A4D1D4063198350CB798C881C4346
:10128000097821435D239B001940801842689A43E6
:1012900051184160B0BDC04680CCFFFF7F330000D5
:1012A00010B50122120383180C785C6049788150D4
:1012B00010BD0000F0B585B001221402344B19684E
:1012C0000494A1431960950362490E682E4208D127
:1012D0000E682E4205D10E682E4202D10E682E42B3
:1012E000F3D0457E15409E69964375199D61202572
:1012F000455D03263540DF69B7437D19DD61254D26
:101300002E6805272F60476A3C681C627C685C6217
:10131000072434402C60C4697F252D02DE69AE436A
:101320006406640C3419DC6150C805680095476890
:1013300085680195C568029503929A69164D154016
:101340002207120B3403A4B2A2183A43009C2407CC
:10135000240D1443019A1443029A1443007C204341
:101360000E4A0240501998611868049A1043186098
:10137000039840020A68024208D10A68024205D175
:101380000A68024202D10A680242F3D005B0F0BDF9
:1013900008010B40001340408D00F0FF72FF0F006A
:1013A000F0B5184B1D46083D2E680124A6432E605B
:1013B0000326360330401F68B74338181860186892
:1013C000FF26B043C9B2401818602868204328603F
:1013D0001868002A11D021070843186020021D490F
:1013E0000A68024208D10A68024205D10A6802422C
:1013F00002D10A680242F3D0F0BD21078843186089
:10140000F0BDC04610010B4010B5114988600122A3
:101410005305104804681C4208D104681C4205D1D9
:1014200004681C4202D104681C42F3D012040B6809
:1014300013430B600168C90608D40168C90605D4C6
:101440000168C90602D40168C906F3D510BDC046BB
:1014500004010B4004020B40F0B583B00B794A79CC
:10146000002A2AD01A4A1B4C1B4F21252D01202B64
:1014700000D07035861802190092C219002B00D1D5
:1014800088251768464C27407F1917605768274002
:101490007D1955603568804F3D40356075683D4029
:1014A00075600025009C256065608F24E443156904
:1014B0002540156155692540556101AA13718B7945
:1014C000537109680191114600F008F803B0F0BDAE
:1014D000381800005818000078180000F0B584B0E3
:1014E0006B4A82180292734BC618784BC21800924E
:1014F0002A4BC4180A7901910D68294F202A0392BA
:101500000AD0254BC018002A17D16B1E029A5360CF
:1015100023683B40882517E0681E029A50602068C7
:101520003840204B184320606068384018436060A2
:10153000012045071C4F104608E06B08029A5360D3
:1015400023683B400525ED012B4323600099036888
:101550003B402B43036030684F4B1840306070684D
:10156000184070600020086048608F20C0432369E5
:1015700003402361636903406361019840790399E3
:101580000843BD2101401068084B0340C818801C67
:10159000106004B0F0BDC046741800007018000060
:1015A00024493E0001040000FFFFFFCF4000FFCFB1
:1015B00070B5374A82184B6853603E4BC3180878A1
:1015C000222857D8840001A52C59A7466B16000085
:1015D000751600006B1600007516000075160000E9
:1015E00075160000751600007516000075160000CF
:1015F00075160000751600007516000075160000BF
:1016000075160000751600007516000059160000CA
:1016100075160000591600007516000075160000BA
:10162000751600007516000075160000751600008E
:10163000751600007516000075160000751600007E
:10164000751600007516000075160000591600008A
:101650007516000059160000032424071568A543D9
:10166000012464072C19146004E00324240715687E
:10167000A54315600C8AD460CC68064D25401C68D3
:10168000054E264074191C60097A0143116070BD33
:1016900004180000777702008888FDFF10B5072343
:1016A0009B04194092008018024A84589C43611898
:1016B000815010BD3018000010B5029CA400001924
:1016C00011431943014A815010BDC0465018000013
:1016D00092008018014A81507047C04610180000DF
:1016E00010B50122120383180C789C604B7883504C
:1016F0008978014A815010BD0C110000F0B581B00D
:10170000304F384618380068800758D500200090C0
:10171000C0432D4D103D2968C9062C4A25D51168B6
:10172000402701260F40034600D03346002F3446A1
:1017300000D0044626494978002900D02346254C8C
:10174000626B9A186263002F01D1009AD6431D4F35
:101750006671002900D07642E16A7118E1621A4B85
:10176000196810220A431A60184A2968890622D586
:101770001168802501240D40214600D00146002D2E
:1017800000D02046124A1678002E00D00146114B98
:10179000186B08181863002D01D00098C4431C7101
:1017A000002E00D06442986A20189862064A106899
:1017B000202101431160386802210143396001B0E2
:1017C000F0BDC0465811404048300A4080330A40BE
:1017D0009803202004002020F0B585B01446074669
:1017E00004AA11706D48114602931A46FFF7BFFC18
:1017F0006B4E304624380168890608D40168890692
:1018000005D40168890602D401688906F1D53546F8
:101810002C3D2968634A11407F00C919296033466D
:10182000283B1968604A1140604A89180193196081
:101830000168490612D5016849060FD501684906B5
:101840000CD501684906F3D408E00168890608D47C
:101850000168890605D40168890602D401688906F1
:10186000F3D54E48FFF7C4FC28684E4908400743AB
:101870000120039007432F60019B18684A490840E4
:10188000029A11040143072008431860002A3AD045
:101890000323104618400190042A36D20021019BF0
:1018A000002B30D03068000708D13068000705D120
:1018B0003068000702D130680007F3D03246203A82
:1018C00010686054012B1ED03068000708D13068C2
:1018D000000705D13068000702D130680007F3D057
:1018E000611810684870022B0DD03068000708D1CD
:1018F0003068000705D13068000702D13068000762
:10190000F3D01068887005B0F0BDFC2717400021A7
:1019100004E02A682254091DB942C0D0306800078B
:1019200008D13068000705D13068000702D130685F
:101930000007F3D03546203D286860540846039AD6
:1019400010433268120708D13268120705D1326895
:10195000120702D132681207F3D02A6822540220FB
:1019600008433268120708D13268120705D132687D
:10197000120702D132681207F3D02A6822540846AF
:10198000184332681207C4D132681207C1D13268D5
:101990001207BED132681207F3D0BAE700200F4019
:1019A0003C320F4000F8FFFFF8FF00F00700010095
:1019B000B0B5144605467E2800D9491C5039C8B236
:1019C00000F0BAF97E2D00D900252809103000F06A
:1019D000B3F90E202840401C00F0AEF9203CE0B2E4
:1019E000062444432C4D285D00F0CCF92C19607876
:1019F00000F0C8F9A07800F0C5F9E07800F0C2F96D
:101A0000207900F0BFF9607900F0BCF9B0BDC046A4
:101A1000F0B583B001921478002C3AD00646002726
:101A200029E0F0B20009103000F086F90E203040B5
:101A3000401C00F081F9203CE0B206244443164DDE
:101A4000285D00F09FF92C19607800F09BF9A078D0
:101A500000F098F9E07800F095F9207900F092F91B
:101A6000607900F08FF9B61D7F1CF8B201990C5C0B
:101A7000002C02990DD0F5B27E2D00D9491C02919F
:101A800008465038C0B200F057F97E2DC9D900265B
:101A9000C7E703B0F0BDC046BC340000B0B5044693
:101AA0005039CDB2284600F047F9012000F044F942
:101AB000102000F041F9284600F03EF920091030CE
:101AC00000F03AF90E202040401C00F035F960B2D9
:101AD000002806D4002000F055F9601C44B2002C08
:101AE000F8D5B0BDF0B587B002920C460546454822
:101AF0000078002801D1682000E069203B2103AF75
:101B00000E233A4600F0F8FC7878039909020E1883
:101B10003D48007868281ED10498C0BAFFF79AF8AB
:101B2000A06030B24042FFF795F8206003AE7088A5
:101B3000C0BA4042FFF78EF86060F08840BA01906A
:101B40000598C0BA4042FFF785F80746708946BA43
:101B50000698C0BA1DE030B2FFF77CF82060049808
:101B6000C0BA4042FFF776F8A06003AF7888C0BAE9
:101B70004042FFF76FF86060788946BAF88840BA4B
:101B800001900598C0BAFFF765F807460698C0BAF5
:101B90004042FFF75FF8A8602F6030B24042FFF785
:101BA00059F86860019800B2FFF754F81749FEF73A
:101BB0003FFF174901F0C8FA029908606868154E9E
:101BC000314601F05BFB6860A868314601F056FBC6
:101BD000A8602868314601F051FB286039200506CD
:101BE0006068294601F04AFB6060A068294601F060
:101BF00045FBA0602068294601F040FB206007B04B
:101C0000F0BDC04658032020000020200000AA4359
:101C1000B81E124247237A3CB0B50446B02000F00B
:101C20008BF8012000F088F8102000F085F80025DE
:101C3000204600F0A7F8681C45B2002DF8D5B12069
:101C400000F07AF8012000F077F8102000F074F826
:101C50000025204600F096F8681C45B2002DF8D506
:101C6000B22000F069F8012000F066F8102000F0C2
:101C700063F80025204600F085F8681C45B2002D69
:101C8000F8D5B32000F058F8012000F055F81020E6
:101C900000F052F80025204600F074F8681C45B2A8
:101CA000002DF8D5B42000F047F8012000F044F8EA
:101CB000102000F041F80025204600F063F8681C71
:101CC00045B2002DF8D5B52000F036F8012000F01F
:101CD00033F8102000F030F80025204600F052F8CC
:101CE000681C45B2002DF8D5B62000F025F801207B
:101CF00000F022F8102000F01FF80025204600F028
:101D000041F8681C45B2002DF8D5B72000F014F852
:101D1000012000F011F8102000F00EF800252046F8
:101D200000F030F8681C45B2002DF8D5B0BD80B584
:101D300000F002F880BD0000B0B501231905234A68
:101D400011615B041361224C2568ED0608D52568F6
:101D5000ED0605D52568ED0602D52568ED06F3D418
:101D600020632068400708D52068400705D5206813
:101D7000400702D520684007F3D4206A1360116041
:101D8000B0BDC04610B501231905104A11615B04AE
:101D900013600F4B1C68E40608D51C68E40605D5E3
:101DA0001C68E40602D51C68E406F3D418631868BE
:101DB000400708D51868400705D51868400702D5C0
:101DC00018684007F3D4186A116010BD90320A40B9
:101DD00010B1464010B50124A0071149FFF7A2F940
:101DE0001F2001040F4882688A4321045118816032
:101DF0000D490C600D49416161020D4A136A0B43A4
:101E0000136213680B4313600A490A68C023134323
:101E10003F2293430B6001682143016010BDC0461F
:101E2000E43600000011004084110040409C000096
:101E30002810004004E400E0F0B5314A0020906131
:101E4000D0618725D56601218B032E480360882346
:101E500013612D4B08241C608524946280261E602B
:101E6000546110241C60294C2565CD051D60842516
:101E7000D56004251D60264D6E1C566016604E060A
:101E80005768374357601768374317608326A66142
:101E90001667AE1C666117460C3F81263E60E666FB
:101EA0002666666666641B4F2764A764E7649765C9
:101EB0005765D765176657662660A662E663D564E0
:101EC0005563156595631A46303ACC0614601A4678
:101ED000403A1160611C1960014630390E4A0A60AF
:101EE00002600F2000020D490A6802430A600C4894
:101EF000016A302211430162016811430160F0BDA3
:101F000010804240D0320A40D0120A4084804240C1
:101F100081000400810006000000530C90330A4049
:101F200028300A4010B511481149FFF783F9032200
:101F30005102104803680B43036001210B0204683F
:101F40001C430460002343614262826B07239A436F
:101F500082631A02836B93438363826A042313436D
:101F60008362826A0A43826210BDC04600200F402D
:101F7000EC36000000320F40F0B583B02C4C2D49F8
:101F80002046FFF7ADFB2C492046FFF765FA0025F8
:101F90000095204629462A462B46FFF78DFB204612
:101FA00029462A46FFF77AFB204629462A46FFF7AC
:101FB0008FFB012602960096204629462A462B468C
:101FC000FFF77AFB204629463246FFF767FB20469B
:101FD00029463246FFF77CFB022600961027204652
:101FE00029463A462B46FFF767FB204629463246EC
:101FF000FFF754FB204629463246FFF769FB0326CC
:102000000096204629463A462B46FFF755FB2046C8
:1020100029463246FFF742FB204629463246FFF763
:1020200057FB0648029981600F21016003B0F0BDA3
:1020300000008640EE360000F436000000118640B5
:1020400070B582B0194C1A492046FFF749FB19496F
:102050002046FFF743FA00250095204629462A46E8
:102060002B46FFF729FB204629462A46FFF716FB99
:10207000204629462A46FFF72BFB012600962046DC
:1020800029462A462B46FFF717FB204629463246AB
:10209000FFF704FB204629463246FFF719FB0648A6
:1020A00086600321016002B070BDC04600A086407A
:1020B000FC3600000037000000B1864010B50D4C22
:1020C0000D492046FFF7ECF80C492046FFF7C6F80B
:1020D0000B4841680B4A0A4027324260816812224D
:1020E0000A432D218A438260016801220A4302606B
:1020F00010BDC04600A04640083700000A37000067
:1021000004B1464000FCFFFFF0B581B01F4800213C
:10211000009101600F2528021D4E31688143012482
:102120006702C81930600320C143321F13680B4097
:102130001360000314212246FFF732F91548FFF718
:10214000B9F83168102001432022914331602903FE
:10215000726B8A43092109035118716321033268A4
:102160000A433260B16B0143B163706B38437063F3
:102170000098FFF749F9FF20000207490A688243E7
:10218000A0031018086001B0F0BDC04608030B4062
:1021900004010B401437000000E400E010B5084CC7
:1021A00008492046FFF79CFA07492046FFF700FA46
:1021B000064801680122114301600548026010BD14
:1021C000004008403C3700004037000028500840DD
:1021D0000851084080B500F021F8FFF72DFEFFF709
:1021E00093FFFFF7C9FEFFF72BFFFFF7D7FFFFF7BE
:1021F00099FEFFF763FFFFF7EDFD7420044900220D
:102200000A54B82003490A54242003490A5480BDC3
:10221000A4022020E80120201C032020F0B581B07A
:1022200010481149416011484160114B5960114CEF
:102230006160114D6960114E7160114F79601148F4
:1022400041601149074A1160084A11601960216014
:1022500029603160396001601020FEF783FF01B012
:10226000F0BDC04600080A40030000B100280A4043
:102270000008864000A886400048084000280F401B
:1022800000A84640000800400100002610B5214883
:102290000068C0B201283BD11F480178491C017079
:1022A000C9B2052904D37D4901220A7000210170B9
:1022B0001A4C2078401C2070C0B20A2803D3FEF7C5
:1022C0004DFE0020207016480178491C0170C9B2EB
:1022D000322904D3002101701248012101701248F3
:1022E0000178491C0170C9B2642904D3002101702E
:1022F0000E48012101700E480188491C018089B2F5
:1023000089087D2904D300210180B848012101708A
:1023100010BDC04620500840970320209203202083
:1023200096032020E201202091032020E0012020BC
:10233000940320206F48102101607047F0B581B0F0
:10234000012528021F4E7168014371601E4F3868D5
:102350001E4900F093FF04461D480088FEF782FCEA
:102360001C4900F08BFF1C49FEF762FB014620462A
:1023700000F0EAFE3860194900F080FF1849086053
:1023800018490A78002A08D10A78002A05D10A7863
:10239000002A02D10A78002AF3D0134909680C4AAE
:1023A0001180316829433160104900F0B7FE0028E0
:1023B00006D17D20C0003F210906012200F072F8FD
:1023C00001B0F0BD00110040440320203333333FFF
:1023D000BC012020A4707D3F00F07F45EE7C33419E
:1023E000B8012020E40120208462554000002841EB
:1023F00010B590480021064A0123837001803F24D4
:102400002406DB06C26003614161846110BDC046E1
:1024100000000A40F0B583B0044620480178002946
:1024200039D000250570A078012804D16560A57019
:1024300025722F4600E0E7882088874203D10120DB
:10244000207203B0F0BDA088401CA08080B2019033
:10245000FEF708FC029066693046FEF703FC014671
:10246000A06900F00BFF029900F063FE002809D07C
:10247000019886420CD995204001E16822690A50F2
:1024800003B0F0BDE0682169054A815003B0F0BD9A
:10249000A580781CE08003B0F0BDC046E301202099
:1024A0009012000010B5634CA1610121A17022803F
:1024B000052100F02DFD606110BDC046B0B50028BB
:1024C00006D00446C54D2846FEF74CFE641EFAD1E0
:1024D000B0BDC04680B500F0D7FB80BD80B5FFF72A
:1024E00097FA80BD024802210160024801607047EE
:1024F00080E200E000E100E080B5FFF76DF980BD0B
:10250000F0B52B4B002018612A4A14682A49002C88
:10251000144601D00C68103423601468002C154652
:1025200001D01D461035254C2C6020611568002D0A
:10253000164601D026461036214D356028611668B2
:10254000002E174601D02F4610371E4E3E603061D8
:1025500018752075287530751B4B1875186114682F
:10256000002C144601D0103634462360174C2061ED
:1025700020751568002D154601D010331D462C60BE
:10258000134B187518611568002D154601D01034CD
:1025900025462B600F4C0A2525700F4C20751568B9
:1025A000002D01D010331A46146020610C60F0BD7C
:1025B000A40020205403202084032020C4002020D5
:1025C000E400202084012020040120202401202078
:1025D00044012020010020206401202003480178CC
:1025E000002901D0002101707047C046E101202080
:1025F000FFF7F0FD00F03AFBFFF782FF00F0CEF8A6
:10260000FFF798FEFFF76EFF00F094F900F076FAFE
:10261000FFF7EEFE00F010F8064CFFF7DFFF00F0CA
:10262000DFF8FFF78BFE2046FFF7F4FE00F0A4F87A
:10263000F3E7C046C0012020F0B581B04B4F387899
:10264000002801D1682000E069206B21812200F080
:1026500001FA6420FFF732FF454D2878FF280FD19B
:102660000120387069246B218122204600F0F2F9A4
:102670006420FFF723FF7521204600F0DFF9287062
:1026800068283ED13878692568240028284600D17A
:1026900020466B268022314600F0DCF9C820FFF787
:1026A0000DFF38780028284600D120461921002245
:1026B000009200F0CFF938780028284600D1204653
:1026C0000322314600F0C6F938780028284600D1A8
:1026D00020461A21022200F0BDF938780028284649
:1026E00000D120461B210826324600F0B3F9387885
:1026F000002800D125461C212846324600F0AAF9C0
:1027000001E00120009038786925682400282846D7
:1027100000D12046192100F091F9164E307038781A
:102720000028284600D120461A2100F087F9707051
:1027300038780028284600D120461B2100F07EF979
:10274000B07038780028284600D120461C2100F0BF
:1027500075F9F0703878002800D125461D212846EB
:1027600000F06CF93071009801B0F0BD58032020E2
:10277000000020205903202080B506480178002958
:1027800006D00021017004486049694AFFF7AAF9A0
:1027900080BDC046E201202048032020F0B581B072
:1027A000012005040C4E356164270C4C2046FEF7D1
:1027B000D9FC7F1E3804F9D1356032252046FEF75A
:1027C000D1FC6D1E2804F9D1022000F0B1F90020DF
:1027D000FFF722FA01B0F0BD90320A4080380100C4
:1027E000F0B581B03D480178002974D00024047010
:1027F00020462146FFF752F939A220462146FFF72D
:102800006DFE394802681E202146FFF763FE01264F
:1028100020463146FFF742F934A220463146FFF701
:102820005DFE344F786BFEF715FA024622252846E6
:102830003146FFF74FFE022620463146FFF72EF9BC
:102840002DA220463146FFF749FE386BFEF702FA0B
:10285000024628463146FFF73DFE03262046314614
:10286000FFF71CF926A220463146FFF737FE274F17
:102870003A6828463146FFF72DFE042620463146A9
:10288000FFF70CF922A220463146FFF727FE7A68AF
:1028900028463146FFF71EFE052620463146FFF743
:1028A000FDF81EA220463146FFF718FEBA682846FA
:1028B0003146FFF70FFE062620463146FFF7EEF8B9
:1028C00019A220463146FFF709FE1948026828463A
:1028D0003146FFF7FFFD01B0F0BDC046E00120200A
:1028E0004144433A20000000B80120205269676843
:1028F000743A2000040020204C656674203A2000C1
:10290000616363656C58203A20000000AC01202010
:10291000616363656C59203A200000006163636560
:102920006C5A203A2000000074656D70203A200037
:1029300088032020064800214160012202800548CA
:1029400041600549018005480168114301607047F5
:102950006003202068032020020300000418864042
:10296000B0B5044681600846FEF738F800250C4BE8
:102970002A46FDF70FFE0B4B2A46FDF7DBFDFDF760
:102980001FFC60602478032C09D8074900F076FC0E
:10299000FEF724F9014665482246FEF799FEB0BDD0
:1029A0000000224000002C4000002041F0B581B022
:1029B0000D46044641600021284600F0BAFB00287D
:1029C0001DD00021284600F09EFB002830D122783F
:1029D000184E032A03D800213046FEF779FE6478AA
:1029E000032C25D80120C00785431349284600F051
:1029F00045FCFEF7F3F801463046224616E02778FC
:102A00000C4E032F0DD80120C00785430A492846E4
:102A100000F034FCFEF7E2F8014630463A46FEF795
:102A200057FE6278032A03D800213046FEF750FE95
:102A300001B0F0BD0000864000007A4410B582B0BD
:102A400001AC0022227001232246FEF7C5FE207849
:102A500002B010BDB0B582B00546002000906B46B4
:102A60005A7019700190204C022220461946FEF738
:102A70007EFB1E480168890608D40168890605D4D2
:102A80000168890602D401688906F3D50146083930
:102A90000A68174B13406A009A180A60011F0A68F7
:102AA000144B1340144A9A180A600168490612D55B
:102AB000016849060FD5016849060CD50168490629
:102AC000F3D408E00168890608D40168890605D4B2
:102AD0000168890602D401688906F3D52046FEF70D
:102AE00087FB02B0B0BDC04600200F4018320F4037
:102AF00000F8FFFFF8FF00F00700020080B508486B
:102B0000002101220270074B436081600648016882
:102B10001143016005488C21FEF7DAFD80BDC046F7
:102B2000780320200000604104B8864000A0864061
:102B3000F0B581B004464048002606803F48047046
:102B40003F4806803F48012101703F4801703F48DF
:102B500006703F4801703F48802707803E4801705B
:102B60003E48402505803E480670F0433D490880B8
:102B70003D490880AE20FFF7DAF8D520FFF7D7F8F7
:102B80003846FFF7D4F8A820FFF7D1F83F20FFF729
:102B9000CEF8D320FFF7CBF83046FFF7C8F8284629
:102BA000FFF7C5F88D20FFF7C2F8012C01D01420E3
:102BB00000E01020FFF7BBF82020FFF7B8F8304600
:102BC000FFF7B5F8A1263046FFF7B1F8C827384619
:102BD000FFF7ADF8DA20FFF7AAF81220FFF7A7F801
:102BE0008120FFF7A4F8012C01D0CF2000E09F2026
:102BF000FFF79DF8D920FFF79AF8012C01D0F120BA
:102C000000E02220FFF793F8DB20FFF790F828463A
:102C1000FFF78DF8A420FFF78AF8A620FFF787F8C2
:102C20003046FFF784F83846FFF781F8AF20FFF70A
:102C30007EF801B0F0BDC046DC012020A8012020B4
:102C4000DE01202090032020A8032020A5012020C1
:102C5000A4012020AA012020A0002020A6012020DD
:102C6000700320208C0320208E03202001200104EB
:102C7000034A116003490A6802430A607047C0466C
:102C800000E100E004580840F0B589B017460C4652
:102C9000054600211046049100F035FA00280394FF
:102CA0000AD105A82D22027028462146FEF780FE93
:102CB0000120C0074740AD1D02953846FDF768FF6B
:102CC0000446FDF7C7FF0146384600F02FFB019090
:102CD0007F48834E834D844FBC4203DAAC421DDDF6
:102CE000049F0DE08049204600F012F93021024691
:102CF0000A4305AB1A704743E41BAC4214D90127C1
:102D00007A49204600F004F905A9C9190246303273
:102D10000A70691C4143641A7D1C08E0B44200DC5F
:102D2000BAE000256B4F05E005A841700225B442CA
:102D3000684F0CD96E49204600F0EAF805A94919F8
:102D4000024630320A70711C4143641A03E005A840
:102D50004019302101706E1C604884420DD96549CC
:102D6000204600F0D5F80146303105AA91555B495F
:102D7000491C4143641A751C03E005A830218155A4
:102D8000AD1C554EB4420BD95B49204600F0C0F84B
:102D90000146303105AA5155711C4143641A02E0C5
:102DA00005A8302141556E1CBC420CD95349204620
:102DB00000F0AEF80146303105AA9155791C414327
:102DC000641A701C03E005A830218155A81C4049F5
:102DD0008C420ED9A1B2C908494A4A43110D0A468C
:102DE000303205AB1A547D22D2004A43A11A8CB26C
:102DF00002E005A930220A54411C632C10D9A0B26C
:102E00008008404A4243500C0246303205AB5A54C7
:102E100064224243A01A84B24E1C092C06D812E048
:102E200005AA30235354861C092C0CD9E0B2CD21BD
:102E30004143C80A0146303105AA91550A21414350
:102E4000601AC4B202E005A830218155761CF5B2A3
:102E5000303405A844552C49019C204600F069F9FE
:102E600000280DD12949204600F008FAFDF790FE10
:102E70003030B61CF1B205AA5054A8182E2141706A
:102E80000399F0B205AA8018049B43700298C0B25F
:102E9000FEF7BEFD09B0F0BD10498C420D4F01DDBB
:102EA00000265CE70C4EB44201DD00256CE7BC4215
:102EB00001DD00267AE7844201DD00208AE7642CE8
:102EC00001DB00219BE700260A2CAFDABFE7C046F2
:102ED000E70300000F2700009F8601003F420F001C
:102EE0007F969800FFE0F50500CA9A3B00E1F505E2
:102EF0008096980040420F00A08601001027000035
:102F0000C52000007B140000CDCCCC3D000020414A
:102F100043088B421AD3002203098B4279D3030A58
:102F20008B425ED3030B8B4242D3030C8B4227D3DD
:102F30000902FF2212BA030C8B4202D312120902B9
:102F400003D0030B8B4233D31AE0D3E0411A804104
:102F5000401C704703460B4371D443088B42F5D3A2
:102F6000002203098B4254D3030A8B4239D3030B4B
:102F70008B421DD3030C8B4202D394466EE0090AA8
:102F8000C30B8B4201D3CB03C01A5241830B8B423C
:102F900001D38B03C01A5241430B8B4201D34B0325
:102FA000C01A5241030B8B4201D30B03C01A52418A
:102FB000C30A8B4201D3CB02C01A5241830A8B420F
:102FC00001D38B02C01A5241430A8B4201D34B02F8
:102FD000C01A5241030A8B4201D30B02C01A52415C
:102FE000CDD2C3098B4201D3CB01C01A5241830910
:102FF0008B4201D38B01C01A524143098B4201D34A
:103000004B01C01A524103098B4201D30B01C01A74
:103010005241C3088B4201D3CB00C01A52418308EE
:103020008B4201D38B00C01A524143088B4201D31B
:103030004B00C01A5241411A524110007047CA0F4A
:1030400000D04942031000D34042534000229C4626
:1030500003098B422DD3030A8B4212D38901FC2230
:1030600012BA030A8B420CD3890192118B4208D306
:10307000890192118B4204D3890137D0921100E06B
:103080008909C3098B4201D3CB01C01A524183097C
:103090008B4201D38B01C01A524143098B4201D3A9
:1030A0004B01C01A524103098B4201D30B01C01AD4
:1030B0005241C3088B4201D3CB00C01A524183084E
:1030C0008B4201D38B00C01A5241D9D243088B42A4
:1030D00001D34B00C01A5241411A00D2014652415D
:1030E000104663465B1000D34042704763465B1056
:1030F00000D3404201B50021004201D0C943084637
:10310000C046C04602BD10B500F064F8EFF3008081
:10311000800001D5012010BD002010BD10B500F0C9
:1031200059F8EFF300804000800F012800D0002004
:1031300010BD10B500F078F8EFF30080800001D4E6
:10314000012010BD002010BD70B50125ED07040061
:103150004C4020D4441A01D2001B0919C60D4B0063
:10316000F2B2FF2A29D01B0E2CD000020C022843F9
:103170002C43D31ADC40051910D2280A02D3401C74
:103180006D0611D0761EF6058019FF2A00DA70BD93
:10319000C00DC00570BD694000F0CEF801200543A8
:1031A000C541521C761CE8E764089C40C901614097
:1031B0008900E7D10124A043E4E71B0E440200D0BC
:1031C000034870BD002AFCD1C00FC00770BD00BF0E
:1031D0000000C07F0123DB0502000A430DD4DA4260
:1031E00003D49A4207D488427047D84214D4D942B3
:1031F00012D48842704780427047DA4203D59A421F
:10320000F9D5814270475B004200DA4204D24A009D
:10321000DA4201D28142704710B5024AFDF726FD1D
:1032200010BD00BF090013040123DB0502000A439F
:103230000DD4DA4203D49A4207D488427047D84268
:1032400014D4D94212D48842704780427047DA427F
:1032500003D59A42F9D5814270475B004200DA42B9
:1032600004D24A00DA4201D28142704710B5024AC4
:10327000FDF7FCFC10BD00BF0900160470B542004C
:1032800064414B005C41120E39D01B0E38D0FF2A2E
:103290003CD0FF2B3AD0D2187F3A40024902400A74
:1032A000490A4518ED0106004E43000A090A484341
:1032B0000104731A4019190C4318990F04D05B08C4
:1032C000012149075B1A521CD80904D3401CF5039D
:1032D00001D19D0607D0FF2A08D2D50506D0E40704
:1032E0002043401970BD0125A843F4E7002A01DC02
:1032F000E00770BD2402FF202043C00570BD1B0EF7
:10330000FF2A03D0FF2B01D0E00770BDFF26360651
:103310004500B54206D84D00B54203D8D218FF2A61
:1033200000D0E7E7004870BD0000C07F70B5012500
:10333000ED0704004C4022D4441A02D26C40001B1A
:103340000919C60D4B00F2B2FF2A4BD01B0E50D00C
:1033500000020C02A8432C43D31ADC40051B05D500
:10336000AD0019D36D08761E521E37D0F605280A17
:1033700001D2801970BD70416D0603D070BD6940E7
:10338000FFF7E8FE9C4009026140490001D0401E61
:1033900070BD0124A04370BD6D081DD001202B0C11
:1033A00001D12D0410302B0E01D12D0208302B0F2E
:1033B00001D12D01001DAB0F01D1AD00801CEB0F21
:1033C00001D16D00401C361A121A6D00680AF5050D
:1033D0004019012A02DB70BD002070BDC036300AE2
:1033E000C00770BD1B0E440201D1FF2B00D1024863
:1033F00070BD002AF0D070BD0000C07F80807F7E4D
:103400007D7C7B7A7978777676757473727171705A
:103410006F6E6E6D6C6C6B6A6A696868676666650C
:103420006464636362616160605F5F5E5E5D5D5C9A
:103430005C5B5B5A5A59595858575756565555550B
:103440005454535352525251515050504F4F4F4E6B
:103450004E4D4D4D4C4C4C4B4B4B4A4A4A494949B9
:1034600048484847474747464646454545444444FB
:103470004443434343424242424141418182838427
:1034800085868788898B8C8D8E8F91929395969760
:10349000999A9C9D9FA0A2A3A5A7A8AAACAEB0B2E2
:1034A000B3B5B7B9BCBEC0C2C5C7C9CCCED1D4D7DD
:1034B000D9DCDFE2E6E9ECF0F3F7FAFE0000000009
:1034C00000000000002F00000000070007000014AB
:1034D0007F147F1400242A7F2A12006264081323B9
:1034E00000364955225000000503000000001C2250
:1034F0004100000041221C000014083E081400088E
:10350000083E0808000000A060000008080808083D
:10351000000060600000002010080402003E5149D5
:10352000453E0000427F4000004261514946002173
:1035300041454B31001814127F100027454545398D
:10354000003C4A49493000017109050300364949E8
:10355000493600064949291E0000363600000000A1
:1035600056360000000814224100001414141414EC
:103570000000412214080002015109060032495995
:10358000513E007C1211127C007F49494936003EB1
:1035900041414122007F4141221C007F494949416C
:1035A000007F09090901003E4149497A007F080866
:1035B000087F0000417F4100002040413F01007F23
:1035C00008142241007F40404040007F020C027FEF
:1035D000007F0408107F003E4141413E007F090901
:1035E0000906003E4151215E007F09192946004627
:1035F000494949310001017F0101003F4040403FFE
:10360000001F2040201F003F4038403F0063140847
:103610001463000708700807006151494543000022
:103620007F41410000552A552A55000041417F0045
:10363000000402010204004040404040000001023A
:103640000400002054545478007F48444438003823
:103650004444442000384444487F003854545418AB
:1036600000087E0901020018A4A4A47C007F0804BD
:1036700004780000447D4000004080847D00007F8D
:10368000102844000000417F4000007C04180478AA
:10369000007C0804047800384444443800FC2424A6
:1036A00024180018242418FC007C0804040800488E
:1036B0005454542000043F444020003C4040207CAF
:1036C000001C2040201C003C4030403C004428109E
:1036D0002844001CA0A0A07C004464544C44141452
:1036E0001414141400060000000000000800080074
:1036F0004F000000E80300002001000008076300FD
:10370000E80300002000000008000400000300009F
:10371000071000000300000000000000000000008F
:103720000000000000000000100000000001000088
:1037300003000000000000003400C4410800000045
:10374000020000003F9C000000000000000000009C
:10375000000000000000000078370000000020207A
:103760004000000020010000B83700004000202089
:103770007004000048010000680A0000000000001A
:103780000000000000000000000000000000000039
:103790000000000000000000000000000000A04148
:1037A0000000A04100000000000000000000000038
:0837B000000000000000000011
:04000005000000C136
:00000001FF
