:020000040000FA
:10000000D80120208D010000910100009301000023
:1000100000000000000000000000000000000000E0
:10002000000000000000000000000000950100003A
:10003000000000000000000097010000990100008E
:100040009B0100009B0100009B0100009B01000040
:100050009B0100009B0100009B0100009B01000030
:10006000000000009B0100009B0100000000000058
:10007000000000009B0100009B0100009B010000AC
:10008000B90A00009B0100009B0100009B010000D9
:100090009B0100009B010000000000000000000028
:1000A0009B0100009B010000000000000000000018
:1000B0009B010000000000009B0100009B0100006C
:1000C00000F002F800F052F812A030C808382418E6
:1000D0002D18AC4201D100F049F80FCCA246AB4636
:1000E0000CA730CF2D1B083F3F197C427F1E544484
:1000F0002D090426F441641EAC4201D300F036F809
:100100000126334200D0FB1A3343984754465D46DC
:10011000DFE70000F40A0000140B000000000000FC
:10012000103A02D378C878C1FAD8520701D330C840
:1001300030C101D504680C60704700000000000069
:100140007047000000000000002300240025002666
:10015000103A01D378C1FBD8520700D330C100D583
:100160000B6070471FB51FBD10B510BD00F027F81C
:100170001146FFF7F7FF00F0E5FC00F03FF803B48D
:10018000FFF7F2FF03BC00F045F800000648004707
:10019000FEE7FEE7FEE7FEE7FEE7FEE70348044969
:1001A000024A044B70470000C1000000D800202024
:1001B000D8012020D800202070477047704775462E
:1001C00000F024F8AE46050069465346C008C0005A
:1001D000854618B020B5FFF7E1FF60BCB6460026A3
:1001E0000027C0C5C0C5C0C5C0C5C0C5C0C5C0C545
:1001F000C0C5403D490849008D46704710B50446CA
:10020000C046C0462046FFF7BAFF10BD0048704701
:100210000800202001491820ABBEFEE7260002009E
:10022000704781B0009001B07047000080B582B087
:10023000019001986649884210D1FFE701204105ED
:10024000664800F03DFA0246504242410199087862
:100250005200FD23184080180870FFE701985E499E
:10026000884210D1FFE70120C1055C4800F028FA60
:10027000024650424241019908785200FD2318403D
:1002800080180870FFE701985549884210D1FFE7B0
:1002900001200106514800F013FA02465042424143
:1002A000019908785200FD23184080180870FFE774
:1002B000019908788207D20FFE2318408018087031
:1002C00002B080BD81B0009001B0704782B0019053
:1002D00000910098B84908700199002008750199AB
:1002E0000861B4480068002807D1FFE70198B149C8
:1002F000086001980649086007E0019804490A6807
:100300001061086800690860FFE702B07047C046E6
:10031000D000202081B0009001B0704781B00090E3
:1003200001B0704781B0009001B0704780B582B0D5
:1003300001900198007F012821D1FFE7019824490D
:10034000884205D1FFE72348012100F06BF9FFE760
:1003500001982149884206D1FFE7012081061F4804
:1003600000F0C2F9FFE701981D49884206D1FFE776
:100370000120C106194800F0B7F9FFE7FFE701982F
:10038000007F022821D1FFE701981149884205D159
:10039000FFE71048012100F0A7F9FFE701980E4997
:1003A000884206D1FFE7012081060C4800F03AF9A7
:1003B000FFE701980A49884206D1FFE70120C106FC
:1003C000064800F02FF9FFE7FFE702B080BDC04606
:1003D0006800202000000A408800202000200A40F9
:1003E000A800202080B582B0724800680190FFE725
:1003F0000198002800D1DAE00198FFF717FF019873
:1004000000788007C00F00280DD1FFE70198007D1C
:10041000032804D1FFE7019948688861FFE7019943
:1004200000204860FFE70198017848080840C007AD
:10043000002807D0FFE760480278019948688018D3
:100440004860FFE70198007D042807D1FFE75A487C
:100450000278019988688018886003E0019900207B
:100460008860FFE70198007D0090042800D999E09A
:100470000098810001A040588746C04691040000C2
:10048000AF040000E1040000250500007105000034
:10049000019900200877019800788007C00F002894
:1004A00004D0FFE7019901200875FFE77AE0019881
:1004B00000788007C00F002804D1FFE701990020D1
:1004C00008750CE001984068152807D3FFE70199EB
:1004D000022008750198FFF71DFFFFE7FFE761E0C5
:1004E000019800788007C00F002808D1FFE7019924
:1004F000042008750199087F401C087711E00198D5
:1005000040682E4988420BD3FFE701990320087504
:1005100001991920000188810198FFF782FEFFE709
:10052000FFE73FE001988089012807DBFFE72248C9
:10053000027801998889801A888107E00199192039
:10054000000188810198FFF7BDFEFFE70198007860
:100550008007C00F00280AD1FFE70198FFF7E2FEED
:100560000198FFF7DBFE019900200875FFE719E00D
:1005700001988068C9280AD3FFE70198FFF7D6FEE3
:100580000198FFF7CBFE01990020087509E001985A
:100590004068152804D3FFE7019902200875FFE79A
:1005A000FFE7FFE7FFE701980069019020E702B04D
:1005B00080BDC046CC002020000020202103000088
:1005C00082B001900199881E001F00BFFCD20090EC
:1005D00002B0704784B003900291019203980068C2
:1005E0000090009801998843009000980299019A20
:1005F000114008430399086004B0704784B0039029
:100600000291019203980068009000980199884334
:10061000009000980299019A1140084303990860DC
:1006200004B0704782B00190009100980199952222
:100630005201885002B0704782B00190009100983A
:10064000019995225201885002B0704782B0019002
:10065000009100980199024A885002B07047C04644
:10066000D012000081B0009000990120C2024748DA
:10067000885001B07047C04610B584B0069C039006
:10068000029101920093029801990843009908434E
:10069000069908430349084303998900074A88508B
:1006A00004B010BD8100040081B00090009881006A
:1006B000024A8120885001B07047C0460480424001
:1006C00082B00190009101982721C90140580099FA
:1006D000084002B07047000081B000900099744A51
:1006E0007448885001B0704782B001900091009822
:1006F0000199074A885002B07047C04682B0019005
:10070000009100980199024A885002B07047C04693
:100710009012000081B001466846017000780249DD
:10072000086001B07047C04608030B4080B582B036
:10073000014601A80170017802480322FFF75EFF1D
:1007400002B080BD00010B4081B000900099024AC8
:100750000120885001B070470811000082B001905C
:100760000091009B0199034A88581843885002B0B1
:100770007047C0462810000081B000900099012009
:10078000C2020248885001B07047C04601000026EE
:1007900081B000900098812149014058C0B201B059
:1007A0007047000080B584B00390029103980299CD
:1007B000496800F0DDF8029800780190222856D8A8
:1007C0000198810001A040588746C0466508000096
:1007D0006F080000650800006F0800006F08000047
:1007E0006F0800006F0800006F0800006F0800002D
:1007F0006F0800006F0800006F0800006F0800001D
:100800006F0800006F0800006F0800005908000022
:100810006F080000590800006F0800006F08000012
:100820006F0800006F0800006F0800006F080000EC
:100830006F0800006F0800006F0800006F080000DC
:100840006F0800006F0800006F08000059080000E2
:100850006F0800005908000003980121490700F0C3
:1008600079F805E00398002100F074F800E0FFE754
:1008700003980299098A0022009200F03BF8009B3D
:1008800003980299C9681A4600F016F80299087888
:10089000097A08430399414A885004B080BDC04694
:1008A00081B000900099024A0248885001B0704718
:1008B00004080000030000B110B586B00590049153
:1008C000039202A803700599084A891801910178DA
:1008D000019889004018019001980499039A1143E6
:1008E000034AFFF777FE06B010BDC046301800007F
:1008F0007777020084B00390029101A802700399F7
:10090000064A8918009101780098890040180090E3
:1009100002980099086004B07047C04610180000A3
:1009200082B001900091009800780199074A8850A0
:10093000009840780199012212038850009880782D
:100940000199034A885002B07047C0460810000061
:100950000C11000080B582B00190009101980F4900
:100960004018009903221207FFF734FE02B080BD41
:1009700082B00190009100980199024A885002B01B
:100980007047C0460818000081B000900099034AE3
:10099000885801231843885001B07047041800009C
:1009A00080B588B000200290FFF77EFE3820FFF768
:1009B0007BFE3920FFF778FE31200590FFF774FEAB
:1009C000029B0093012004904204019230201946BA
:1009D000FFF752FE019A029B009332201946FFF75F
:1009E0004BFE019A029B009333201946FFF744FE09
:1009F00004992F480390FFF781FE03980499FFF7AD
:100A000025FE0598810507912A480690FFF714FEF8
:100A100006980799FFF71AFE08B080BD80B582B02E
:100A200000200190FFF776FE0198FFF77FFE02B0ED
:100A300080BD000080B582B008496C480190FFF786
:100A40006FFF01980649FFF7ADFE01980121FFF7FE
:100A500085FE0198FFF778FE02B080BDF00B000024
:100A6000F40B000080B500F007F8FFF799FFFFF7DF
:100A7000D5FFFFF7DFFF80BD80B584B00C48019043
:100A8000FFF72AFE0B480290FFF726FE5748039017
:100A9000FFF706FF0198FFF7E5FD0298FFF7E2FD7B
:100AA0000398FFF769FE1020FFF78AFD04B080BDB0
:100AB00000000A4000200A4080B54C48FFF768FE5D
:100AC000012803D1FFE700F04FF800E0FFE780BD09
:100AD00081B001466846017000214056002809D4C3
:100AE000FFE7684601781F20014001208840024945
:100AF0000860FFE701B0704700E100E080B582B018
:100B000007480A210191FFF7E1FB01990548FFF72A
:100B1000DDFB01990448FFF7D9FB02B080BDC04658
:100B20006800202088002020A80020202A48007883
:100B3000002801D1FFE703E0274900200870FFE704
:100B40007047C04680B582B00020019000F004F8E4
:100B5000FFE7FFF7EBFFFCE780B5FFF783FF00F04F
:100B60003DF8FFF7CBFF80BD80B517490878401CE2
:100B70000870C0B20A2806DBFFE7FFF733FC124912
:100B800000200870FFE711490878401C0870C0B2C7
:100B9000642807DBFFE70E49012008700B4900209D
:100BA0000870FFE70B490888401C088080B27D214F
:100BB0008900884207DBFFE70749012008700549E3
:100BC00000200880FFE780BDD5002020D400202031
:100BD000C8002020D6002020C900202080B5102089
:100BE000FFF776FF0148FFF7CFFE80BD00400840C9
:100BF0000800000002000000FF7C00000000000070
:100C00000000000000000000280C00000000202070
:100C10000800000020010000300C00000800202027
:100C2000D0010000480100000A00000000000000A0
:04000005000000C136
:00000001FF
