:020000040000FA
:10000000600220208D01000091010000930100009A
:1000100000000000000000000000000000000000E0
:10002000000000000000000000000000950100003A
:10003000000000000000000097010000990100008E
:100040009B0100009B0100009B0100009B01000040
:100050009B0100009B0100009B0100009B01000030
:10006000000000009B0100009B0100000000000058
:10007000000000009B0100009B010000690D0000D2
:10008000510D00009B0100009B0100009B0100003E
:100090009B0100009B010000000000000000000028
:1000A0009B0100009B010000000000000000000018
:1000B0009B010000000000009B0100009B0100006C
:1000C00000F002F800F052F812A030C808382418E6
:1000D0002D18AC4201D100F049F80FCCA246AB4636
:1000E0000CA730CF2D1B083F3F197C427F1E544484
:1000F0002D090426F441641EAC4201D300F036F809
:100100000126334200D0FB1A3343984754465D46DC
:10011000DFE700008C0E0000AC0E000000000000C5
:10012000103A02D378C878C1FAD8520701D330C840
:1001300030C101D504680C60704700000000000069
:100140007047000000000000002300240025002666
:10015000103A01D378C1FBD8520700D330C100D583
:100160000B6070471FB51FBD10B510BD00F027F81C
:100170001146FFF7F7FF00F081FE00F03FF803B4EF
:10018000FFF7F2FF03BC00F045F800000648004707
:10019000FEE7FEE7FEE7FEE7FEE7FEE70348044969
:1001A000024A044B70470000C1000000600120209B
:1001B000600220206001202070477047704775461C
:1001C00000F024F8AE46050069465346C008C0005A
:1001D000854618B020B5FFF7E1FF60BCB6460026A3
:1001E0000027C0C5C0C5C0C5C0C5C0C5C0C5C0C545
:1001F000C0C5403D490849008D46704710B50446CA
:10020000C046C0462046FFF7BAFF10BD0048704701
:100210000800202001491820ABBEFEE7260002009E
:10022000704781B0009001B07047000080B582B087
:10023000019001986649884210D1FFE701204105ED
:10024000664800F06BFA0246504242410199087834
:100250005200FD23184080180870FFE701985E499E
:10026000884210D1FFE70120C1055C4800F056FA32
:10027000024650424241019908785200FD2318403D
:1002800080180870FFE701985549884210D1FFE7B0
:1002900001200106514800F041FA02465042424115
:1002A000019908785200FD23184080180870FFE774
:1002B000019908788207D20FFE2318408018087031
:1002C00002B080BD81B0009001B0704782B0019053
:1002D00000910098B84908700199002008750199AB
:1002E0000861B4480068002807D1FFE70198B149C8
:1002F000086001980649086007E0019804490A6807
:100300001061086800690860FFE702B07047C046E6
:10031000D000202081B0009001B0704781B00090E3
:1003200001B0704781B0009001B0704780B582B0D5
:1003300001900198007F012821D1FFE7019824490D
:10034000884205D1FFE72348012100F07FF9FFE74C
:1003500001982149884206D1FFE7012081061F4804
:1003600000F0F0F9FFE701981D49884206D1FFE748
:100370000120C106194800F0E5F9FFE7FFE7019801
:10038000007F022821D1FFE701981149884205D159
:10039000FFE71048012100F0D5F9FFE701980E4969
:1003A000884206D1FFE7012081060C4800F04EF993
:1003B000FFE701980A49884206D1FFE70120C106FC
:1003C000064800F043F9FFE7FFE702B080BDC046F2
:1003D0006800202000000A408800202000200A40F9
:1003E000A800202080B582B0724800680190FFE725
:1003F0000198002800D1DAE00198FFF717FF019873
:1004000000788007C00F00280DD1FFE70198007D1C
:10041000032804D1FFE7019948688861FFE7019943
:1004200000204860FFE70198017848080840C007AD
:10043000002807D0FFE760480278019948688018D3
:100440004860FFE70198007D042807D1FFE75A487C
:100450000278019988688018886003E0019900207B
:100460008860FFE70198007D0090042800D999E09A
:100470000098810001A040588746C04691040000C2
:10048000AF040000E1040000250500007105000034
:10049000019900200877019800788007C00F002894
:1004A00004D0FFE7019901200875FFE77AE0019881
:1004B00000788007C00F002804D1FFE701990020D1
:1004C00008750CE001984068152807D3FFE70199EB
:1004D000022008750198FFF71DFFFFE7FFE761E0C5
:1004E000019800788007C00F002808D1FFE7019924
:1004F000042008750199087F401C087711E00198D5
:1005000040682E4988420BD3FFE701990320087504
:1005100001991920000188810198FFF782FEFFE709
:10052000FFE73FE001988089012807DBFFE72248C9
:10053000027801998889801A888107E00199192039
:10054000000188810198FFF7BDFEFFE70198007860
:100550008007C00F00280AD1FFE70198FFF7E2FEED
:100560000198FFF7DBFE019900200875FFE719E00D
:1005700001988068C9280AD3FFE70198FFF7D6FEE3
:100580000198FFF7CBFE01990020087509E001985A
:100590004068152804D3FFE7019902200875FFE79A
:1005A000FFE7FFE7FFE701980069019020E702B04D
:1005B00080BDC046CC002020000020202103000088
:1005C00082B001900199881E001F00BFFCD20090EC
:1005D00002B0704784B003900291019203980068C2
:1005E0000090009801998843009000980299019A20
:1005F000114008430399086004B0704784B0039029
:100600000291019203980068009000980199884334
:10061000009000980299019A1140084303990860DC
:1006200004B0704784B0039002910192039800686F
:100630000090009801998843009000980299019ACF
:10064000114008430399086004B0704782B00190DC
:1006500000910098019995225201885002B070478C
:1006600082B0019000910098019995225201885022
:1006700002B0704782B00190009100980199024A3F
:10068000885002B07047C046D012000081B0009080
:1006900000990120C202F048885001B07047C0465E
:1006A00010B584B0069C03900291019200930298C9
:1006B00001990843009908430699084303490843F0
:1006C00003998900144A885004B010BD81000400C9
:1006D00081B00090009881000F4A8120885001B0BD
:1006E0007047C04682B001900091009803490843CA
:1006F00001998900084A885002B0704780000400C0
:1007000082B00190009100988021084301998900EE
:10071000014A885002B070470480424082B0019084
:10072000009101982721C90140580099084002B062
:100730007047000081B000900099EF4AEF48885060
:1007400001B0704782B00190009100980199074A6A
:10075000885002B07047C04682B001900091009866
:100760000199024A885002B07047C04690120000BA
:1007700081B001466846017000780249086001B006
:100780007047C04608030B4080B582B0014601A8FF
:100790000170017802480322FFF744FF02B080BDD8
:1007A00000010B4081B000900099C94A0120885097
:1007B00001B0704782B001900091009B0199A04A5E
:1007C00088581843885002B07047C04681B00090E6
:1007D00000990120C202A048885001B07047C0466D
:1007E00081B000900098812149014058C0B201B009
:1007F0007047000080B584B003900291039802997D
:10080000496800F0D7F8029800780190222856D85D
:100810000198810001A040588746C046B5080000F5
:10082000BF080000B5080000BF080000BF080000B6
:10083000BF080000BF080000BF080000BF0800009C
:10084000BF080000BF080000BF080000BF0800008C
:10085000BF080000BF080000BF080000A908000092
:10086000BF080000A9080000BF080000BF08000082
:10087000BF080000BF080000BF080000BF0800005C
:10088000BF080000BF080000BF080000BF0800004C
:10089000BF080000BF080000BF080000A908000052
:1008A000BF080000A908000003980121490700F0D3
:1008B00073F805E00398002100F06EF800E0FFE710
:1008C00003980299098A0022009200F037F8009BF1
:1008D00003980299C9681A4600F012F8029908783C
:1008E000097A084303993E4A885004B080BDC04647
:1008F00081B000900099804A8048885001B07047CC
:1009000010B586B005900491039202A80370059972
:10091000084A8918019101780198890040180190CE
:1009200001980499039A1143034AFFF753FE06B056
:1009300010BDC046301800007777020084B00390E5
:10094000029101A802700399064A89180091017862
:10095000009889004018009002980099086004B03F
:100960007047C0461018000082B0019000910098B6
:10097000007801997D4A88500098407801990122B9
:1009800012038850009880780199024A885002B07A
:100990007047C0460C11000080B582B001900091F4
:1009A00001980F494018009903221207FFF712FE21
:1009B00002B080BD82B00190009100980199024A76
:1009C000885002B07047C0460818000081B00090FF
:1009D0000099034A885801231843885001B0704792
:1009E0000418000082B00190009100980199024A19
:1009F000885002B07047C0464810000081B0009097
:100A0000009911200202885801239843885001B0B0
:100A1000704781B00090009911200202885801238C
:100A20001843885001B0704782B001900091009B3C
:100A30000199034A88581843885002B07047C0464D
:100A40002810000081B0009000990120C2020248E5
:100A5000885001B07047C0460100002682B0019066
:100A600000910198024940580099084002B070472F
:100A70003810000080B582B0019000910198FFF716
:100A8000BDFF0198112109024018009A118893783E
:100A9000194392881143084AFFF7B0FD01982A498B
:100AA0004018009A9179D3791943127A11437E2222
:100AB000FFF7A4FD02B080BD1867020081B000906E
:100AC000009803494058C0B2C00901B07047C04601
:100AD0000811000081B00090009802494058C0B24F
:100AE00001B070472411000081B000900099024AC3
:100AF0000248885001B0704704080000030000B1AC
:100B000080B584B003900291019203980B4940187C
:100B100002990B4AFFF786FD03980A49401801998C
:100B20003F22FFF77FFD0399074A88188958012261
:100B30001140FFF777FD04B080BDC04610110000E2
:100B4000FFFF0000141100000411000082B00190AA
:100B50000091009800780199044A885000984078E4
:100B6000019901221203885002B07047081000005A
:100B700080B582B0019000910198112109024018BE
:100B800000990322D203FFF74DFD02B080BD82B071
:100B900001906846017000780199892252018850BD
:100BA00002B0704780B582B0019068460170FFE7DF
:100BB0000198FFF783FF002801D0FFE7F8E70198CD
:100BC00069460978FFF7E3FF02B080BD80B58AB0BF
:100BD000142002210291FFF793FD02991520FFF7DF
:100BE00081FD00200490FFF773FD3820FFF770FDB2
:100BF0003920FFF76DFD31200790FFF769FD049B59
:100C00000093012006904204039230201946FFF71A
:100C100047FD039A049B009332201946FFF740FDDD
:100C2000039A049B009333201946FFF739FD069978
:100C300045480590FFF790FD05980699FFF71AFDC6
:100C400007988105099141480890FFF709FD089828
:100C50000999FFF70FFD0AB080BDC04680B582B08C
:100C600000200190FFF784FD0198FFF78DFD02B091
:100C700080BD000080B582B00849AB480190FFF705
:100C800073FE01980649FFF7B5FD01980121FFF7B2
:100C900091FD0198FFF786FD02B080BD7C0F00003A
:100CA000800F000080B582B00D49B3480190FFF776
:100CB0004DFF01980B49FFF7DDFE01980021FFF77A
:100CC00057FF0198D0211522FFF71AFF0198012143
:100CD0008902FFF7A9FE0198FFF79BFE02B080BDD5
:100CE000940F0000960F000080B500F009F8FFF7A0
:100CF0006DFFFFF7B3FFFFF7BDFFFFF7D3FF80BD29
:100D000080B584B010480090FFF714FD0F480190A3
:100D1000FFF710FD84480290FFF7EAFD9648039024
:100D2000FFF7E2FE0098FFF7B1FC0198FFF7AEFC79
:100D30000298FFF74BFD0398FFF784FE1020FFF7A2
:100D40003FFC04B080BDC04600000A4000200A40BD
:100D500080B57548FFF744FD012803D1FFE700F097
:100D6000A1F800E0FFE780BD80B582B001208102DC
:100D700001918148FFF772FE0199884214D1FFE783
:100D80007D480090FFF7A6FE0146084B1A88501CCC
:100D9000188007488154802100F0D8F8009801217C
:100DA0008902FFF71FFEFFE702B080BD5801202037
:100DB000D800202081B001466846017000214056CD
:100DC000002809D4FFE7684601781F200140012070
:100DD000884002490860FFE701B0704780E200E008
:100DE00081B001466846017000214056002809D4B0
:100DF000FFE7684601781F200140012088400C4928
:100E00000860FFE701B0704781B001466846017095
:100E100000214056002809D4FFE7684601781F20CA
:100E200001400120884002490860FFE701B0704797
:100E300000E100E080B582B007480A210191FFF788
:100E400045FA01990548FFF741FA01990448FFF76F
:100E50003DFA02B080BDC0466800202088002020F6
:100E6000A80020202B480078002801D1FFE703E0EC
:100E7000284900200870FFE77047C04680B582B05F
:100E80000020019000F004F8FFE7FFF7EBFFFCE71C
:100E900080B5FFF729FF00F03FF8FFF7CBFF00F028
:100EA00045F880BD80B517490878401C0870C0B26D
:100EB0000A2806DBFFE7FFF795FA124900200870C1
:100EC000FFE711490878401C0870C0B2642807DBAE
:100ED000FFE70E49012008700B4900200870FFE76A
:100EE0000B490888401C088080B27D218900884217
:100EF00007DBFFE70749012008700549002008804B
:100F0000FFE780BDD5002020D4002020C80020208D
:100F1000D6002020C900202080B51020FFF760FFF8
:100F20000148FFF753FD80BD0040084080B582B006
:100F30000F200190FFF73EFF0198FFF765FF0120AA
:100F400081020D48FFF74EFD02B080BD80B582B032
:100F500001900091FFE70098411E0091002809D000
:100F6000FFE7019801780448FFF71CFE0198401C38
:100F70000190F0E702B080BD008010400800000042
:100F800002000000FF7C00000000000000000000E4
:100F90000000000008000000180000000030000001
:100FA000C00F000000002020080000002001000009
:100FB000C80F00000800202058020000480100006F
:080FC0000A000000000000001F
:04000005000000C136
:00000001FF
