:020000040000FA
:1000000068022020D5000000D9000000DB000000BD
:1000100000000000000000000000000000000000E0
:10002000000000000000000000000000DD000000F3
:100030000000000000000000DF000000E100000000
:10004000E3000000E3000000E3000000E300000024
:1000500011040000E3000000E3000000E3000000E2
:1000600000000000E3000000E300000000000000CA
:1000700000000000E3000000E3000000E3000000D7
:10008000250D0000E3000000E3000000E300000095
:10009000E3000000E300000000000000000000009A
:1000A000E3000000E300000000000000000000008A
:1000B000E300000000000000E3000000E300000097
:1000C0000348854600F08CF900480047310F0000D6
:1000D0006802202003480047FEE7FEE7FEE7FEE750
:1000E000FEE7FEE7C1000000F8B502464A40D40F23
:1000F00042004B0052085B089A4202D20246084670
:1001000011464A0023D0C30D4A00DDB2120EAD1ACB
:10011000202D35DA49020126490AF6058A19002CF4
:1001200000D0524220214F1B1146B9402A411018DD
:10013000C20D9A4221D0002C17D0012D08DCDA051F
:10014000801AD20F8019D207DBB200F00FF9F8BD88
:10015000DA05801A012340001B06C01880185A4295
:100160008018CA0F1043490007E04908C20711432D
:10017000DA05801A80194008801800F0EFF8F8BD01
:1001800061000122511A001BF7E70122D2075140FA
:10019000AAE70122D2075040A6E7024670B54A40BE
:1001A000D30FDB0740002DD04A002AD0010E140ED9
:1001B000000212020919400A520A8418E501044695
:1001C0005443000A120A2E045043A4194219200C69
:1001D000C543AA18120C0125AD03521C5219120472
:1001E0007F39240400D0521C104301D44000491E22
:1001F000C2B20C06C0092018401C4008802A02D058
:1002000003E0002070BD40084000002900DA002013
:10021000184370BD70B502464A40D50F40004A00F1
:10022000ED0740085208002814D0002A12D0C40D4F
:10023000D30D41020120C0055202490A520AE41AB4
:10024000091812187D34914201D3641C00E0490062
:10025000002C01DA002070BD0023914201D3891ADD
:100260000343400849000028F7D100290AD09142F1
:1002700002D10121C90705E0914201D2012101E02B
:100280000121C943E005C018401900F067F870BDAE
:100290000122D207002800DB101A002900DB511AC6
:1002A000814201D201207047002070470122D2070D
:1002B000002800DB101A002900DB511A814201D30B
:1002C0000120704700207047C217C10F504010B581
:1002D0004018CA079623002100F048F810BD10B559
:1002E00000229623114600F041F810BDC20F4100D4
:1002F00040020123400ADB05D207090EC0187F29FE
:1003000001DA00207047962903DC9623591AC84069
:1003100001E096398840002AF4D04042704770B519
:100320000446002903D000202022012310E00028E9
:1003300001D00020C043C046C0460DE02546D54050
:100340008D4205D30D469540641B1D4695404019CE
:100350001546521E002DF1DC214670BD002904DA3D
:10036000401C490001D140084000704770B400248F
:10037000050C05D11024000402D1002921D011243C
:10038000050E01D100020834050F01D10001241D22
:10039000850F01D18000A41C002801DB4000641CF3
:1003A000002908D020252E1B0D46F540A14000D085
:1003B00001212943084301061B1B000ADB1D02D54E
:1003C000002070BC7047DB05181880180029F8DA87
:1003D000401C4900F5D170BC400840007047000047
:1003E0001CB5094800900948019005460126009C6B
:1003F00005E0E36807CC33430C3C98471034AC422B
:10040000F7D3FFF761FE0000341600005416000019
:1004100004480068C0B20A2802D1034801210170D3
:100420007047C04620100040210120207047000086
:100430009649884206D09649884207D09549884215
:1004400007D07047294801210160704701208006CC
:1004500001E00120C00624490860704770477047DA
:1004600070470000017F02291BD0012922D1874952
:10047000884214D08649884222D08649884225D0B5
:10048000894988420BD08449884219D083498842DF
:100490001CD08349884223D0824988420AD113481C
:1004A0000BE07A49884206D0794988420BD07949D5
:1004B000884210D070470D48103801210160704704
:1004C0000120800604E00120800606E00120C0062D
:1004D0000549086070470120C0060349086170475C
:1004E00001208005F4E7C04690320A40A0120A407D
:1004F000F0B581B064480468002C00D1C2E0192036
:1005000000010090614E694D61490CE02046FFF703
:10051000A9FF2046FFF7A3FF002020752469002CC7
:100520005B4900D1AEE0B44216D08C4217D0594995
:100530008C4216D058498C4215D058498C4214D060
:1005400057498C4213D057498C4212D056488442A6
:100550001AD10B2054490DE0142031460AE0162030
:1005600008E0172006E0072004E0082002E0092048
:1005700000E00A202A680B78FD271F40C2400220B5
:100580000240D21942400A702078FE2202408107C0
:10059000C80F80182070002906D4227D032A01D1BB
:1005A0006268A26100226260032203461340032BAB
:1005B00004D13F4B1B786768FB186360237D042BD5
:1005C0000BD13B480078A1680818A060C8289DD8C6
:1005D00060681528A2D302209FE70027A760032B9D
:1005E0009CD82E467B441B795B009F440118081061
:1005F000277700293546254E90D501208DE7002923
:1006000013D404202075207F401C20770AE0A189A4
:10061000002924D0264A1278891AA18125E00029D0
:1006200011D427753546194E78E76068214988420C
:100630003546164E00D271E70098A08122752046FB
:10064000FFF7F4FE6AE76068152835460F4E00D2C2
:1006500064E7022020752046FFF700FF5EE7009860
:10066000A0812046FFF7E4FE207835468007074E3C
:1006700000D553E72046FFF7F3FE2046FFF7EFFED5
:1006800027754BE701B0F0BD500120200C00202061
:100690002C0020204C0020206C0020208C002020EA
:1006A000AC002020CC002020EC00202080330A4029
:1006B0000000202021030000B0B50A780323134076
:1006C0000B4A84580B4D2540EB18A92424061B190E
:1006D0008350072212064B68134011242402055947
:1006E0009543EA180251001949780161B0BDC0462E
:1006F00008080000FCFFFF00811E091F00BFFCD29C
:1007000070470000B0B51122120283580C4C1C40F7
:100710000B894D881D438B792B430A4D1D4063196E
:100720008350CB798C881C43097821435D239B003F
:100730001940801842689A4351184160B0BDC046C4
:1007400080CCFFFF7F33000010B501221203831815
:100750000C785C604978815010BD000070B5374A54
:1007600082184B685360364BC3180878222857D834
:10077000840001A52C59A746170800002108000095
:1007800017080000210800002108000021080000CF
:1007900021080000210800002108000021080000B5
:1007A00021080000210800002108000021080000A5
:1007B00021080000210800000508000021080000B1
:1007C00005080000210800002108000021080000A1
:1007D0002108000021080000210800002108000075
:1007E0002108000021080000210800002108000065
:1007F0002108000021080000050800002108000071
:1008000005080000032424071568A5430124640794
:100810002C19146004E0032424071568A54315600F
:100820000C8AD460CC68074D25401C68064E2640D3
:1008300074191C60097A0143116070BD041800002E
:1008400030180000777702008888FDFF10B501227C
:10085000120383180C789C604B7883508978014A86
:10086000815010BD0C110000B0B5144605467E281D
:1008700000D9491C5039C8B200F020F97E2D00D9AA
:1008800000252809103000F019F90E202840401CDE
:1008900000F014F9203CE0B2062444432C4D285DBE
:1008A00000F032F92C19607800F02EF9A07800F0F1
:1008B0002BF9E07800F028F9207900F025F960792B
:1008C00000F022F9B0BDC046F0B583B001921478B3
:1008D000002C3AD00646002729E0F0B2000910307B
:1008E00000F0ECF80E203040401C00F0E7F8203C0F
:1008F000E0B206244443164D285D00F005F92C199A
:10090000607800F001F9A07800F0FEF8E07800F0DF
:10091000FBF8207900F0F8F8607900F0F5F8B61DE2
:100920007F1CF8B201990C5C002C02990DD0F5B235
:100930007E2D00D9491C029108465038C0B200F003
:10094000BDF87E2DC9D90026C7E703B0F0BDC0466B
:10095000DE130000B0B504465039CDB2284600F091
:10096000ADF8012000F0AAF8102000F0A7F8284602
:1009700000F0A4F82009103000F0A0F80E2020406C
:10098000401C00F09BF860B2002806D4002000F064
:10099000BBF8601C44B2002CF8D5B0BDB0B504461D
:1009A000B02000F08BF8012000F088F8102000F053
:1009B00085F80025204600F0A7F8681C45B2002DF8
:1009C000F8D5B12000F07AF8012000F077F8102077
:1009D00000F074F80025204600F096F8681C45B237
:1009E000002DF8D5B22000F069F8012000F066F87B
:1009F000102000F063F80025204600F085F8681C00
:100A000045B2002DF8D5B32000F058F8012000F0D1
:100A100055F8102000F052F80025204600F074F838
:100A2000681C45B2002DF8D5B42000F047F801202D
:100A300000F044F8102000F041F80025204600F0B6
:100A400063F8681C45B2002DF8D5B52000F036F8E3
:100A5000012000F033F8102000F030F80025204687
:100A600000F052F8681C45B2002DF8D5B62000F011
:100A700025F8012000F022F8102000F01FF80025D2
:100A8000204600F041F8681C45B2002DF8D5B7208B
:100A900000F014F8012000F011F8102000F00EF81A
:100AA0000025204600F030F8681C45B2002DF8D52E
:100AB000B0BD80B500F002F880BD0000B0B50123E4
:100AC0001905234A11615B041361224C2568ED0668
:100AD00008D52568ED0605D52568ED0602D52568FB
:100AE000ED06F3D420632068400708D5206840074E
:100AF00005D52068400702D520684007F3D4206A56
:100B000013601160B0BDC04610B501231905104A2D
:100B100011615B0413600F4B1C68E40608D51C6868
:100B2000E40605D51C68E40602D51C68E406F3D487
:100B300018631868400708D51868400705D5186875
:100B4000400702D518684007F3D4186A116010BD39
:100B500090320A4010B1464010B50124A007114957
:100B6000FFF7AAFD1F200104A84882688A432104D8
:100B7000511881600C490C607D21090241616102BC
:100B80000A4A136A0B43136213680B431360084944
:100B90000A68C02313433F2293430B60016821433B
:100BA000016010BD081600008411004028100040AC
:100BB00004E400E01048832282611049CA67104AA9
:100BC000426181220A600266426642640D4B036400
:100BD0008364C3644B660B668B66CB660B670260EF
:100BE0008262C26308480121016001640748084924
:100BF000016001637047C0468480424004804240E7
:100C0000830004008100060090120A40A0320A40CE
:100C10000000530C10B50D4C0D492046FFF794FD14
:100C20000C492046FFF76EFD0B4841680B4A0A400D
:100C30000F324260816812220A432D218A4382606A
:100C4000016801220A43026010BDC04600A0464070
:100C5000101600001216000004B1464000FCFFFF11
:100C600004480021016004480168032291430160A7
:100C70007047C04608030B4000010B4010B5084CFC
:100C800008492046FFF7E2FD07492046FFF766FDC9
:100C9000064801680122114301600548026010BD49
:100CA000004008401C160000201600002850084094
:100CB0000851084080B500F011F8FFF77BFFFFF7FF
:100CC000CFFFFFF7DBFFFFF7A5FFFFF745FF24206E
:100CD000014900220A5480BD24012020B0B50A48F1
:100CE0000A4941600A4A51600A4B59600A4C6160E6
:100CF0000A4D69600A49016011601960216029602C
:100D00001020FFF7F9FCB0BD00080A40030000B155
:100D100000280A400048084000A84640000800405B
:100D20000100002610B516480068C0B2012825D180
:100D3000144C2078401C2070C0B20A2803D3FFF75F
:100D4000D7FB0020207010480178491C0170C9B2FF
:100D5000642906D30D4901220A709B490A700021BB
:100D600001700B480188491C018089B289087D29DE
:100D700004D3002101806D480121017010BDC046DF
:100D80002050084062012020610120201E01202007
:100D900064012020E448102101607047F0B581B063
:100DA00001252802194E716801437160184F386897
:100DB0001849FFF7F2F9044617480088FFF78FFA41
:100DC0001649FFF7EAF91649FFF724FA01462046CB
:100DD000FFF78AF938601349FFF7DFF97D490860AA
:100DE00011480178002908D10178002905D101783E
:100DF000002902D101780029F3D00C480068064987
:100E0000088030682843306001B0F0BD0011004018
:100E10004C0120203333333F18012020A4707D3F44
:100E200000F07F45000030412101202084625540C0
:100E300080B500F07DF980BD80B5FFF745FD80BD30
:100E4000F0B52B4B002018612A4A14682A49002C5F
:100E5000144601D00C68103423601468002C154629
:100E600001D01D461035254C2C6020611568002DE1
:100E7000164601D026461036214D35602861166889
:100E8000002E174601D02F4610371E4E3E603061AF
:100E900018752075287530751B4B18751861146806
:100EA000002C144601D0103634462360174C2061C4
:100EB00020751568002D154601D010331D462C6095
:100EC000134B187518611568002D154601D01034A4
:100ED00025462B600F4C0A2525700F4C2075156890
:100EE000002D01D010331A46146020610C60F0BD53
:100EF0000C00202050012020580120202C00202010
:100F00004C002020EC0020206C0020208C002020B1
:100F1000AC00202000002020CC00202003480178D5
:100F2000002901D0002101707047C0462001202017
:100F3000FFF7C0FE00F0EEF8FFF782FF00F00AF8BE
:100F4000FFF728FFFFF7EAFF00F026F8FFF726FF7C
:100F5000F8E70000F0B581B0012005040D4E3561C1
:100F60007D20040264272046FFF7C6FB7F1E38045D
:100F7000F9D1356032252046FFF7BEFB6D1E2804EF
:100F8000F9D1022000F028F80020FFF707FD01B09A
:100F9000F0BDC04690320A4010B50B4801780029D8
:100FA00010D00024047020462146FFF7D3FC07A28E
:100FB00020462146FFF740FF064802681E202146D2
:100FC000FFF736FF10BDC0461F0120204144433AC1
:100FD0002000000014012020F0B581B004464048F4
:100FE000002606803F4804703F4806803F480121A4
:100FF00001703F4801703F4806703F4801703F480C
:10100000802707803E4801703E48402505803E48C5
:101010000670F0433D4908803D490880AE20FFF747
:1010200048FDD520FFF745FD3846FFF742FDA820D3
:10103000FFF73FFD3F20FFF73CFDD320FFF739FDD1
:101040003046FFF736FD2846FFF733FD8D20FFF7CA
:1010500030FD012C01D0142000E01020FFF729FD05
:101060002020FFF726FD3046FFF723FDA12630465E
:10107000FFF71FFDC8273846FFF71BFDDA20FFF7F3
:1010800018FD1220FFF715FD8120FFF712FD012C3E
:1010900001D0CF2000E09F20FFF70BFDD920FFF704
:1010A00008FD012C01D0F12000E02220FFF701FD16
:1010B000DB20FFF7FEFC2846FFF7FBFCA420FFF730
:1010C000F8FCA620FFF7F5FC3046FFF7F2FC3846A7
:1010D000FFF7EFFCAF20FFF7ECFC01B0F0BDC0461E
:1010E0001A012020100120201C0120206001202056
:1010F000660120200D0120200C012020120120205B
:10110000080020200E012020540120205C01202016
:101110005E01202001200104034A116003490A688E
:1011200002430A607047C04600E100E004580840EE
:10113000F0B589B017460C460546002110460491CB
:10114000FFF7B4F8002803940AD105A82D220270F5
:1011500028462146FFF788FB0120C0074740AD1D08
:1011600002953846FFF7C2F80446FFF7ADF801468E
:101170003846FFF70AF801907F48834E834D844F2D
:10118000BC4203DAAC421DDD049F0DE080492046DD
:10119000FFF7C5F8302102460A4305AB1A704743F2
:1011A000E41BAC4214D901277A492046FFF7B7F86F
:1011B00005A9C919024630320A70691C4143641AF4
:1011C0007D1C08E0B44200DCBAE000256B4F05E06E
:1011D00005A841700225B442684F0CD96E492046DB
:1011E000FFF79DF805A94919024630320A70711CB3
:1011F0004143641A03E005A84019302101706E1CB8
:10120000604884420DD965492046FFF788F80146B9
:10121000303105AA91555B49491C4143641A751C3C
:1012200003E005A830218155AD1C554EB4420BD9C1
:101230005B492046FFF773F80146303105AA515546
:10124000711C4143641A02E005A8302141556E1C0F
:10125000BC420CD953492046FFF761F801463031B2
:1012600005AA9155791C4143641A701C03E005A836
:1012700030218155A81C40498C420ED9A1B2C90821
:10128000494A4A43110D0A46303205AB1A547D22B1
:10129000D2004A43A11A8CB202E005A930220A54B6
:1012A000411C632C10D9A0B28008404A4243500C24
:1012B0000246303205AB5A5464224243A01A84B22B
:1012C0004E1C092C06D812E005AA30235354861C64
:1012D000092C0CD9E0B2CD214143C80A0146303176
:1012E00005AA91550A214143601AC4B202E005A83B
:1012F00030218155761CF5B2303405A844552C496F
:10130000019C2046FEF7C4FF00280DD12949204644
:10131000FEF743FFFEF7EAFF3030B61CF1B205AA34
:101320005054A8182E2141700399F0B205AA8018D4
:10133000049B43700298C0B2FFF7C6FA09B0F0BD33
:1013400010498C420D4F01DD00265CE70C4EB44283
:1013500001DD00256CE7BC4201DD00267AE784420E
:1013600001DD00208AE7642C01DB00219BE70026D9
:101370000A2CAFDABFE7C046E70300000F270000E2
:101380009F8601003F420F007F969800FFE0F50521
:1013900000CA9A3B00E1F5058096980040420F0094
:1013A000A086010010270000C52000007B1400006B
:1013B000CDCCCC3D0000204102E008C8121F08C17E
:1013C000002AFAD1704700007047000000000000BA
:1013D000002001E001C1121F002AFBD1704700006C
:1013E000000000000000002F0000000007000700C0
:1013F00000147F147F1400242A7F2A1200626408DC
:101400001323003649552250000005030000000058
:101410001C224100000041221C000014083E081458
:101420000008083E0808000000A060000008080846
:101430000808000060600000002010080402003E60
:101440005149453E0000427F4000004261514946FB
:10145000002141454B31001814127F1000274545EB
:101460004539003C4A4949300001710905030036FD
:101470004949493600064949291E00003636000010
:101480000000563600000008142241000014141415
:101490001414000041221408000201510906003210
:1014A0004959513E007C1211127C007F494949364E
:1014B000003E41414122007F4141221C007F4949B9
:1014C0004941007F09090901003E4149497A007FED
:1014D0000808087F0000417F4100002040413F0193
:1014E000007F08142241007F40404040007F020CF2
:1014F000027F007F0408107F003E4141413E007F93
:1015000009090906003E4151215E007F091929465B
:101510000046494949310001017F0101003F404037
:10152000403F001F2040201F003F4038403F0063E5
:101530001408146300070870080700615149454307
:1015400000007F41410000552A552A5500004141C5
:101550007F000004020102040040404040400000BF
:1015600001020400002054545478007F4844443859
:1015700000384444442000384444487F00385454E0
:10158000541800087E0901020018A4A4A47C007F5E
:10159000080404780000447D4000004080847D0001
:1015A000007F102844000000417F4000007C0418A8
:1015B0000478007C0804047800384444443800FC73
:1015C000242424180018242418FC007C080404088F
:1015D00000485454542000043F444020003C404004
:1015E000207C001C2040201C003C4030403C00443B
:1015F00028102844001CA0A0A07C004464544C4443
:10160000141414141414000000050000000000005D
:10161000080004000003000007100000080000009C
:1016200002000000FF7C000000000000000000003D
:1016300000000000581600000000202008000000F4
:10164000B8130000601600000800202060020000AF
:10165000D0130000000000000A000000000000009D
:04000005000000C136
:00000001FF
