:020000040000FA
:10000000880420208D010000910100009301000070
:1000100000000000000000000000000000000000E0
:10002000000000000000000000000000950100003A
:10003000000000000000000097010000990100008E
:100040009B010000351600009B0100009B01000091
:10005000D50D00009B0100009B0100009B010000EA
:10006000000000009B0100009B0100000000000058
:10007000000000009B0100009B0100009B010000AC
:10008000B91E00009B0100009B0100009B010000C5
:100090009B0100009B010000000000000000000028
:1000A0009B0100009B010000000000000000000018
:1000B0009B010000000000009B0100009B0100006C
:1000C00000F002F800F052F812A030C808382418E6
:1000D0002D18AC4201D100F049F80FCCA246AB4636
:1000E0000CA730CF2D1B083F3F197C427F1E544484
:1000F0002D090426F441641EAC4201D300F036F809
:100100000126334200D0FB1A3343984754465D46DC
:10011000DFE70000542F0000742F000000000000F3
:10012000103A02D378C878C1FAD8520701D330C840
:1001300030C101D504680C60704700000000000069
:100140007047000000000000002300240025002666
:10015000103A01D378C1FBD8520700D330C100D583
:100160000B6070471FB51FBD10B510BD00F0B0FD8E
:100170001146FFF7F7FF02F031F800F0C8FD03B4B5
:10018000FFF7F2FF03BC00F01DFE00000648004729
:10019000FEE7FEE7FEE7FEE7FEE7FEE70348044969
:1001A000024A044B70470000C10000008803202071
:1001B0008804202088032020704770477047000083
:1001C0000246C80FC00781434B0030B54B405B006F
:1001D0009B0D20D01923DB06C91801231B0599426A
:1001E00020DB0324A40704251346AB400BD3002BCC
:1001F00004D1EB0613409B00E34204D401246407BE
:10020000002312195941FF231B0599420BD2C90043
:100210000143500F09E0CB0204D501430803024318
:1002200005D0054830BDFF21C905084330BD08464B
:1002300007210905884330BD0000C07FF0B50C469A
:10024000871A9C410D46861A9D4103D2C01BA141CD
:10025000D21963410D0D1F0DC94EEC1BAE435CD08E
:100260007F057F0D0026002F51D02D05AC46A943F8
:10027000DD020123ED0A1B051D4320231B1B24D493
:100280001746E740381871412F46E740CC199D408A
:100290002818314661410C0D27D161449A4013D58D
:1002A0000023401C594152000ED140084000012259
:1002B0004B005205D34207D305204007C14201D568
:1002C000B04900E0B0493046F0BD6B00002A00D0D4
:1002D00001229A181F23203C1B1B01D5002302E09A
:1002E000E540281871410C0DD7D0012424050919C7
:1002F000C407CD0740084908E40F28436144002C97
:10030000D5D00024401C61419A40D0D1CDE76A0588
:10031000520DD9D1C90FC907D5E79C4D4E00002811
:1003200001D0012400E0002434195F00002A01D02C
:10033000012600E00026BE19954FAC420CD8AE4213
:100340000AD8B44206D001256D05EC42BCD0104657
:100350001946F0BD9942FCD000203946F0BDF0B5F9
:100360001FB40C460F46811A9F412546861A9D41AF
:1003700006D20125ED076F40401ABC4152187B415F
:10038000210D1E0D8D1BAC467D4D8D437ED0750518
:100390006D0D7CD00D05AE46AC431B031B0B794D98
:1003A00052429D41202366469B1B14D31746F740BB
:1003B000381800260090744160462F460741E41922
:1003C00000989D402818664116D4714671189A40CD
:1003D00025D5012320E093182A466A415200002BBC
:1003E00000D0521C1E23203E9B1B002B61DD35419B
:1003F000EE1728186641E8D5001876415B1C9A4034
:1004000000D3401C4B05F3181524E34010D3002BF8
:1004100052D071467118D30FC01802D3491C05B0D1
:10042000F0BD0123DB079A42F9D140084000F6E70E
:1004300001225205B21801D1002853D00123CC0A61
:10044000DB029943891E002A08D1020C03D0020C5A
:100450000004103902E00246002020390023550B29
:1004600005D112020823550B01D152010D23550C61
:1004700001D112011B1DD50C01D192009B1C150D41
:1004800001D152005B1C2025EE1A01E02CE022E095
:100490000546F54015439840CA1AE1076918130547
:1004A000C918002ABBDA032040070818C10FC90782
:1004B0000FE071466118B2E7F10740080843711078
:1004C00071444A000CD001235B059A42A7D2C90FA0
:1004D000C9070020A3E74905490D26D1002001E006
:1004E0000028F4D100219AE7284D6600002801D0A9
:1004F000012100E0002171185F00002A01D00126CF
:1005000000E00026BE19224FA94210D8AE420ED8F4
:10051000B14208D001256D05E94206D01946A8026E
:10052000414010467BE79C4201D0214677E70020FE
:10053000394674E710B50C465C4005D50124E40744
:100540006340FFF70CFF10BDFFF778FE10BD30B41D
:100550000C465C4004D50124E407634030BC6DE6E2
:1005600030BCFCE670B50124E40761400D465D40F7
:1005700002D4FFF763FE70BD6340FFF7F0FE70BD6D
:10058000FF0700000000F0FF0000F07F0000E0FF28
:100590000000F87FF0B5F94D0C091E092C402E40E3
:1005A0002F468BB0A7437DD0B543FCD0002E7AD028
:1005B000002CFCD00D465D40ED0F2543AC1BFF2504
:1005C000AD0464190894C502440DC9022143500DBD
:1005D000DC0204430120C00701430443D20201911D
:1005E000200C110C00958C46010423468B430A9184
:1005F00061460904E24D8A430991010A7D44491983
:100600008039097805464D4301266D18F605751B9E
:100610006943C90C640B891C4C436418B5012C1B3D
:10062000250C2E04B4434C434D43210C6918890911
:100630000591009DE90701D00121C90704912C46CD
:1006400001996708CD072F434C08059DE10B4D43E9
:100650002D0C29466646754302950D4645432E46A8
:10066000029D7D1BB44100950D465D4301942C0C09
:100670002F040D465543AE462D0C3D430295039481
:100680007546049C2D04641B049406D2029C039DB1
:10069000641C002675410395029401AC70CC009F48
:1006A0007D1B01E03EE162E1B44109040095079140
:1006B00001940599A4086143090C0C464443650B59
:1006C000E7040C4666467443A646640B3C43039518
:1006D00002947446049DE4042C1B049406D2029CEC
:1006E000039D641C002675410395029401AC70CCF7
:1006F000009F7D1BB44101940C465C430095650F3F
:10070000E7000C465443A646640F3C43039502940D
:100710007446049DE4002C1B049406D2029C039DA5
:10072000641C002675410395029401AC70CC009FB7
:100730007D1BB441AE09AF06049DC900AD092F432E
:10074000049DA406AD060495079D344369180791DE
:10075000059DE10B4D432D0C2946664675430295D8
:100760000D4645432E46029D7D1BB44100950D4626
:100770005D4301942C0C2F040D465543AE462D0CC1
:100780003D43029503947546049C2D04641B049418
:1007900006D2029C039D641C0026754103950294B9
:1007A00001AC70CC009F7D1BB44101948C05069474
:1007B000079C890A611800950791019C0599A40876
:1007C0006143090C0D464543680BEF040D46644632
:1007D00065436C0B3C43049FED047D1BAC4602D289
:1007E0000025641C6841009E019D371B8541084619
:1007F000584301950C46460FC5005443600F2843EB
:100800006546E4002C1B02D20025401C6E41019D70
:100810003F1AB5412846BD09800628438446A009F1
:10082000BF064E020699A40676180743079D0020CE
:1008300068410A99079019430020099B009060467F
:10084000FF1913434041E20F64003A43A4460446B3
:10085000D71A8C41A04203D90120009020463A4685
:10086000C70F941840416246D20F22436446640089
:100870000494009CBE466400D71AA446044602971E
:100880008C417746002F01D1A04204D96046401C1C
:100890008446029A2046C40FA64694184041049A02
:1008A0000546D20F224364466400D31A8D41714637
:1008B000002901D1A84202D928461A46641C1043D7
:1008C0000122002800D0164361020020079B8919ED
:1008D00004465C410223002C02DB491813466441A4
:1008E000089DCE0A2D145D194B056705E10A2C05FC
:1008F0000D1908993E43C9076940002B08D0934061
:1009000006D30022761C5141002B01D176087600D7
:100910001C4A002D43DB154241D0AA433FD030464C
:100920000BB0F0BD06180D464D41174C7642AC4158
:100930001AD395181C465C41134A6D42A24113D349
:10094000012252054C00D4420AD15C00D4420BD0A3
:100950004B4002D592021143E2E749004908DFE724
:100960005940C90FC90718E000200849D8E70548D1
:1009700001420DD10342F7D0F2E700000000FF076B
:100980000C2700000000F07F0000E0FF0000F87F6F
:10099000114859400143C01241400020C0E70123E3
:1009A000089A9B069A4205DC032252078918C90F50
:1009B000C907B5E7052252078918074A1143D21221
:1009C0005140ADE770B515461C4602460B46284619
:1009D0002146FFF7DFFD70BDFFFFFF7F0121C90545
:1009E0000123411842001B06D3185B0E0AD0C11028
:1009F0000722D206891840075242D14201D552003F
:100A000089187047090208D50146002A03D0C10F92
:100A1000C9070020704710467047420202D00020EC
:100A200002497047072109050143F4E70000F87FF8
:100A3000F0B5FF252D04C609C209FF2704462E4044
:100A40000137CB093E4348402A402B400746002A45
:100A50006BD0002B69D0AA4267D0AB4265D000288A
:100A600000DA32460125ED0529432C430902200214
:100A7000090AD21A4B0C7F24E31A434C000A7C4427
:100A8000E35C7D242404121914145B00A21888422C
:100A900001D3521C00E0400049420C465C43241143
:100AA0005C43DB016415E318040A5C43C502200DB6
:100AB0000C4644436419250A5D432303EC0C0D46A0
:100AC000654300030019EB184C42A34201D35B18A5
:100AD000401CD4052018002B07D05B00C91804D394
:100AE000401C002901D1400840003F2189048A426E
:100AF00009D3002A08DC1106090F04D00321490795
:100B00004018C00FC007F0BD01224100120689182D
:100B10007F2252069142F6D205214907C84201D5EB
:100B20009010F0BDFF20C005F0BD002F00DA324666
:100B30001648AA4207D2AB4205D21902090E17D0B5
:100B4000F80FC007F0BDFF2563002D06AB42F9D8B2
:100B50004900A942F6D8AB4201D1A942F2D0A9423C
:100B600001D1002101E061004908D0050843F0BD32
:100B70001102090EFBD0FF200243D005F0BD0A464A
:100B80000146104654E700000A2300000000C07F21
:100B900010B501469E240002CA15A307002A02D000
:100BA0001843002A04DBA21A002A0CDDD04010BD35
:100BB0001206120E01D140004008A21A03D4D04000
:100BC00040420028F3DDFF2248001206904201D97E
:100BD000002010BDC817C043584010BD0102C21507
:100BE00004D00123DB071943002A0ADB9E239A1A4B
:100BF00002D40846D0407047FF22410012069142BD
:100C000001D900207047C017C04370471F22030C52
:100C100002D10F2200041CD0030E01D10002083AB9
:100C2000030F01D10001121F830F01D18000921E1A
:100C3000002801DB4000521ED20551180212511843
:100C40001922904004D3491C002801D149084900C9
:100C500008467047C10FC90700D0404201229207E1
:100C60001143D3E701218907D0E7000010B5FF2326
:100C70001B0644009C421DD84C009C421AD80346D7
:100C8000124A0B4307D4401A02D3EFF3008010BD81
:100C9000EFF3008010BD081A03D3EFF300809043F8
:100CA00005E0EFF3008001219043C907084380F37A
:100CB000008810BD0D231B041A4204D011460020E9
:100CC00000F02DF810BD00F041F810BD00000090BC
:100CD000754600F043F8AE46050069465346C00825
:100CE000C000854618B020B5FFF758FA60BCB6467C
:100CF00000260027C0C5C0C5C0C5C0C5C0C5C0C589
:100D0000C0C5C0C5403D490849008D46704710B573
:100D10000446C046C0462046FFF731FA10BDC8025F
:100D200012D54803400F002804D0C803C043012156
:100D300088407047EFF30080000100090321090794
:100D4000084380F3008870470020704710B50248C0
:100D500000F008F810BD00000000C07F0048704798
:100D60004000202010B50C461107090F092904D0B6
:100D70000A290AD008290CD104E011460820FFF7FF
:100D8000CEFF06E0510606D501E0510601D501204F
:100D9000C007214610BDD10607D501010909CC08BD
:100DA0004907000E0006044309E0410F20024907ED
:100DB000000A0143200E00061D22D14101430846CE
:100DC000E7E7000001491820ABBEFEE7260002005D
:100DD0007047000004480068C0B20A2802D10348E6
:100DE000012101707047C04620100040D80120202A
:100DF00070470000C049884206D0C049884207D0E9
:100E0000BF49884207D070474B48012101607047B5
:100E10000120800601E00120C006484908607047B3
:100E2000704770477047000070B50446007F012886
:100E30005CD1B148844218D0B04884421ED0B0483A
:100E4000844225D0B348844230D0AE48844242D058
:100E5000AD48844242D0AD48844242D0AC4884423E
:100E600043D13548012101603FE033480121016051
:100E70003F200106384801F081FA36E00120800663
:100E80002E4908603F200106324801F077FA2CE035
:100E90000120C006294908602E480025294601F096
:100EA0006DFA2D48294601F069FA1EE02248012119
:100EB0000160234E3068234901F0CEFD05462249EA
:100EC00001F0B4FD002800D0204D356020482946AF
:100ED00001F02EFA09E00120800604E00120C0069E
:100EE00001E00120800515490860207F022808D113
:100EF0008148844206D0814884420DD08048844293
:100F000014D070BD0C48103801210160BF200106CB
:100F1000114801F033FA70BD0120800607490861CD
:100F2000BF2001060B4801F029FA70BD0120C00660
:100F30000249086170BDC046A0120A4090320A40C2
:100F400054032020000020410000B4420000B4C23D
:100F5000580320204003202048032020F0B581B012
:100F600064480468002C00D1C2E019200001009000
:100F7000614E694D61490CE02046FFF755FF204660
:100F8000FFF74FFF002020752469002C5B4900D13A
:100F9000AEE0B44216D08C4217D059498C4216D0DC
:100FA00058498C4215D058498C4214D057498C422C
:100FB00013D057498C4212D0564884421AD10B2084
:100FC00054490DE0142031460AE0162008E01720AD
:100FD00006E0072004E0082002E0092000E00A20E3
:100FE0002A680B78FD271F40C24002200240D21918
:100FF00042400A702078FE2202408107C80F801804
:101000002070002906D4227D032A01D16268A261E2
:1010100000226260032203461340032B04D13F4B9E
:101020001B786768FB186360237D042B0BD13B485A
:101030000078A1680818A060C8289DD860681528A5
:10104000A2D302209FE70027A760032B9CD82E463F
:101050007B441B795B009F44011808102777002907
:101060003546254E90D501208DE7002913D4042064
:101070002075207F401C20770AE0A189002924D018
:10108000264A1278891AA18125E0002911D42775F2
:101090003546194E78E76068214988423546164E34
:1010A00000D271E70098A08122752046FFF7A0FECC
:1010B0006AE76068152835460F4E00D264E70220C3
:1010C00020752046FFF7ACFE5EE70098A081204621
:1010D000FFF790FE207835468007074E00D553E78E
:1010E0002046FFF79FFE2046FFF79BFE27754BE744
:1010F00001B0F0BD3C032020A4002020C40020202B
:10110000E40020200401202024012020440120208C
:10111000640120208401202080330A400000202028
:1011200021030000B0B50A78032313400B4A84580A
:101130000B4D2540EB18A92424061B1983500722C8
:1011400012064B6813401124240205599543EA18EE
:101150000251001949780161B0BDC046080800007D
:10116000FCFFFF00811E091F00BFFCD2704770B555
:101170000A780C231A400124240305196E689E4343
:10118000B2186A60497807221140035993435918ED
:10119000015170BDB0B51122120283580C4C1C4095
:1011A0000B894D881D438B792B430A4D1D406319D4
:1011B0008350CB798C881C43097821435D239B00A5
:1011C0001940801842689A4351184160B0BDC0462A
:1011D00080CCFFFF7F33000010B50122120383187B
:1011E0000C785C604978815010BD0000F0B585B086
:1011F00001221402344B19680494A1431960950329
:1012000062490E682E4208D10E682E4205D10E6842
:101210002E4202D10E682E42F3D0457E15409E69C3
:10122000964375199D612025455D03263540DF698C
:10123000B7437D19DD61254D2E6805272F60476A6C
:101240003C681C627C685C62072434402C60C46982
:101250007F252D02DE69AE436406640C3419DC611F
:1012600050C805680095476885680195C56802956E
:1012700003929A69164D15402207120B3403A4B24B
:10128000A2183A43009C2407240D1443019A1443E6
:10129000029A1443007C20430E4A02405019986180
:1012A0001868049A10431860039840020A680242C2
:1012B00008D10A68024205D10A68024202D10A68CE
:1012C0000242F3D005B0F0BD08010B4000134040CE
:1012D0008D00F0FF72FF0F00F0B5184B1D46083D62
:1012E0002E680124A6432E600326360330401F6873
:1012F000B743381818601868FF26B043C9B24018C1
:1013000018602868204328601868002A11D0210737
:101310000843186020021D490A68024208D10A6881
:10132000024205D10A68024202D10A680242F3D0A1
:10133000F0BD210788431860F0BDC04610010B4086
:1013400010B51149886001225305104804681C42F9
:1013500008D104681C4205D104681C4202D104680B
:101360001C42F3D012040B6813430B600168C906DA
:1013700008D40168C90605D40168C90602D4016809
:10138000C906F3D510BDC04604010B4004020B4052
:10139000F0B583B00B794A79002A2AD01A4A1B4C3F
:1013A0001B4F21252D01202B00D0703586180219E6
:1013B0000092C219002B00D188251768464C27409F
:1013C0007F191760576827407D1955603568804F31
:1013D0003D40356075683D4075600025009C256086
:1013E00065608F24E44315692540156155692540E2
:1013F000556101AA13718B795371096801911146E6
:1014000000F008F803B0F0BD3818000058180000CC
:1014100078180000F0B584B06B4A82180292734BC2
:10142000C618784BC21800922A4BC4180A79019149
:101430000D68294F202A03920AD0254BC018002A94
:1014400017D16B1E029A536023683B40882517E032
:10145000681E029A506020683840204B1843206074
:101460006068384018436060012045071C4F1046F3
:1014700008E06B08029A536023683B400525ED01A4
:101480002B432360009903683B402B430360306883
:101490004F4B184030607068184070600020086042
:1014A00048608F20C0432369034023616369034080
:1014B00063610198407903990843BD210140106898
:1014C000084B0340C818801C106004B0F0BDC04633
:1014D000741800007018000024493E000104000048
:1014E000FFFFFFCF4000FFCF70B5374A82184B682F
:1014F00053603E4BC3180878222857D8840001A5B2
:101500002C59A746A3150000AD150000A315000037
:10151000AD150000AD150000AD150000AD150000C3
:10152000AD150000AD150000AD150000AD150000B3
:10153000AD150000AD150000AD150000AD150000A3
:10154000AD15000091150000AD15000091150000CB
:10155000AD150000AD150000AD150000AD15000083
:10156000AD150000AD150000AD150000AD15000073
:10157000AD150000AD150000AD150000AD15000063
:10158000AD15000091150000AD150000911500008B
:10159000032424071568A543012464072C1914604B
:1015A00004E0032424071568A54315600C8AD46061
:1015B000CC68064D25401C68054E264074191C60F9
:1015C000097A0143116070BD0418000077770200AA
:1015D0008888FDFF10B507239B04194092008018EE
:1015E000024A84589C436118815010BD3018000095
:1015F00010B5029CA400001911431943014A8150FF
:1016000010BDC0465018000092008018014A815059
:101610007047C0461018000010B50122120383184D
:101620000C789C604B7883508978014A815010BDBA
:101630000C110000F0B581B0304F38461838006802
:10164000800758D500200090C0432D4D103D2968DB
:10165000C9062C4A25D51168402701260F400346AC
:1016600000D03346002F344600D00446264949783E
:10167000002900D02346254C626B9A186263002F24
:1016800001D1009AD6431D4F6671002900D07642E1
:10169000E16A7118E1621A4B196810220A431A6054
:1016A000184A2968890622D51168802501240D4031
:1016B000214600D00146002D00D02046124A16785F
:1016C000002E00D00146114B186B08181863002D2E
:1016D00001D00098C4431C71002E00D06442986A67
:1016E00020189862064A106820210143116038686A
:1016F00002210143396001B0F0BDC046581140409D
:1017000048300A4080330A4074032020040020201F
:10171000B0B5144605467E2800D9491C5039C8B2D8
:1017200000F020F97E2D00D900252809103000F0A6
:1017300019F90E202840401C00F014F9203CE0B2BA
:10174000062444432C4D285D00F032F92C196078B2
:1017500000F02EF9A07800F02BF9E07800F028F9DD
:10176000207900F025F9607900F022F9B0BDC0467B
:10177000F0B583B001921478002C3AD006460027C9
:1017800029E0F0B20009103000F0ECF80E203040F3
:10179000401C00F0E7F8203CE0B206244443164D1C
:1017A000285D00F005F92C19607800F001F9A078A7
:1017B00000F0FEF8E07800F0FBF8207900F0F8F88F
:1017C000607900F0F5F8B61D7F1CF8B201990C5C49
:1017D000002C02990DD0F5B27E2D00D9491C029142
:1017E00008465038C0B200F0BDF87E2DC9D9002699
:1017F000C7E703B0F0BDC046CC2D0000B0B504462D
:101800005039CDB2284600F0ADF8012000F0AAF81A
:10181000102000F0A7F8284600F0A4F820091030A6
:1018200000F0A0F80E202040401C00F09BF860B2B1
:10183000002806D4002000F0BBF8601C44B2002C45
:10184000F8D5B0BDB0B50446B02000F08BF801204B
:1018500000F088F8102000F085F80025204600F000
:10186000A7F8681C45B2002DF8D5B12000F07AF831
:10187000012000F077F8102000F074F800252046D1
:1018800000F096F8681C45B2002DF8D5B22000F0A3
:1018900069F8012000F066F8102000F063F80025D8
:1018A000204600F085F8681C45B2002DF8D5B3201D
:1018B00000F058F8012000F055F8102000F052F820
:1018C0000025204600F074F8681C45B2002DF8D5BC
:1018D000B42000F047F8012000F044F8102000F098
:1018E00041F80025204600F063F8681C45B2002D41
:1018F000F8D5B52000F036F8012000F033F81020BC
:1019000000F030F80025204600F052F8681C45B27F
:10191000002DF8D5B62000F025F8012000F022F8BF
:10192000102000F01FF80025204600F041F8681C48
:1019300045B2002DF8D5B72000F014F8012000F0D2
:1019400011F8102000F00EF80025204600F030F8C5
:10195000681C45B2002DF8D5B0BD80B500F002F886
:1019600080BD0000B0B501231905234A11615B0455
:101970001361224C2568ED0608D52568ED0605D5CE
:101980002568ED0602D52568ED06F3D420632068AE
:10199000400708D52068400705D52068400702D5D4
:1019A00020684007F3D4206A13601160B0BDC046C0
:1019B00010B501231905104A11615B0413600F4B28
:1019C0001C68E40608D51C68E40605D51C68E40616
:1019D00002D51C68E406F3D418631868400708D5DC
:1019E0001868400705D51868400702D518684007F1
:1019F000F3D4186A116010BD90320A4010B146400D
:101A000010B50124A0071149FFF78CFB1F2001042A
:101A10000F4882688A432104511881600D490C6087
:101A20000D49416161020D4A136A0B431362136849
:101A30000B4313600A490A68C02313433F229343B0
:101A40000B6001682143016010BDC046F42F000007
:101A50000011004084110040409C0000281000400C
:101A600004E400E0F0B5314A00209061D0618725A0
:101A7000D56601218B032E480360882313612D4B0B
:101A800008241C608524946280261E605461102402
:101A90001C60294C2565CD051D608425D560042575
:101AA0001D60264D6E1C566016604E065768374303
:101AB00057601768374317608326A6611667AE1C08
:101AC000666117460C3F81263E60E66626666666BE
:101AD00066641B4F2764A764E76497655765D765FD
:101AE000176657662660A662E663D564556315657A
:101AF00095631A46303ACC0614601A46403A116093
:101B0000611C1960014630390E4A0A6002600F20DC
:101B100000020D490A6802430A600C48016A30223B
:101B200011430162016811430160F0BD1080424021
:101B3000D0320A40D0120A40848042408100040022
:101B4000810006000000530C90330A4028300A4000
:101B500010B511481149FFF70AFB03225102104842
:101B600003680B43036001210B0204681C430460FB
:101B7000002343614262826B07239A4382631A0205
:101B8000836B93438363826A042313438362826A71
:101B90000A43826210BDC04600200F40FC2F0000A7
:101BA00000320F40F0B583B02C4C2D492046FFF792
:101BB00033FD2C492046FFF7EBFB0025009520461E
:101BC00029462A462B46FFF713FD204629462A467A
:101BD000FFF700FD204629462A46FFF715FD01269E
:101BE00002960096204629462A462B46FFF700FD1E
:101BF000204629463246FFF7EDFC2046294632466C
:101C0000FFF702FD022600961027204629463A4695
:101C10002B46FFF7EDFC204629463246FFF7DAFC5B
:101C2000204629463246FFF7EFFC03260096204661
:101C300029463A462B46FFF7DBFC2046294632462A
:101C4000FFF7C8FC204629463246FFF7DDFC064870
:101C5000029981600F21016003B0F0BD0000864051
:101C6000FE2F0000043000000011864070B582B0E5
:101C7000194C1A492046FFF7CFFC19492046FFF7B7
:101C8000C9FB00250095204629462A462B46FFF72A
:101C9000AFFC204629462A46FFF79CFC20462946F1
:101CA0002A46FFF7B1FC01260096204629462A461F
:101CB0002B46FFF79DFC204629463246FFF78AFC5B
:101CC000204629463246FFF79FFC064886600321DE
:101CD000016002B070BDC04600A086400C3000001C
:101CE0001030000000B1864010B50D4C0D49204663
:101CF000FFF772FA0C492046FFF74CFA0B4841688F
:101D00000B4A0A4027324260816812220A432D2181
:101D10008A438260016801220A43026010BDC04606
:101D200000A04640183000001A30000004B14640C0
:101D300000FCFFFFF0B581B01F4800210091016059
:101D40000F2528021D4E3168814301246702C819FE
:101D500030600320C143321F13680B40136000033F
:101D600014212246FFF7B8FA1548FFF73FFA316809
:101D7000102001432022914331602903726B8A4372
:101D80000921090351187163210332680A43326043
:101D9000B16B0143B163706B384370630098FFF718
:101DA000CFFAFF20000207490A688243A0031018F7
:101DB000086001B0F0BDC04608030B4004010B40B1
:101DC0002430000000E400E010B5084C084920462B
:101DD000FFF722FC07492046FFF786FB064801680B
:101DE0000122114301600548026010BD0040084017
:101DF0004C30000050300000285008400851084086
:101E000080B500F021F8FFF72DFEFFF793FFFFF7F5
:101E1000C9FEFFF72BFFFFF7D7FFFFF799FEFFF78C
:101E200063FFFFF7EDFD7420044900220A54B82037
:101E300003490A54242003490A5480BD98022020F3
:101E4000DC01202010032020F0B581B0104811499A
:101E5000416011484160114B5960114C6160114D56
:101E60006960114E7160114F7960114841601149EC
:101E7000074A1160084A11601960216029603160C9
:101E8000396001601020FFF76DF901B0F0BDC04668
:101E900000080A40030000B100280A4000088640FC
:101EA00000A886400048084000280F4000A846408F
:101EB000000800400100002610B51C480068C0B2B0
:101EC000012831D11A480178491C0170C9B205298D
:101ED00004D3754901220A7000210170154C207845
:101EE000401C2070C0B20A2803D3FFF737F8002047
:101EF000207011480178491C0170C9B2642906D3C9
:101F00000E4901220A70F6490A70002101700C483E
:101F10000188491C018089B289087D2904D30021E8
:101F20000180AD480121017010BDC046205008401D
:101F3000720320206E0320206D032020D401202076
:101F4000700320206848102101607047F0B581B00F
:101F5000012528021F4E7168014371601E4F3868C9
:101F60001E4900F013FE04461D480088FEF77AFE65
:101F70001C4900F00BFE1C49FEF75AFD01462046A5
:101F800000F06AFD3860194900F000FED74908608A
:101F900017490A78002A08D10A78002A05D10A7858
:101FA000002A02D10A78002AF3D0124909680C4AA3
:101FB00011803168294331600F4900F037FD002856
:101FC00006D17D20C0003F210906012200F070F8F3
:101FD00001B0F0BD00110040380320203333333FFF
:101FE000B0012020A4707D3F00F07F45EE7C33419E
:101FF000D8012020846255400000284110B5864851
:102000000021064A0123837001803F242406DB0659
:10201000C26003614161846110BDC04600000A4096
:10202000F0B583B0044620480178002939D0002556
:102030000570A078012804D16560A57025722F462F
:1020400000E0E7882088874203D10120207203B096
:10205000F0BDA088401CA08080B20190FEF702FE77
:10206000029066693046FEF7FDFD0146A06900F06A
:102070008DFD029900F0E5FC002809D00198864208
:102080000CD995204001E16822690A5003B0F0BDE7
:10209000E0682169054A815003B0F0BDA580781C35
:1020A000E08003B0F0BDC046D701202090120000B0
:1020B00010B5594CA1610121A1702280052100F0C9
:1020C000AFFB606110BDC04680B500F065FA80BD11
:1020D00080B5FFF74DFB80BD024802210160024838
:1020E0000160704780E200E000E100E0F0B52B4BBA
:1020F000002018612A4A14682A49002C144601D08D
:102100000C68103423601468002C154601D01D465D
:102110001035254C2C6020611568002D164601D025
:1021200026461036214D356028611668002E174668
:1021300001D02F4610371E4E3E6030611875207555
:10214000287530751B4B187518611468002C1446DF
:1021500001D0103634462360174C20612075156875
:10216000002D154601D010331D462C60134B1875F9
:1021700018611568002D154601D0103425462B60D6
:102180000F4C0A2525700F4C20751568002D01D0C5
:1021900010331A46146020610C60F0BDA4002020AA
:1021A0003C03202064032020C4002020E4002020E1
:1021B000840120200401202024012020440120202B
:1021C000000020206401202003480178002901D06C
:1021D000002101707047C046D6012020FFF710FE95
:1021E00000F0CCF9FFF782FF00F018F8FFF7AAFE25
:1021F000FFF772FF00F086F800F008F9FFF7FEFE27
:10220000054CFFF7E1FF00F02BF8FFF79FFE20469B
:10221000FFF706FFF5E7C046B4012020F0B581B016
:10222000012005040C4E356164270C4C2046FEF756
:1022300099FF7F1E3804F9D1356032252046FEF71C
:1022400091FF6D1E2804F9D1022000F0F9F800205A
:10225000FFF7F8FA01B0F0BD90320A408038010073
:10226000F0B581B01E480178002936D000240470F2
:1022700020462146FFF7C2FA1AA220462146FFF760
:1022800027FF1A4802681E202146FFF71DFF01267E
:1022900020463146FFF7B2FA15A220463146FFF735
:1022A00017FF154F786BFEF7D5FC0246222528460E
:1022B0003146FFF709FF022620463146FFF79EFA16
:1022C0000EA220463146FFF703FF386BFEF7C2FC33
:1022D000024628463146FFF7F7FE01B0F0BDC04682
:1022E000D50120204144433A20000000AC012020C9
:1022F00052696768743A2000040020204C656674B7
:10230000203A200006480021416001220280054851
:10231000416005490180054801681143016070472B
:1023200040032020480320200203000004188640B8
:10233000B0B5044681600846FEF750FB00250C4B03
:102340002A46FEF727F90B4B2A46FEF7F3F8FDF76E
:1023500037FF60602478032C09D8074900F016FC89
:10236000FEF73CFC014635482246FFF74DF9B0BD6B
:102370000000224000002C4000002041F0B581B058
:102380000D46044641600021284600F05AFB002813
:102390001DD00021284600F03EFB002830D12278D5
:1023A000184E032A03D800213046FFF72DF9647830
:1023B000032C25D80120C00785431349284600F087
:1023C000E5FBFEF70BFC01463046224616E0277877
:1023D0000C4E032F0DD80120C00785430A4928461B
:1023E00000F0D4FBFEF7FAFB014630463A46FFF711
:1023F0000BF96278032A03D800213046FFF704F96D
:1024000001B0F0BD0000864000007A4480B5084865
:10241000002101220270074B436081600648016879
:102420001143016005488C21FFF7EEF880BDC046DE
:10243000580320200000604104B8864000A0864078
:10244000F0B581B004464048002606803F4804703D
:102450003F4806803F48012101703F4801703F48D6
:1024600006703F4801703F48802707803E48017052
:102470003E48402505803E480670F0433D490880AF
:102480003D490880AE20FFF768FAD520FFF765FACE
:102490003846FFF762FAA820FFF75FFA3F20FFF700
:1024A0005CFAD320FFF759FA3046FFF756FA284670
:1024B000FFF753FA8D20FFF750FA012C01D01420BA
:1024C00000E01020FFF749FA2020FFF746FA3046D7
:1024D000FFF743FAA1263046FFF73FFAC8273846F0
:1024E000FFF73BFADA20FFF738FA1220FFF735FA48
:1024F0008120FFF732FA012C01D0CF2000E09F208D
:10250000FFF72BFAD920FFF728FA012C01D0F12090
:1025100000E02220FFF721FADB20FFF71EFA284611
:10252000FFF71BFAA420FFF718FAA620FFF715FA09
:102530003046FFF712FA3846FFF70FFAAF20FFF7E1
:102540000CFA01B0F0BDC046D0012020A801202027
:10255000D20120206C03202084032020A50120200C
:10256000A4012020AA012020A0002020A6012020D4
:1025700050032020680320206A032020012001044A
:10258000034A116003490A6802430A607047C04663
:1025900000E100E004580840F0B589B017460C4649
:1025A000054600211046049100F035FA00280394F6
:1025B0000AD105A82D22027028462146FFF7A8F867
:1025C0000120C0074740AD1D02953846FEF7E0FAEE
:1025D0000446FEF73FFB0146384600F02FFB019012
:1025E0007F48834E834D844FBC4203DAAC421DDDED
:1025F000049F0DE08049204600F012F93021024688
:102600000A4305AB1A704743E41BAC4214D90127B7
:102610007A49204600F004F905A9C919024630326A
:102620000A70691C4143641A7D1C08E0B44200DC56
:10263000BAE000256B4F05E005A841700225B442C1
:10264000684F0CD96E49204600F0EAF805A94919EF
:10265000024630320A70711C4143641A03E005A837
:102660004019302101706E1C604884420DD96549C3
:10267000204600F0D5F80146303105AA91555B4956
:10268000491C4143641A751C03E005A8302181559B
:10269000AD1C554EB4420BD95B49204600F0C0F842
:1026A0000146303105AA5155711C4143641A02E0BC
:1026B00005A8302141556E1CBC420CD95349204617
:1026C00000F0AEF80146303105AA9155791C41431E
:1026D000641A701C03E005A830218155A81C4049EC
:1026E0008C420ED9A1B2C908494A4A43110D0A4683
:1026F000303205AB1A547D22D2004A43A11A8CB263
:1027000002E005A930220A54411C632C10D9A0B262
:102710008008404A4243500C0246303205AB5A54BE
:1027200064224243A01A84B24E1C092C06D812E03F
:1027300005AA30235354861C092C0CD9E0B2CD21B4
:102740004143C80A0146303105AA91550A21414347
:10275000601AC4B202E005A830218155761CF5B29A
:10276000303405A844552C49019C204600F069F9F5
:1027700000280DD12949204600F008FAFEF708FA92
:102780003030B61CF1B205AA5054A8182E21417061
:102790000399F0B205AA8018049B43700298C0B256
:1027A000FEF7E6FF09B0F0BD10498C420D4F01DD88
:1027B00000265CE70C4EB44201DD00256CE7BC420C
:1027C00001DD00267AE7844201DD00208AE7642CDF
:1027D00001DB00219BE700260A2CAFDABFE7C046E9
:1027E000E70300000F2700009F8601003F420F0013
:1027F0007F969800FFE0F50500CA9A3B00E1F505D9
:102800008096980040420F00A0860100102700002B
:10281000C52000007B140000CDCCCC3D0000204141
:1028200043088B421AD3002203098B4279D3030A4F
:102830008B425ED3030B8B4242D3030C8B4227D3D4
:102840000902FF2212BA030C8B4202D312120902B0
:1028500003D0030B8B4233D31AE0D3E0411A8041FB
:10286000401C704703460B4371D443088B42F5D399
:10287000002203098B4254D3030A8B4239D3030B42
:102880008B421DD3030C8B4202D394466EE0090A9F
:10289000C30B8B4201D3CB03C01A5241830B8B4233
:1028A00001D38B03C01A5241430B8B4201D34B031C
:1028B000C01A5241030B8B4201D30B03C01A524181
:1028C000C30A8B4201D3CB02C01A5241830A8B4206
:1028D00001D38B02C01A5241430A8B4201D34B02EF
:1028E000C01A5241030A8B4201D30B02C01A524153
:1028F000CDD2C3098B4201D3CB01C01A5241830907
:102900008B4201D38B01C01A524143098B4201D340
:102910004B01C01A524103098B4201D30B01C01A6B
:102920005241C3088B4201D3CB00C01A52418308E5
:102930008B4201D38B00C01A524143088B4201D312
:102940004B00C01A5241411A524110007047CA0F41
:1029500000D04942031000D34042534000229C461D
:1029600003098B422DD3030A8B4212D38901FC2227
:1029700012BA030A8B420CD3890192118B4208D3FD
:10298000890192118B4204D3890137D0921100E062
:102990008909C3098B4201D3CB01C01A5241830973
:1029A0008B4201D38B01C01A524143098B4201D3A0
:1029B0004B01C01A524103098B4201D30B01C01ACB
:1029C0005241C3088B4201D3CB00C01A5241830845
:1029D0008B4201D38B00C01A5241D9D243088B429B
:1029E00001D34B00C01A5241411A00D20146524154
:1029F000104663465B1000D34042704763465B104D
:102A000000D3404201B50021004201D0C94308462D
:102A1000C046C04602BD10B500F064F8EFF3008078
:102A2000800001D5012010BD002010BD10B500F0C0
:102A300059F8EFF300804000800F012800D00020FB
:102A400010BD10B500F078F8EFF30080800001D4DD
:102A5000012010BD002010BD70B50125ED07040058
:102A60004C4020D4441A01D2001B0919C60D4B005A
:102A7000F2B2FF2A29D01B0E2CD000020C022843F0
:102A80002C43D31ADC40051910D2280A02D3401C6B
:102A90006D0611D0761EF6058019FF2A00DA70BD8A
:102AA000C00DC00570BD694000F0CEF8012005439F
:102AB000C541521C761CE8E764089C40C90161408E
:102AC0008900E7D10124A043E4E71B0E440200D0B3
:102AD000034870BD002AFCD1C00FC00770BD00BF05
:102AE0000000C07F0123DB0502000A430DD4DA4257
:102AF00003D49A4207D488427047D84214D4D942AA
:102B000012D48842704780427047DA4203D59A4215
:102B1000F9D5814270475B004200DA4204D24A0094
:102B2000DA4201D28142704710B5024AFEF79EF8A0
:102B300010BD00BF090013040123DB0502000A4396
:102B40000DD4DA4203D49A4207D488427047D8425F
:102B500014D4D94212D48842704780427047DA4276
:102B600003D59A42F9D5814270475B004200DA42B0
:102B700004D24A00DA4201D28142704710B5024ABB
:102B8000FEF774F810BD00BF0900160470B54200CE
:102B900064414B005C41120E39D01B0E38D0FF2A25
:102BA0003CD0FF2B3AD0D2187F3A40024902400A6B
:102BB000490A4518ED0106004E43000A090A484338
:102BC0000104731A4019190C4318990F04D05B08BB
:102BD000012149075B1A521CD80904D3401CF50394
:102BE00001D19D0607D0FF2A08D2D50506D0E407FB
:102BF0002043401970BD0125A843F4E7002A01DCF9
:102C0000E00770BD2402FF202043C00570BD1B0EED
:102C1000FF2A03D0FF2B01D0E00770BDFF26360648
:102C20004500B54206D84D00B54203D8D218FF2A58
:102C300000D0E7E7004870BD0000C07F70B50125F7
:102C4000ED0704004C4022D4441A02D26C40001B11
:102C50000919C60D4B00F2B2FF2A4BD01B0E50D003
:102C600000020C02A8432C43D31ADC40051B05D5F7
:102C7000AD0019D36D08761E521E37D0F605280A0E
:102C800001D2801970BD70416D0603D070BD6940DE
:102C9000FFF7E8FE9C4009026140490001D0401E58
:102CA00070BD0124A04370BD6D081DD001202B0C08
:102CB00001D12D0410302B0E01D12D0208302B0F25
:102CC00001D12D01001DAB0F01D1AD00801CEB0F18
:102CD00001D16D00401C361A121A6D00680AF50504
:102CE0004019012A02DB70BD002070BDC036300AD9
:102CF000C00770BD1B0E440201D1FF2B00D102485A
:102D000070BD002AF0D070BD0000C07F80807F7E43
:102D10007D7C7B7A79787776767574737271717051
:102D20006F6E6E6D6C6C6B6A6A6968686766666503
:102D30006464636362616160605F5F5E5E5D5D5C91
:102D40005C5B5B5A5A595958585757565655555502
:102D50005454535352525251515050504F4F4F4E62
:102D60004E4D4D4D4C4C4C4B4B4B4A4A4A494949B0
:102D700048484847474747464646454545444444F2
:102D8000444343434342424242414141818283841E
:102D900085868788898B8C8D8E8F91929395969757
:102DA000999A9C9D9FA0A2A3A5A7A8AAACAEB0B2D9
:102DB000B3B5B7B9BCBEC0C2C5C7C9CCCED1D4D7D4
:102DC000D9DCDFE2E6E9ECF0F3F7FAFE0000000000
:102DD00000000000002F00000000070007000014A2
:102DE0007F147F1400242A7F2A12006264081323B0
:102DF00000364955225000000503000000001C2247
:102E00004100000041221C000014083E0814000884
:102E1000083E0808000000A0600000080808080834
:102E2000000060600000002010080402003E5149CC
:102E3000453E0000427F400000426151494600216A
:102E400041454B31001814127F1000274545453984
:102E5000003C4A49493000017109050300364949DF
:102E6000493600064949291E000036360000000098
:102E700056360000000814224100001414141414E3
:102E8000000041221408000201510906003249598C
:102E9000513E007C1211127C007F49494936003EA8
:102EA00041414122007F4141221C007F4949494163
:102EB000007F09090901003E4149497A007F08085D
:102EC000087F0000417F4100002040413F01007F1A
:102ED00008142241007F40404040007F020C027FE6
:102EE000007F0408107F003E4141413E007F0909F8
:102EF0000906003E4151215E007F0919294600461E
:102F0000494949310001017F0101003F4040403FF4
:102F1000001F2040201F003F4038403F006314083E
:102F20001463000708700807006151494543000019
:102F30007F41410000552A552A55000041417F003C
:102F40000004020102040040404040400000010231
:102F50000400002054545478007F4844443800381A
:102F60004444442000384444487F003854545418A2
:102F700000087E0901020018A4A4A47C007F0804B4
:102F800004780000447D4000004080847D00007F84
:102F9000102844000000417F4000007C04180478A1
:102FA000007C0804047800384444443800FC24249D
:102FB00024180018242418FC007C08040408004885
:102FC0005454542000043F444020003C4040207CA6
:102FD000001C2040201C003C4030403C0044281095
:102FE0002844001CA0A0A07C004464544C44141449
:102FF000141414140006000000000000080008006B
:103000004F000000E80300002001000008076300F3
:10301000E803000020000000080004000003000096
:103020000710000003000000000000000000000086
:10303000000000000000000010000000000100007F
:1030400003000000000000003400C441080000003C
:10305000020000003F9C0000000000000000000093
:103060000000000000000000883000000000202068
:103070004000000020010000C83000004000202077
:1030800048040000480100000A00000000000000A1
:103090000000000000000000000000000000000030
:1030A0000000000000000000000000000000A0413F
:1030B0000000A0410000000000000000000000002F
:0830C000000000000000000008
:04000005000000C136
:00000001FF
