:020000040000FA
:1000000000072020C5010000C9010000CB0100004D
:1000100000000000000000000000000000000000E0
:10002000000000000000000000000000CD01000002
:100030000000000000000000CF010000D10100001E
:10004000D3010000AD1B0000D3010000D30100006C
:1000500015120000D3010000D3010000D3010000FD
:1000600000000000D3010000D301000000000000E8
:1000700000000000D3010000D3010000912A00001D
:10008000DD290000D3010000D3010000D3010000EE
:10009000D3010000D30100000000000000000000B8
:1000A000D3010000D30100000000000000000000A8
:1000B000D301000000000000D3010000D3010000C4
:1000C00000F002F800F052F812A030C808382418E6
:1000D0002D18AC4201D100F049F80FCCA246AB4636
:1000E0000CA730CF2D1B083F3F197C427F1E544484
:1000F0002D090426F441641EAC4201D300F036F809
:100100000126334200D0FB1A3343984754465D46DC
:10011000DFE700003C4800005C48000000000000F1
:10012000103A02D378C878C1FAD8520701D330C840
:1001300030C101D504680C60704700000000000069
:100140007047000000000000002300240025002666
:10015000103A01D378C1FBD8520700D330C100D583
:100160000B6070471FB51FBD10B510BD00F0D4FF68
:100170001146FFF7F7FF02F0DFFE00F0ECFF03B4DB
:10018000FFF7F2FF03BC01F03DF8000070B5054633
:100190000C46164602E00FCC0FC5103E102EFAD2C8
:1001A000082E02D303CC03C5083E042E07D301CC8E
:1001B00001C5361F03E021782970641C6D1C761E72
:1001C000F9D270BD06480047FEE7FEE7FEE7FEE70E
:1001D000FEE7FEE703480449024A044B704700006B
:1001E000C10000000006202000072020000620207B
:1001F000F8B5042A2CD3830712D00B78491C03705E
:10020000401C521E83070BD00B78491C0370401C06
:10021000521E830704D00B78491C0370401C521EE9
:100220008B079B0F05D0C91ADF002023DE1B08C9EE
:100230000AE0FFF7ABFFF8BD1D4608C9FD401C46AC
:10024000B4402C4310C0121F042AF5D2F308C91A77
:10025000521EF0D40B78491C0370401C521EEAD485
:100260000B78491C0370401C012AE4D40978017002
:10027000F8BD7047704770470246C80FC0078143FA
:100280004B0030B54B405B009B0D20D01923DB06A3
:10029000C91801231B05994220DB0324A407042568
:1002A0001346AB400BD3002B04D1EB0613409B004D
:1002B000E34204D401246407002312195941FF23A7
:1002C0001B0599420BD2C9000143500F09E0CB0234
:1002D00004D501430803024305D0054830BDFF2182
:1002E000C905084330BD084607210905884330BDCC
:1002F0000000C07FF0B50C46871A9C410D46861A57
:100300009D4103D2C01BA141D21963410D0D1F0DA8
:10031000C94EEC1BAE435CD07F057F0D0026002F3D
:1003200051D02D05AC46A943DD020123ED0A1B0582
:100330001D4320231B1B24D41746E7403818714166
:100340002F46E740CC199D402818314661410C0DDD
:1003500027D161449A4013D50023401C59415200D3
:100360000ED14008400001224B005205D34207D372
:1003700005204007C14201D5B04900E0B0493046F0
:10038000F0BD6B00002A00D001229A181F23203CE8
:100390001B1B01D5002302E0E540281871410C0D1C
:1003A000D7D0012424050919C407CD0740084908FE
:1003B000E40F28436144002CD5D00024401C614147
:1003C0009A40D0D1CDE76A05520DD9D1C90FC907DE
:1003D000D5E79C4D4E00002801D0012400E0002408
:1003E00034195F00002A01D0012600E00026BE1962
:1003F000954FAC420CD8AE420AD8B44206D0012583
:100400006D05EC42BCD010461946F0BD9942FCD0B7
:1004100000203946F0BDF0B51FB40C460F46811AD6
:100420009F412546861A9D4106D20125ED076F4062
:10043000401ABC4152187B41210D1E0D8D1BAC464C
:100440007D4D8D437ED075056D0D7CD00D05AE467E
:10045000AC431B031B0B794D52429D412023664642
:100460009B1B14D31746F7403818002600907441A0
:1004700060462F460741E41900989D4028186641C0
:1004800016D4714671189A4025D5012320E093189F
:100490002A466A415200002B00D0521C1E23203EE7
:1004A0009B1B002B61DD3541EE1728186641E8D50E
:1004B000001876415B1C9A4000D3401C4B05F31892
:1004C0001524E34010D3002B52D071467118D30F7E
:1004D000C01802D3491C05B0F0BD0123DB079A42C6
:1004E000F9D140084000F6E701225205B21801D1C7
:1004F000002853D00123CC0ADB029943891E002A2D
:1005000008D1020C03D0020C0004103902E00246AC
:10051000002020390023550B05D112020823550B6A
:1005200001D152010D23550C01D112011B1DD50C17
:1005300001D192009B1C150D01D152005B1C20259E
:10054000EE1A01E02CE022E00546F5401543984004
:10055000CA1AE10769181305C918002ABBDA032073
:1005600040070818C10FC9070FE071466118B2E7CC
:10057000F10740080843711071444A000CD0012370
:100580005B059A42A7D2C90FC9070020A3E7490516
:10059000490D26D1002001E00028F4D100219AE77E
:1005A000284D6600002801D0012100E000217118CB
:1005B0005F00002A01D0012600E00026BE19224F6C
:1005C000A94210D8AE420ED8B14208D001256D051F
:1005D000E94206D01946A802414010467BE79C42FA
:1005E00001D0214677E70020394674E710B50C4664
:1005F0005C4005D50124E4076340FFF70CFF10BD04
:10060000FFF778FE10BD30B40C465C4004D50124E1
:10061000E407634030BC6DE630BCFCE670B50124F5
:10062000E40761400D465D4002D4FFF763FE70BDF4
:100630006340FFF7F0FE70BDFF0700000000F0FF11
:100640000000F07F0000E0FF0000F87FF0B5F94DFA
:100650000C091E092C402E402F468BB0A7437DD09D
:10066000B543FCD0002E7AD0002CFCD00D465D4066
:10067000ED0F2543AC1BFF25AD0464190894C5029A
:10068000440DC9022143500DDC0204430120C00780
:1006900001430443D2020191200C110C00958C46B9
:1006A000010423468B430A9161460904E24D8A43C3
:1006B0000991010A7D4449198039097805464D435D
:1006C00001266D18F605751B6943C90C640B891C5E
:1006D0004C436418B5012C1B250C2E04B4434C4329
:1006E0004D43210C691889090591009DE90701D046
:1006F0000121C90704912C4601996708CD072F43B2
:100700004C08059DE10B4D432D0C2946664675436B
:1007100002950D4645432E46029D7D1BB441009532
:100720000D465D4301942C0C2F040D465543AE46F7
:100730002D0C3D43029503947546049C2D04641BC7
:10074000049406D2029C039D641C00267541039507
:10075000029401AC70CC009F7D1B01E03EE162E1A0
:10076000B44109040095079101940599A4086143D7
:10077000090C0C464443650BE7040C46664674437B
:10078000A646640B3C43039502947446049DE4041E
:100790002C1B049406D2029C039D641C0026754108
:1007A0000395029401AC70CC009F7D1BB441019471
:1007B0000C465C430095650FE7000C465443A64683
:1007C000640F3C43039502947446049DE4002C1B83
:1007D000049406D2029C039D641C00267541039577
:1007E000029401AC70CC009F7D1BB441AE09AF06F2
:1007F000049DC900AD092F43049DA406AD060495D0
:10080000079D344369180791059DE10B4D432D0C5D
:1008100029466646754302950D4645432E46029D80
:100820007D1BB44100950D465D4301942C0C2F04B3
:100830000D465543AE462D0C3D4302950394754637
:10084000049C2D04641B049406D2029C039D641C2A
:10085000002675410395029401AC70CC009F7D1B6E
:10086000B44101948C050694079C890A611800958F
:100870000791019C0599A4086143090C0D46454365
:10088000680BEF040D46644665436C0B3C43049FC4
:10089000ED047D1BAC4602D20025641C6841009E1D
:1008A000019D371B85410846584301950C46460F6C
:1008B000C5005443600F28436546E4002C1B02D258
:1008C0000025401C6E41019D3F1AB5412846BD09D7
:1008D000800628438446A009BF064E020699A40656
:1008E00076180743079D002068410A99079019432D
:1008F0000020099B00906046FF1913434041E20F1E
:1009000064003A43A4460446D71A8C41A04203D956
:100910000120009020463A46C70F94184041624695
:10092000D20F2243644664000494009CBE466400D7
:10093000D71AA446044602978C417746002F01D16E
:10094000A04204D96046401C8446029A2046C40F47
:10095000A64694184041049A0546D20F22436446A5
:100960006400D31A8D417146002901D1A84202D9F1
:1009700028461A46641C10430122002800D0164362
:1009800061020020079B891904465C410223002C68
:1009900002DB491813466441089DCE0A2D145D19E7
:1009A0004B056705E10A2C050D1908993E43C90757
:1009B0006940002B08D0934006D30022761C514199
:1009C000002B01D1760876001C4A002D43DB15422E
:1009D00041D0AA433FD030460BB0F0BD06180D46BB
:1009E0004D41174C7642AC411AD395181C465C41D8
:1009F000134A6D42A24113D3012252054C00D44246
:100A00000AD15C00D4420BD04B4002D59202114374
:100A1000E2E749004908DFE75940C90FC90718E074
:100A200000200849D8E7054801420DD10342F7D01C
:100A3000F2E700000000FF07743E00000000F07FB6
:100A40000000E0FF0000F87F114859400143C01248
:100A500041400020C0E70123089A9B069A4205DC2A
:100A6000032252078918C90FC907B5E705225207A3
:100A70008918074A1143D2125140ADE770B51546A7
:100A80001C4602460B4628462146FFF7DFFD70BD97
:100A9000FFFFFF7FF0B58B4C0F09254689B0BD43A2
:100AA0007BD01D092646AE43FAD00E465E40274055
:100AB000F60F3E43254071D024012142FBD0FF2494
:100AC000AD19A4042D1B039501252D05DB02DB0ABE
:100AD000C9022B43C90A29431E010901040F130F40
:100AE000050121431701880B820391432D098C4690
:100AF000A90B1E438A039543B30B9A0396433F0900
:100B0000BA0B9403A74302962E467E430497B6463B
:100B10004E19D7190C460196544305977E43371B4F
:100B20007646BF1B3601B646BE0B36190096764692
:100B3000BC043719009C01D3641C00946400002F8E
:100B400001D001263443029E049F754366467E43CE
:100B50000496760034196E0034190094029C019EAC
:100B60001C196643751BAE46069465464519059CDF
:100B700005956C43594375460891691A0191049E85
:100B800001465143A41B0491611A009C0791E106A0
:100B900005D061090122114302E072E06EE06109B3
:100BA000089D00272C0A2D066918049D7C412A0AFD
:100BB0002D066918019D6241AC0DAD026D185441BE
:100BC000079A910D920255196141029A6446584361
:100BD0005443069B059A5A43121A131B9A0E9B0103
:100BE0005B187A41010B0005C3185141220A200607
:100BF00044195A419A4200D2491C012040028142C4
:100C000003D315230226F64302E014230326F643FA
:100C10002020C51AA9401746AF40DA400A432046B3
:100C20000399D8400914731819055118039A3843C9
:100C3000D2075140AC4009D00122944006D3002293
:100C4000401C5141002C01D1400840001E4A9342F3
:100C500012D3012203989206904207DB0520400739
:100C600009181A480143C012414004E0032040071C
:100C70000818C10FC907002009B0F0BD0020F10716
:100C8000FAE705180C464C4111486D42A04115D3B6
:100C900094181A465A410E48644290410ED30120DE
:100CA0004A004005824209D35A00824206D3594085
:100CB000C90F084AC90700201143DDE70020064993
:100CC000DAE700000000FF07FE070000FFFFFF7FDC
:100CD0000000E0FF0000F07F0000F87F0121C9055F
:100CE0000123411842001B06D3185B0E0AD0C11025
:100CF0000722D206891840075242D14201D552003C
:100D000089187047090208D50146002A03D0C10F8F
:100D1000C9070020704710467047420202D00020E9
:100D200002497047072109050143F4E70000F87FF5
:100D3000F0B5FF252D04C609C209FF2704462E4041
:100D40000137CB093E4348402A402B400746002A42
:100D50006BD0002B69D0AA4267D0AB4265D0002887
:100D600000DA32460125ED0529432C430902200211
:100D7000090AD21A4B0C7F24E31A434C000A7C4424
:100D8000E35C7D242404121914145B00A218884229
:100D900001D3521C00E0400049420C465C43241140
:100DA0005C43DB016415E318040A5C43C502200DB3
:100DB0000C4644436419250A5D432303EC0C0D469D
:100DC000654300030019EB184C42A34201D35B18A2
:100DD000401CD4052018002B07D05B00C91804D391
:100DE000401C002901D1400840003F2189048A426B
:100DF00009D3002A08DC1106090F04D00321490792
:100E00004018C00FC007F0BD01224100120689182A
:100E10007F2252069142F6D205214907C84201D5E8
:100E20009010F0BDFF20C005F0BD002F00DA324663
:100E30001648AA4207D2AB4205D21902090E17D0B2
:100E4000F80FC007F0BDFF2563002D06AB42F9D8AF
:100E50004900A942F6D8AB4201D1A942F2D0A94239
:100E600001D1002101E061004908D0050843F0BD2F
:100E70001102090EFBD0FF200243D005F0BD0A4647
:100E80000146104654E700002A3800000000C07FE9
:100E900010B501469E240002CA15A307002A02D0FD
:100EA0001843002A04DBA21A002A0CDDD04010BD32
:100EB0001206120E01D140004008A21A03D4D040FD
:100EC00040420028F3DDFF2248001206904201D97B
:100ED000002010BDC817C043584010BD0102C21504
:100EE00004D00123DB071943002A0ADB9E239A1A48
:100EF00002D40846D0407047FF22410012069142BA
:100F000001D900207047C017C04370471F22030C4F
:100F100002D10F2200041CD0030E01D10002083AB6
:100F2000030F01D10001121F830F01D18000921E17
:100F3000002801DB4000521ED20551180212511840
:100F40001922904004D3491C002801D149084900C6
:100F500008467047C10FC90700D0404201229207DE
:100F60001143D3E701218907D0E710B500F078F8E5
:100F7000006810BD10B5044600F072F8046010BDA2
:100F800070B505464800440D124B0020002C0AD0D5
:100F9000634008D09A4206DA6642B24203DD120587
:100FA0004019514170BD002C08D0002B09D0C90F49
:100FB000C907002AF6DB084A114370BDC90FC907EB
:100FC00070BD28460A03104302D00020034970BDBB
:100FD000284670BDFF0700000000F07F0000F87F8A
:100FE000C10D10B50906090E2ED0FF2931D07E297A
:100FF0002DD319D0962916D2024675398A4005D0CC
:10100000002402468A4003D3012302E00124F8E7CA
:1010100000230222CA41511E8843002B03D08018AE
:10102000002C00D0904310BD0121420201D10122C9
:1010300000E00022C00FC0070029F4D0002AF2D13E
:101040007F21C905084310BDC00FC00710BD002196
:10105000EFE74102FAD0014810BD00000000C07F58
:10106000004870474000202010B5FF231B064400B5
:101070009C421DD84C009C421AD80346124A0B438E
:1010800007D4401A02D3EFF3008010BDEFF30080C5
:1010900010BD081A03D3EFF30080904305E0EFF38F
:1010A000008001219043C907084380F3008810BDE8
:1010B0000D231B041A4204D01146002000F053F8FF
:1010C00010BD00F067F810BD0000009010B5FF22C1
:1010D000C30D134009D05A4007D0914205DA5C4253
:1010E000A14202DDC905081810BDC40FE407002B9A
:1010F00006D0002A06D0002902DBFF20C0050443E9
:10110000204610BD4102FCD0004810BD0000C07F49
:1011100000487047400020207546FFF7F9FFAE46B3
:10112000050069465346C008C000854618B020B582
:10113000FFF750F860BCB64600260027C0C5C0C502
:10114000C0C5C0C5C0C5C0C5C0C5C0C5403D4908B3
:1011500049008D46704710B50446C046C04620463B
:10116000FFF70DF810BDC80212D54803400F002844
:1011700004D0C803C043012188407047EFF30080CA
:101180000001000903210907084380F30088704724
:101190000020704710B5024800F004F810BD0000B0
:1011A0000000C07F10B50C461107090F092904D0B3
:1011B0000A290AD008290CD104E011460820FFF7BB
:1011C000D2FF06E0510606D501E0510601D5012007
:1011D000C007214610BDD10607D501010909CC0879
:1011E0004907000E0006044309E0410F20024907A9
:1011F000000A0143200E00061D22D141014308468A
:10120000E7E7000001491820ABBEFEE72600020018
:101210007047000004480068C0B20A2802D10348A1
:10122000012101707047C046201000404C0320206F
:1012300070470000C749884206D0C749884207D096
:10124000C649884207D07047514801210160704764
:101250000120800601E00120C00653490860704764
:10126000704770477047000070B50446007F012842
:1012700068D1B848844224D0B74884422AD0B748BD
:10128000844231D0BA4884423CD0B54884424ED0E2
:10129000B44884424ED0B44884424ED0B3488442CD
:1012A0004FD13B48012101603A4E30683A4902F083
:1012B000ADFF0546394902F0D7FD002831D0384D41
:1012C0002FE03348012101603F200106394802F038
:1012D00007F836E001208006334908603F20010608
:1012E000334801F0FDFF2CE00120C0062E490860C4
:1012F0002F480025294601F0F3FF2E48294601F02A
:10130000EFFF1EE0224801210160224E306827498C
:1013100002F07CFF0546224902F08EFD002800D035
:101320001E4D35601F48294601F0B2FF09E001203B
:10133000800604E00120C00601E0012080051A4972
:101340000860207F022808D18248844206D0824863
:1013500084420DD08148844214D070BD0C481038AE
:1013600001210160BF200106124801F0B9FF70BDE4
:10137000012080060C490861BF2001060C4801F0DD
:10138000AFFF70BD0120C0060749086170BDC046AF
:10139000A0120A40C80520200000A0C00000B4C26E
:1013A0000000B442CC05202090320A400000A0404A
:1013B000B4052020BC052020F0B581B06448046845
:1013C000002C00D1C2E0192000010090614E694D4F
:1013D00061490CE02046FFF747FF2046FFF741FF39
:1013E000002020752469002C5B4900D1AEE0B44296
:1013F00016D08C4217D059498C4216D058498C428D
:1014000015D058498C4214D057498C4213D05749B3
:101410008C4212D0564884421AD10B2054490DE018
:10142000142031460AE0162008E0172006E00720C5
:1014300004E0082002E0092000E00A202A680B7876
:10144000FD271F40C24002200240D21942400A70CC
:101450002078FE2202408107C80F801820700029E2
:1014600006D4227D032A01D16268A2610022626053
:10147000032203461340032B04D13F4B1B786768BC
:10148000FB186360237D042B0BD13B480078A168D7
:101490000818A060C8289DD860681528A2D302202B
:1014A0009FE70027A760032B9CD82E467B441B791F
:1014B0005B009F4401080C16277700293546254E0E
:1014C00090D501208DE7002913D4277506E0002967
:1014D0001BD404202075207F401C207735461D4EEC
:1014E00080E7A18900291ED0234A1278891AA18198
:1014F0001FE0606815283546164E00D272E70220BC
:1015000020752046FFF7ACFE6CE760681B498842F7
:101510003546104E00D265E70098A081227520461E
:10152000FFF786FE5EE70098A0812046FFF782FE67
:1015300020783546074E800700D553E72046FFF751
:1015400091FE2046FFF78DFE27754BE701B0F0BDF9
:1015500010052020A4002020C4002020E40020202A
:1015600004012020240120204401202064012020A7
:101570008401202080330A40010020202103000044
:10158000B0B50A78032313400B4A84580B4D25400D
:10159000EB18A92424061B198350072212064B6856
:1015A00013401124240205599543EA1802510019E9
:1015B00049780161B0BDC04608080000FCFFFF008B
:1015C000811E091F00BFFCD27047F0B582B0002A0F
:1015D00031D091235B01C3180220801A0190009240
:1015E00055420F2006020320DC69344227D00F1831
:1015F000FC1E24781C602C18022C1AD0DA693242A6
:101600001FD0BA1E12781A60019A1218032A10D03D
:10161000DA69324217D07A1E12781A60002C08D08C
:10162000DA69324208D00A5C1A60001D2A18032ABF
:10163000DAD1009800E0002080B202B0F0BDC01EF8
:10164000FAE7801EF8E7401EF6E7000010B50F4AE3
:10165000835880210B43835080180122D2020F232C
:101660001B0244681C4094420BD044681C409442C6
:1016700007D044681C40944203D044681C40944204
:10168000EFD102688A43026010BDC04638120000E4
:1016900070B50A780C231A400124240305196E68DA
:1016A0009E43B2186A604978072211400359934358
:1016B0005918015170BD0000B0B5112212028358B3
:1016C0000C4C1C400B894D881D438B792B430A4DD4
:1016D0001D4063198350CB798C881C4309782143C2
:1016E0005D239B001940801842689A43511841605D
:1016F000B0BDC04680CCFFFF7F33000010B5012293
:10170000120383180C785C604978815010BD00008A
:10171000F0B585B001221402344B19680494A1433A
:101720001960950362490E682E4208D10E682E4258
:1017300005D10E682E4202D10E682E42F3D0457EAE
:1017400015409E69964375199D612025455D0326C8
:101750003540DF69B7437D19DD61254D2E680527CA
:101760002F60476A3C681C627C685C6207243440D6
:101770002C60C4697F252D02DE69AE436406640CCB
:101780003419DC6150C80568009547688568019583
:10179000C568029503929A69164D15402207120BEF
:1017A0003403A4B2A2183A43009C2407240D144326
:1017B000019A1443029A1443007C20430E4A0240CB
:1017C000501998611868049A1043186003984002F1
:1017D0000A68024208D10A68024205D10A68024238
:1017E00002D10A680242F3D005B0F0BD08010B40F7
:1017F000001340408D00F0FF72FF0F00F0B5184B52
:101800001D46083D2E680124A6432E60032636039C
:1018100030401F68B743381818601868FF26B04377
:10182000C9B2401818602868204328601868002A48
:1018300011D021070843186020021D490A6802429E
:1018400008D10A68024205D10A68024202D10A6838
:101850000242F3D0F0BD210788431860F0BDC046B6
:1018600010010B4010B51149886001225305104842
:1018700004681C4208D104681C4205D104681C425B
:1018800002D104681C42F3D012040B6813430B60AE
:101890000168C90608D40168C90605D40168C906EB
:1018A00002D40168C906F3D510BDC04604010B403F
:1018B00004020B4070B582B00B794A79002A24D01B
:1018C000174A21242401202B00D070348218002BC9
:1018D00000D18824156C3F4E35402D191564556C88
:1018E00035402C1954641468774D2C4014605468AA
:1018F0002C4054600024146254628F24E443156D1C
:1019000025401565556D254055656A4613718B79DF
:10191000537109680091114600F004F802B070BDDF
:1019200038180000F0B5664A8218294BC3180879A8
:1019300020280DD000281DD10C68641E5460D56E7F
:10194000244C25408835D5661646703688251DE01E
:101950000C68641E5460D46E1E4D2C401E4EA4199B
:10196000D466146F2C40A4191467012465071B4C1E
:1019700016460BE00C6864085460D66E154C264081
:101980000525ED017619D66616467036376827406C
:101990002F433760D46A4C4D2C40D462146B2C40DA
:1019A00014630024D46414658F24E443D56F254068
:1019B000D5671D6825401D6049790143BD20084059
:1019C0001168074B0B40C018801C1060F0BDC0466A
:1019D0008418000024493E0001040000FFFFFFCFEF
:1019E0004000FFCFB0B5364A80184A6842600A7896
:1019F000222A57D8930001A4E3589F469B1A00005F
:101A0000A51A00009B1A0000A51A0000A51A0000E4
:101A1000A51A0000A51A0000A51A0000A51A0000CA
:101A2000A51A0000A51A0000A51A0000A51A0000BA
:101A3000A51A0000A51A0000A51A0000891A0000C6
:101A4000A51A0000891A0000A51A0000A51A0000B6
:101A5000A51A0000A51A0000A51A0000A51A00008A
:101A6000A51A0000A51A0000A51A0000A51A00007A
:101A7000A51A0000A51A0000A51A0000891A000086
:101A8000A51A0000891A000003231B0704689C4361
:101A900001235B07E318036004E003231B070468CA
:101AA0009C4304600B8AC360CB68064C1C40C36A2D
:101AB000054D1D402B19C362097A11430160B0BD69
:101AC00004180000777702008888FDFF10B507230F
:101AD0009B04194092008018024A84589C43611864
:101AE000815010BD3018000010B5029CA4000019F0
:101AF00011431943014A815010BDC04650180000DF
:101B000092008018014A81507047C04610180000AA
:101B100010B50122120383180C789C604B78835017
:101B20008978014A815010BD0C110000B0B5112216
:101B3000120283580124A34383508B780C881C43E2
:101B40008B882343094C1C408358094D1D402B1999
:101B500083508B79CC791C43097A21437E23194029
:101B6000801842689A4351184160B0BD1867000060
:101B7000E798FDFF10B50122120383180C789C60D2
:101B80004978815010BD0000074A8018026812068B
:101B900008D50268120605D50268120602D5026849
:101BA0001206F3D48161704708110000F0B581B0CE
:101BB000304F384618380068800758D5002000900C
:101BC000C0432D4D103D2968C9062C4A25D5116802
:101BD000402701260F40034600D03346002F3446ED
:101BE00000D0044626494978002900D02346254CD8
:101BF000626B9A186263002F01D1009AD6431D4F81
:101C00006671002900D07642E16A7118E1621A4BD0
:101C1000196810220A431A60184A2968890622D5D1
:101C20001168802501240D40214600D00146002D79
:101C300000D02046124A1678002E00D00146114BE3
:101C4000186B08181863002D01D00098C4431C714C
:101C5000002E00D06442986A20189862064A1068E4
:101C6000202101431160386802210143396001B02D
:101C7000F0BDC0465811404048300A4080330A4009
:101C8000E805202004002020F0B585B01446074662
:101C900004AA11706E48114602931A46FFF795FC8C
:101CA0006C4E304624380168890608D401688906DC
:101CB00005D40168890602D401688906F1D5354644
:101CC0002C3D2968644A11407F00C91929603346B8
:101CD000283B1968614A1140614A891801931960CB
:101CE0000168490612D5016849060FD50168490601
:101CF0000CD501684906F3D408E00168890608D4C8
:101D00000168890605D40168890602D4016889063C
:101D1000F3D54F48FFF79AFC28684F49084007431E
:101D20000120039007432F60019B18684B4908402E
:101D3000029A11040143072008431860002A3BD08F
:101D4000032310461840042A019037D20021019D38
:101D5000002D31D03068000708D13068000705D168
:101D60003068000702D130680007F3D03246203ACD
:101D700010686054012D1FD0481C33681B0708D120
:101D800033681B0705D133681B0702D133681B0773
:101D9000F3D013682354022D0ED0881C3168090734
:101DA00008D13168090705D13168090702D13168C6
:101DB0000907F3D01168215405B0F0BDFC27174086
:101DC000002104E02A682254091DB942BFD03068BE
:101DD000000708D13068000705D13068000702D13C
:101DE00030680007F3D03546203D28686054084627
:101DF000039A10433268120708D13268120705D1DE
:101E00003268120702D132681207F3D02A682254CE
:101E1000022008433268120708D13268120705D140
:101E20003268120702D132681207F3D02A682254AE
:101E30000846184332681207C4D132681207C1D16C
:101E400032681207BED132681207F3D0BAE7C04633
:101E500000200F403C320F4000F8FFFFF8FF00F079
:101E600007000100B0B5144605467E2800D9491C7C
:101E70005039C8B200F0C4FA7E2D00D900252809D7
:101E8000103000F0BDFA0E202840401C00F0B8FAD7
:101E9000203CE0B2062444432C4D285D00F0D6FAE5
:101EA0002C19607800F0D2FAA07800F0CFFAE07830
:101EB00000F0CCFA207900F0C9FA607900F0C6FA97
:101EC000B0BDC046F0B583B001921478002C3AD072
:101ED0000646002729E0F0B20009103000F090FA21
:101EE0000E203040401C00F08BFA203CE0B206246B
:101EF0004443164D285D00F0A9FA2C19607800F0D3
:101F0000A5FAA07800F0A2FAE07800F09FFA207914
:101F100000F09CFA607900F099FAB61D7F1CF8B2C7
:101F200001990C5C002C02990DD0F5B27E2D00D9E0
:101F3000491C029108465038C0B200F061FA7E2D6B
:101F4000C9D90026C7E703B0F0BDC046A8460000C7
:101F5000B0B504465039CDB2284600F051FA012000
:101F600000F04EFA102000F04BFA284600F048FA34
:101F70002009103000F044FA0E202040401C00F0F0
:101F80003FFA60B2002806D4002000F05FFA601C1F
:101F900044B2002CF8D5B0BDF0B58BB008920C4619
:101FA0000646086900250A90294601F02FFF0746DA
:101FB000401E8741E0680990294601F027FF411E35
:101FC0008841384027460C3700963546012820D1F5
:101FD0006069002101F01AFF00281AD02068002152
:101FE00001F014FF002814D06068002101F00EFFFA
:101FF00000280ED0A068002101F008FF002808D0BA
:102000002046103021461431231D3D6006462246ED
:102010005BE00297A5600899486806908868079079
:10202000C86803900869496905910A9FE76061687B
:102030006560226804922160019102F0ABF90646C6
:1020400003980895294602F0A5F9314602F0DEF81A
:1020500006460598049902F09DF9314602F0D6F83B
:1020600006460698394602F095F90146304602F0D8
:10207000F5F906460798099902F08CF901463046B1
:1020800002F0ECF9206160610121CB079F432246F9
:10209000143221461031114EB74210DA019D9D4392
:1020A000B542089D0FDA07469F43B7420BDA009FFF
:1020B0009F43B7422346029E07DA0BB0F0BD23468A
:1020C000029E089D01E02346029E0D60356015606A
:1020D0001D60A56028460BB0F0BDC0460100807FA2
:1020E000F0B587B002920C460546454800780028B6
:1020F00001D1682000E069203B2103AF0E233A465E
:1021000000F0AEFD7878039909020E183D4800787A
:1021100068281ED10498C0BAFEF71CFFA06030B238
:102120004042FEF717FF206003AE7088C0BA4042FD
:10213000FEF710FF6060F08840BA01900598C0BAC1
:102140004042FEF707FF0746708946BA0698C0BAB4
:102150001DE030B2FEF7FEFE20600498C0BA404297
:10216000FEF7F8FEA06003AF7888C0BA4042FEF7E1
:10217000F1FE6060788946BAF88840BA0190059807
:10218000C0BAFEF7E7FE07460698C0BA4042FEF71F
:10219000E1FEA8602F6030B24042FEF7DBFE6860CF
:1021A000019800B2FEF7D6FE1749FEF7C1FD1749A8
:1021B00002F02CF8029908606868154E314602F06A
:1021C000E9F86860A868314602F0E4F8A860286879
:1021D000314602F0DFF8286039200506606829469C
:1021E00002F0D8F86060A068294602F0D3F8A06039
:1021F0002068294602F0CEF8206007B0F0BDC04646
:1022000014052020000020200000AA43B81E12421E
:1022100047237A3CB0B50446B02000F0F1F8012025
:1022200000F0EEF8102000F0EBF80025204600F05A
:102230000DF9681C45B2002DF8D5B12000F0E0F88A
:10224000012000F0DDF8102000F0DAF8002520462B
:1022500000F0FCF8681C45B2002DF8D5B22000F063
:10226000CFF8012000F0CCF8102000F0C9F80025CC
:10227000204600F0EBF8681C45B2002DF8D5B320DD
:1022800000F0BEF8012000F0BBF8102000F0B8F814
:102290000025204600F0DAF8681C45B2002DF8D57C
:1022A000B42000F0ADF8012000F0AAF8102000F0F2
:1022B000A7F80025204600F0C9F8681C45B2002D9B
:1022C000F8D5B52000F09CF8012000F099F8102016
:1022D00000F096F80025204600F0B8F8681C45B2DA
:1022E000002DF8D5B62000F08BF8012000F088F81A
:1022F000102000F085F80025204600F0A7F8681CA3
:1023000045B2002DF8D5B72000F07AF8012000F092
:1023100077F8102000F074F80025204600F096F8B9
:10232000681C45B2002DF8D5B0BD80B500F068F846
:1023300080BD10B500240AC00260446084600120A2
:1023400010BDB0B50446C0682269831A6268934222
:102350000CDA2368551E0540A26855435819FDF74D
:1023600047FFE068401CE0600120B0BD0020B0BD28
:10237000F0B583B002910446C168006823699942B0
:1023800002D1002003B0F0BDE1682369CE1A67686E
:10239000791E19408B19BB42354600D37D1A9542F0
:1023A0002F4600DB1746A36801921A467A43594329
:1023B00041180298FDF71CFF206939182161751B2F
:1023C0000198C01B854200DB0546206801906068CB
:1023D0000090A26813466B4338465043029E301863
:1023E000009E761E31405143019A51181A46FDF75E
:1023F000FFFE206940192061E81903B0F0BD00001C
:10240000B0B501231905234A11615B041361224C05
:102410002568ED0608D52568ED0605D52568ED0685
:1024200002D52568ED06F3D420632068400708D55F
:102430002068400705D52068400702D5206840077E
:10244000F3D4206A13601160B0BDC04610B50123FB
:102450001905104A11615B0413600F4B1C68E406F8
:1024600008D51C68E40605D51C68E40602D51C687E
:10247000E406F3D418631868400708D518684007C5
:1024800005D51868400702D518684007F3D4186AC4
:10249000116010BD90320A4010B1464010B50124C1
:1024A000A0071149FFF76CF81F2001040F4882684C
:1024B0008A432104511881600D490C600D49416126
:1024C00061020D4A136A0B43136213680B431360D6
:1024D0000A490A68C02313433F2293430B600168F3
:1024E0002143016010BDC046D048000000110040EB
:1024F00084110040409C00002810004004E400E0EB
:10250000F0B5334A00209061D0618725D56601215E
:102510008B0330480360882313612F4B08241C6011
:102520008524946280261E60546110241C602B4C0C
:102530002565CD051D608425D56004251D60284DC9
:102540006E1C566016604F06506838435060106825
:10255000384310608220506496648320A061106725
:10256000A81C606110460C3881260660E666266667
:10257000666666641B482064A064E06490655065EC
:10258000D065106650662660A662E663D564556322
:102590001565956318463038CA06026018464038FB
:1025A0000160501C18600B4A104630380E4901601B
:1025B00011600F2000020D490A6802430A600C48AE
:1025C000016A302211430162016811430160F0BDCC
:1025D00010804240D0320A40D0120A4084804240EB
:1025E00081000400810006000000530C90330A4073
:1025F00028300A4010B511481149FFF749F8032265
:102600005102104803680B43036001210B02046868
:102610001C430460002343614262826B07239A4398
:1026200082631A02836B93438363826A0423134396
:102630008362826A0A43826210BDC04600200F4056
:10264000D848000000320F40F0B583B02C4C2D4923
:102650002046FFF75DFA2C492046FFF72BF90025AD
:102660000095204629462A462B46FFF73DFA20468C
:1026700029462A46FFF72AFA204629462A46FFF726
:102680003FFA012602960096204629462A462B4606
:10269000FFF72AFA204629463246FFF717FA204666
:1026A00029463246FFF72CFA0226009610272046CC
:1026B00029463A462B46FFF717FA20462946324666
:1026C000FFF704FA204629463246FFF719FA032697
:1026D0000096204629463A462B46FFF705FA204643
:1026E00029463246FFF7F2F9204629463246FFF7DF
:1026F00007FA0648029981600F21016003B0F0BD1E
:1027000000008640DA480000E048000000118640E2
:1027100070B582B0194C1A492046FFF7F9F91949EA
:102720002046FFF7FFF800250095204629462A4657
:102730002B46FFF7D9F9204629462A46FFF7C6F966
:10274000204629462A46FFF7DBF901260096204657
:1027500029462A462B46FFF7C7F920462946324626
:10276000FFF7B4F9204629463246FFF7C9F9064873
:1027700086600321016002B070BDC04600A08640A3
:10278000E8480000EC48000000B1864010B50D4C50
:102790000D492046FEF7B2FF0C492046FEF78CFF9C
:1027A0000B4841680B4A0A40273242608168122276
:1027B0000A432D218A438260016801220A43026094
:1027C00010BDC04600A04640F4480000F648000096
:1027D00004B1464000FCFFFFF0B581B01F48002166
:1027E000009101600F2528021D4E316881430124AC
:1027F0006702C81930600320C143321F13680B40C1
:102800001360000314212246FEF7F8FF1548FEF777
:102810007FFF31681020014320229143316029035A
:10282000726B8A43092109035118716321033268CD
:102830000A433260B16B0143B163706B384370631C
:102840000098FFF70FF8FF20000207490A6882434B
:10285000A0031018086001B0F0BDC04608030B408B
:1028600004010B400049000000E400E010B5084CF2
:1028700008492046FFF74CF907492046FFF7B2F810
:10288000064801680122114301600548026010BD3D
:1028900000400840284900002C490000285008400A
:1028A0000851084010B59D4C15492046FFF762F9C4
:1028B00014492046FFF73AF90320C1031248026881
:1028C0008A4302600169114A0A4041218900511876
:1028D0000161416919220A4326218A434261416804
:1028E0000122114043689343591841609102084BFB
:1028F0001C680C431C6001681143016010BDC04698
:102900004049000042490000009110400000FFFFD4
:102910002890104080B500F023F8FFF7F1FDFFF795
:102920005BFFFFF791FEFFF7F3FEFFF79FFFFFF757
:1029300061FEFFF7B7FFFFF729FFFFF7AFFD742038
:10294000044900220A54B82003490A5424200349A8
:102950000A5480BD0C042020500320208404202031
:10296000F0B581B01248134A4260134842601348E0
:102970004260134C6260134D6A60134E7260134FD5
:102980007A6013494A6013484260134A084B1A6040
:10299000094B1A60094B1A6022602A6032603A6063
:1029A0000A6002601020FEF70BFE01B0F0BDC046C9
:1029B00000080A40030000B100280A4000088640D1
:1029C00000A886400048084000280F4000881040BA
:1029D00000A84640000800400100002610B522482B
:1029E0000068C0B201283ED120480178491C01701E
:1029F000C9B2052904D31E4901220A7000210170C1
:102A00001C4C2078401C2070C0B20A2803D3FEF76B
:102A1000D3FC0020207018480178491C0170C9B20D
:102A2000322904D300210170144801210170144897
:102A30000178491C0170C9B2642904D300210170D6
:102A400010480121017010480188491C018089B299
:102A500089087D2904D3002101800C4801210170DF
:102A60002F4800F033F810BD20500840E705202023
:102A70004B032020E2052020E60520204A032020E9
:102A8000E105202048032020E405202049032020E0
:102A900080B582B00A480068C0B20B280DD1094841
:102AA000012101601E4800228270417006480068C2
:102AB00001A908701748FFF744FC02B080BDC0466A
:102AC00020901040B0120A402491104070B5054685
:102AD000407800281DD0A878401CA870C0B20A28F1
:102AE00017D3012042020B480B4C2146FFF740FC54
:102AF0002870C6B2002E07D0084D21782846FFF76F
:102B000043F8641C761EF8D105480021817041709D
:102B1000017070BDA4012020B80120200080104069
:102B2000F80520204D48102101607047F0B581B0B4
:102B3000012528021F4E7168014371601E4F3868DD
:102B40001E4901F027FC04461D480088FEF70AFADA
:102B50001C4901F01FFC1C49FEF7EAF8014620461B
:102B600001F054FB3860194901F014FC1849086061
:102B700018490A78002A08D10A78002A05D10A786B
:102B8000002A02D10A78002AF3D0134909680C4AB6
:102B90001180316829433160104901F04DF9002856
:102BA00006D17D20C0003F210906012200F02AF84D
:102BB00001B0F0BD00110040AC0420203333333F9E
:102BC00024032020A4707D3F00F07F45EE7C33413C
:102BD000200320204C032020846255400000204127
:102BE00010B50E480021064A0123837001803F245E
:102BF0002406DB06C26003614161846110BDC046EA
:102C000000000A4010B5054CA1610121A17022808D
:102C1000052100F089FE606110BDC0462803202018
:102C2000B0B5002806D00446034D2846FEF7C8FC80
:102C3000641EFAD1B0BDC0468038010080B500F0F6
:102C400025FD80BD80B5FFF73DF980BD024802211A
:102C5000016002480160704780E200E000E100E0AE
:102C600080B5FFF711F880BDF0B583B094265F4DB5
:102C7000A85D00280CD15E4C5E495F4A204600F0FA
:102C800075FB5E495E4A204600F070FB0120A855A6
:102C9000286B6863294618312A4630322846FFF7E8
:102CA0001FFA2868574E544C31462246FFF774F9F4
:102CB000E8606868314618312246FFF76DF92861EF
:102CC000A868303631462246FFF766F96861A86980
:102CD0004D4E4B4C31462246FFF75EF96862E8697B
:102CE000314618312246FFF757F9A862286A303674
:102CF00031462246FFF750F90290E8626869A96FF1
:102D000001F0ACFB68642869696F01F0A7FB2864D7
:102D1000E868296F01F0A2FBE8637D20C105686DBA
:102D200001F038FB0446FD208105286B01F032FBE1
:102D3000214601F06BFA6865E86F696A01F02AFBC9
:102D40008821695801F08AFB0190A8642C467C34E4
:102D50006068A96A01F01EFB2F468837796801F088
:102D60007DFB0646E864A068029901F013FBB96890
:102D700001F074FB2865014601F00CFB044602904B
:102D80003046314601F006FB214601F03FFA00F0E3
:102D900041F80146019F384601F0FCFAFDF79EFF1D
:102DA00001F06EF803225407184B2246FDF772FE1D
:102DB000FDF762FA68663846394601F0EBFA029987
:102DC00001F024FA00F026F80146304601F0E2FA5C
:102DD000FDF784FF01F054F80D4B2246FDF75AFE33
:102DE000FDF74AFAA86603B0F0BDC0461C052020D6
:102DF0000000484300004842F80420200000F04151
:102E000008032020B0042020C002202066A64CC069
:102E100066A64C4010B50446BF200106204601F0CE
:102E2000B9FA6110074A541A214601F0B3FA214653
:102E300001F0B0FAFF21890501F0E8F9214601F01F
:102E4000A9FA10BDDF59375FF0B52B4B0020186190
:102E50002A4A14682A49002C144601D00C68103400
:102E600023601468002C154601D01D461035254CF2
:102E70002C6020611568002D164601D026461036BC
:102E8000214D356028611668002E174601D02F4667
:102E900010371E4E3E6030611875207528753075EC
:102EA0001B4B187518611468002C144601D010369D
:102EB00034462360174C206120751568002D154697
:102EC00001D010331D462C60134B1875186115681E
:102ED000002D154601D0103425462B600F4C0A25D5
:102EE00025700F4C20751568002D01D010331A463F
:102EF000146020610C60F0BDA4002020100520208B
:102F0000D8052020C4002020E400202084012020B7
:102F10000401202024012020440120200100202041
:102F20006401202003480178002901D000210170AC
:102F30007047C04649032020FFF7ECFC00F07EFB01
:102F4000FFF782FF00F0CCF8FFF7ECFDFFF77EFE05
:102F500000F088F900F0C4FAFFF742FE00F00CF828
:102F600000F078FBFFF7DEFF00F0DCF8FFF7DEFD96
:102F700000F0AAF8F6E70000F0B581B04F4F3878BE
:102F8000002801D1682000E069206B21812200F037
:102F900053FA6420FFF744FE494D2878FF280FD1EB
:102FA0000120387069246B218122204600F044FA08
:102FB0006420FFF735FE7521204600F031FA2870B5
:102FC00068283ED13878692568240028284600D131
:102FD00020466B268022314600F02EFAC820FFF7EB
:102FE0001FFE38780028284600D1204619210022EB
:102FF000009200F021FA38780028284600D12046B7
:103000000322314600F018FA38780028284600D10B
:1030100020461A21022200F00FFA387800282846AC
:1030200000D120461B210826324600F005FA3878E8
:10303000002800D125461C212846324600F0FCF924
:1030400001E001200090387869256824002828468E
:1030500000D12046192100F0E3F91A4E307038787B
:103060000028284600D120461A2100F0D9F97070B6
:1030700038780028284600D120461B2100F0D0F9DE
:10308000B07038780028284600D120461C2100F076
:10309000C7F9F0703878002800D125461D21284650
:1030A00000F0BEF93071684801467C317F22D205BC
:1030B0004A608A60C267009801B0F0BD1405202004
:1030C000000020201505202080B504480178002943
:1030D00003D000210170FFF7C7FD80BD4A03202007
:1030E000F0B581B0012005040C4E356164270C4C0D
:1030F0002046FEF765FA7F1E3804F9D13560322587
:103100002046FEF75DFA6D1E2804F9D1022000F07A
:10311000F7F90020FFF77EF801B0F0BD90320A40C9
:1031200080380100F0B581B03C480178002973D0A7
:103130000024047020462146FEF70AFF38A22046EC
:103140002146FFF77FFD384802681E202146FFF721
:1031500075FD012620463146FEF7FAFE33A22046D1
:103160003146FFF76FFD334F786BFDF7F3FE0246F4
:10317000222528463146FFF761FD022620463146CA
:10318000FEF7E6FE2CA220463146FFF75BFD386BCA
:10319000FDF7E0FE024628463146FFF74FFD0326C5
:1031A00020463146FEF7D4FE25A220463146FFF7E1
:1031B00049FD254F7A6E28463146FFF73FFD04262C
:1031C00020463146FEF7C4FE20A220463146FFF7D6
:1031D00039FDBA6E28463146FFF730FD05262046F8
:1031E0003146FEF7B5FE1BA220463146FFF72AFD09
:1031F000FA6E28463146FFF721FD06262046314665
:10320000FEF7A6FE15A220463146FFF71BFD7A6D9C
:1032100028463146FFF712FD01B0F0BD48032020DB
:103220004144433A2000000020032020526967688F
:10323000743A2000040020204C656674203A200077
:10324000726F6C203A2000001C05202070697420E9
:103250003A200000796177203A20000074656D7093
:10326000203A2000064800214160012202800548E2
:1032700041600549018005480168114301607047BC
:10328000B4052020BC05202002030000041886405D
:10329000B0B5044681600846FDF720FD00250C4BC3
:1032A0002A46FDF7D3F90B4B2A46FDF79FF9FCF7A9
:1032B000E3FF60602478032C09D8074901F06AF81D
:1032C000FDF70CFE014605482246FEF719FCB0BD8D
:1032D0000000224000002C400000204100A0864059
:1032E00070B50D46044641600021284600F0BCFD43
:1032F00000281DD00021284600F093FD00282FD182
:103300002278194E032A03D800213046FEF7F8FB35
:103310006478032C24D80120C0078543114928462E
:1033200001F038F8FDF7DAFD01463046224615E097
:103330002678032E0DD80120C00785430949284669
:1033400001F028F8FDF7CAFD014607483246FEF7AE
:10335000D7FB6278032A03D803480021FEF7D0FB8D
:1033600070BDC04600007A4400008640F0B583B0CE
:1033700017460C46FDF7DCFC01462548FDF7D8FC56
:1033800000F08CFE05460021204600F060FD00287C
:103390003BD17F20C4053C6002941E49284600F0C2
:1033A000F9FF214600F032FF06462846294600F084
:1033B000F1FF0446314600F029FF01460190204606
:1033C000FDF7B6FC06467861F8601349284600F020
:1033D000E1FF029900F01AFF0146204600F016FFB7
:1033E000019D2946FDF7A4FCB8600C49204600F079
:1033F0000DFF014600F00AFF2946FDF799FC7860B1
:103400003046314600F002FF386103B0F0BDC046DF
:10341000DB0F4940F304B53FF304B5BF000080BFA4
:1034200010B582B001AC0022227001232246FEF7C3
:103430002BFC207802B010BDB0B582B0054600204C
:1034400000906B465A7019700190204C0222204661
:103450001946FEF7BAF81E480168890608D40168C3
:10346000890605D40168890602D401688906F3D566
:10347000014608390A68174B13406A009A180A6017
:10348000011F0A68144B1340144A9A180A60016815
:10349000490612D5016849060FD5016849060CD5C1
:1034A00001684906F3D408E00168890608D4016878
:1034B000890605D40168890602D401688906F3D516
:1034C0002046FEF7C3F802B0B0BDC04600200F4052
:1034D00018320F4000F8FFFFF8FF00F0070002006D
:1034E00005480021416081600121017003480268A4
:1034F0000A4302607047C046CC05202004B88640CD
:10350000F0B581B004464048002606803F4804706C
:103510003F4806803F48012101703F4801703F4805
:1035200006703F4801703F48802707803E48017081
:103530003E48402505803E480670F0433D490880DE
:103540003D490880AE20FEF7F0FED520FEF7EDFEE7
:103550003846FEF7EAFEA820FEF7E7FE3F20FEF71A
:10356000E4FED320FEF7E1FE3046FEF7DEFE2846FD
:10357000FEF7DBFE8D20FEF7D8FE012C01D01420D3
:1035800000E01020FEF7D1FE2020FEF7CEFE3046F0
:10359000FEF7CBFEA1263046FEF7C7FEC827384609
:1035A000FEF7C3FEDA20FEF7C0FE1220FEF7BDFED6
:1035B0008120FEF7BAFE012C01D0CF2000E09F2031
:1035C000FEF7B3FED920FEF7B0FE012C01D0F120AA
:1035D00000E02220FEF7A9FEDB20FEF7A6FE28462B
:1035E000FEF7A3FEA420FEF7A0FEA620FEF79DFE98
:1035F0003046FEF79AFE3846FEF797FEAF20FEF7FC
:1036000094FE01B0F0BDC04644032020BC0220203F
:1036100046032020E0052020FB052020B9022020C1
:10362000B8022020BE022020A0002020BA022020C4
:10363000C4052020DC052020DE0520200120010417
:103640000E4A116002490A6802430A607047C04688
:103650000458084080B50122D00307490860074993
:103660000860530206480749FEF763FE064800213A
:1036700081704170017080BD80E200E000E100E0F7
:10368000A4012020B8012020F8052020F0B589B041
:1036900017460C46054600211046049100F0C1FB78
:1036A000002803940AD105A82D220270284621463D
:1036B000FEF7D8FB0120C0074740AD1D02953846F4
:1036C000FDF7E6FB0446FDF745FC0146384600F0F1
:1036D000C5FE01908448864A8649874D874FBC4283
:1036E00003DAAC421DDD049F0DE08449204600F062
:1036F0001BF9302102460A4305AB1A704743E41B0D
:10370000AC4215D901277F49204600F00DF905A9E3
:10371000C919024630320A70691C4143641A7D1C83
:1037200009E08C4200DCBEE00F460025019E06E069
:1037300005A841700225019E6E4FBC420CD972490A
:10374000204600F0F1F805A94919024630320A7006
:10375000791C4143641A03E005A840193021017027
:10376000634837466E1C84420DD90546674920469A
:1037700000F0DAF80146303105AA9155691C414341
:10378000641A751C03E005A830218155AD1C574E05
:10379000B4420BD95E49204600F0C6F801463031EC
:1037A00005AA5155711C4143641A02E005A8302155
:1037B00041554D486E1C84420DD905465549204659
:1037C00000F0B2F80146303105AA9155691C414319
:1037D000641A701C03E005A830218155A81CE1087B
:1037E0007C290ED9A1B2C9084B4A4A43110D0A4699
:1037F000303205AB1A547D22D2004A43A11A8CB252
:1038000002E005A930220A54411C632C10D9A0B251
:103810008008424A4243500C0246303205AB5A54AB
:1038200064224243A01A84B24E1C092C06D812E02E
:1038300005AA30235354861C092C0CD9E0B2CD21A3
:103840004143C80A0146303105AA91550A21414336
:10385000601AC4B202E005A830218155761CF5B289
:10386000303405A844552E49384600F0FDFA0028AA
:103870000DD12C49384600F08DFDFDF709FB3030A5
:10388000B61CF1B205AA5054A8182E214170039914
:10389000029BF0B205AA8018049C4470D8B2FEF7CF
:1038A00011FB09B0F0BD944203DD15460026019FCF
:1038B0005CE70E4EB44202DD0025019F6AE78442B8
:1038C00003DD05460026019F78E70D48844202DDAE
:1038D0000020019F86E7642C019F01DB002196E711
:1038E00000260A2CAADABAE70F2700009F860100FB
:1038F0003F420F007F969800FFE0F50500CA9A3B13
:10390000E703000000E1F5058096980040420F00B3
:10391000A086010010270000C52000007B140000D5
:10392000CDCCCC3D0000204143088B421AD300226D
:1039300003098B4279D3030A8B425ED3030B8B427C
:1039400042D3030C8B4227D30902FF2212BA030C85
:103950008B4202D31212090203D0030B8B4233D3E2
:103960001AE0D3E0411A8041401C704703460B43E4
:1039700071D443088B42F5D3002203098B4254D300
:10398000030A8B4239D3030B8B421DD3030C8B42AA
:1039900002D394466EE0090AC30B8B4201D3CB03DA
:1039A000C01A5241830B8B4201D38B03C01A524180
:1039B000430B8B4201D34B03C01A5241030B8B4282
:1039C00001D30B03C01A5241C30A8B4201D3CB026D
:1039D000C01A5241830A8B4201D38B02C01A524152
:1039E000430A8B4201D34B02C01A5241030A8B4255
:1039F00001D30B02C01A5241CDD2C3098B4201D36D
:103A0000CB01C01A524183098B4201D38B01C01AEA
:103A1000524143098B4201D34B01C01A5241030961
:103A20008B4201D30B01C01A5241C3088B4201D310
:103A3000CB00C01A524183088B4201D38B00C01ABD
:103A4000524143088B4201D34B00C01A5241411AE4
:103A5000524110007047CA0F00D04942031000D3F2
:103A60004042534000229C4603098B422DD3030A57
:103A70008B4212D38901FC2212BA030A8B420CD367
:103A8000890192118B4208D3890192118B4204D390
:103A9000890137D0921100E08909C3098B4201D313
:103AA000CB01C01A524183098B4201D38B01C01A4A
:103AB000524143098B4201D34B01C01A52410309C1
:103AC0008B4201D30B01C01A5241C3088B4201D370
:103AD000CB00C01A524183088B4201D38B00C01A1D
:103AE0005241D9D243088B4201D34B00C01A5241F4
:103AF000411A00D201465241104663465B1000D382
:103B00004042704763465B1000D3404201B500213C
:103B1000004201D0C9430846C046C04602BDF0B4C9
:103B2000040C8BB2264682B25E430D0C1046370C55
:103B30005843360480190021794116466E43370CEC
:103B400036048019794126466E438919F0BC7047C6
:103B50004900CA020243100000D004204A0D01D0DF
:103B600001221043044A490D914201D10221084328
:103B7000012800D105207047FF070000410008021E
:103B800000D004200A0E01D001221043090EFF29A3
:103B900001D102210843012800D105207047F8B562
:103BA00004464F1EC8000838211815461E460868EE
:103BB00049683A4606239A4310D02A463346FCF712
:103BC00069FF3A46D200083AA3181A687F1E5B685C
:103BD000FCF70CFD06223B469343EED1022F23D087
:103BE000042F11D0062F2FD12A463346FCF752FF5F
:103BF000E36AA26AFCF7FAFC2A463346FCF74AFF5E
:103C0000636A226AFCF7F2FC2A463346FCF742FF5D
:103C1000E369A269FCF7EAFC2A463346FCF73AFF5F
:103C200063692269FCF7E2FC2A463346FCF732FF5F
:103C3000E368A268FCF7DAFC2A463346FCF72AFF61
:103C400063682268FCF7D2FCF8BD10B50122FDF7CD
:103C500097F910BD034A10B500201107FDF790F940
:103C600010BD000001FDFFFF10B50121FDF72EFA88
:103C700010BD10B500210846FDF75AF810BD5E21B1
:103C800010B5C9430807FDF721FA10BDF0B50E467F
:103C900014465100FF22120687B0914203D3111639
:103CA000316007B0F0BD01202502C0070543E00DDB
:103CB0007838C206D20E2020871A6000000E7838AD
:103CC000401181004D4878440B189C464358002A07
:103CD00014D06046406893400146F8400343604674
:103CE000806891408646F8400143039160467146E2
:103CF000C0689140F84001430F4603E060464168C8
:103D00000391876818462946FFF709FF029104903E
:103D100029460398FFF703FF03910690384629468A
:103D2000FFF7FDFE0F460698029B3D18049A039983
:103D3000BD4201D2012700E000278818C019002FDA
:103D400002D0884202D903E0884201D2012100E07A
:103D5000002159180A4620329709C20C89065203DD
:103D600040033760114301900846FDF7F3F80290D5
:103D70000198FDF7F7F81221C943FDF7A7F9019063
:103D80002846FDF7EFF82521C943FDF79FF900907C
:103D90000199029800F03AFA009900F037FA0121EF
:103DA000C9024018050B2D032846029900F056FB66
:103DB000019900F053FB009900F044FB104900F01A
:103DC000E9FA00900F49284600F0E4FA009900F063
:103DD0001DFA00900C49284600F0DCFA009900F02A
:103DE00015FA002C00DB5CE701210907C91B3160D3
:103DF0000121C907484007B0F0BD0000BE0900001E
:103E0000DB0FC92F22AAFD290000C92F10B500F031
:103E100043FAEFF30080400001D5012010BD0020DF
:103E200010BD10B500F062FAEFF30080800001D5FC
:103E3000012010BD002010BD10B500F057FAEFF3BF
:103E400000804000800F012800D0002010BD10B578
:103E500000F076FAEFF300804000800F012801D0D7
:103E6000012010BD002010BD10B500F069FAEFF37D
:103E70000080800001D4012010BD002010BD000092
:103E8000F0B589B004460D464800069172494008D5
:103E9000884215DB7149884203DC884207D1002C37
:103EA00005D020462946FFF7D0FE09B0F0BD6C488A
:103EB000002D02DD6B4909B0F0BD6B4909B0F0BDC2
:103EC0006A49884211DA6A4988420BDA2046294653
:103ED000FFF73EFE042801D1FFF7BCFE204629462D
:103EE00009B0F0BD0026F6435DE06D0061496D0844
:103EF000884232DA6049884219DA002601233246C4
:103F00009B0720462946FCF771FB074601910122D9
:103F100020462946FDF734F80022584BFCF773FB86
:103F20003A46019BFCF792FB04460D463BE0012616
:103F30000022524B20462946FCF758FB07460091C9
:103F400000224E4B20462946FCF75DFB3A46009B7B
:103F5000FCF77CFB04460D4625E04949884219DA06
:103F600002260022474B20462946FCF793FD0022FB
:103F7000424BFCF73BFB074602910022414B204697
:103F80002946FCF740FB3A46029BFCF75FFB0446E0
:103F90000D4608E0032622462B4600203A49FCF74E
:103FA00055FB04460D4622462B4610461946FCF7A3
:103FB00071FD07460B4602460191FCF76BFD024678
:103FC000029032480B46039106217844FFF7E7FD43
:103FD0003A46019BFCF75EFD00902D4801910521BA
:103FE0007844039B029AFFF7DAFD039B029AFCF7E1
:103FF00051FD02460B4601990098002E0BDAFCF7A2
:10400000F5FA22462B46FCF745FD22462B46FCF7E7
:1040100005FB09B0F0BDFCF7E9FA22462B46FCF798
:1040200039FD1C4AF6007A4493191A685B68FCF75C
:10403000EAFA22462B46FCF7E6FA174A7A44931925
:104040001A685B68FCF7EAFA069A002AE1DA0122AC
:10405000D207514009B0F0BD000010440000F07FCD
:10406000182D4454FB21F93FFB21F9BF0000DC3F30
:104070000000203E0000F33F0000E63F0000F03F5C
:10408000008003400000F83F0000F0BF8A060000F7
:104090004C060000E6050000B0050000F0B5024641
:1040A00004464C4B83B040006946984209D27321C4
:1040B0000906884202D20020C04300E000200090A0
:1040C00030E05000444B4008984262D243491046C9
:1040D00000F060F9FCF784FF0746FCF7D9FE800783
:1040E000800F00903E49384600F054F901903D4958
:1040F000384600F04FF906463B49384600F04AF989
:1041000005463A49384600F045F9214600F09AF94B
:10411000294600F0A3F9314600F0A0F9019900F01A
:104120009DF90446009D002D37DB2146084600F02E
:1041300031F906462E4900F02DF92E4900F066F8B7
:10414000314600F027F92C4900F060F8314600F0C4
:1041500021F92A4900F05AF8314600F01BF92849A4
:1041600000F054F8314600F015F9264900F04EF8F9
:10417000314600F00FF9214600F00CF9214600F01D
:1041800045F8E90703D001461F48FCF7D1FD03B00D
:10419000F0BD1046FFF77AFDC3E7FF216000090676
:1041A000884209D22046FFF7E9FC042801D1FFF735
:1041B00066FD204603B0F0BD884206D10120FCF721
:1041C000D9FEFFF756FD03B0F0BD2046FFF74CFDCA
:1041D00003B0F0BDB61F927E490E494683F9223FD7
:1041E0001A61342C0020A23300A0FD390000C93F21
:1041F000BCE9223C0B6D063B8A76CE3CACB5593D02
:1042000035A1083E29AAAA3E000080BF70B501254D
:10421000ED0704004C4020D4441A01D2001B0919B8
:10422000C60D4B00F2B2FF2A29D01B0E2CD0000283
:104230000C0228432C43D31ADC40051910D2280A5B
:1042400002D3401C6D0611D0761EF6058019FF2A98
:1042500000DA70BDC00DC00570BD694000F004F902
:1042600001200543C541521C761CE8E764089C40C8
:10427000C90161408900E7D10124A043E4E71B0E96
:10428000440200D0034870BD002AFCD1C00FC00713
:1042900070BD00BF0000C07F0123DB0502000A43A0
:1042A0000DD4DA4203D49A4207D488427047D842E8
:1042B00014D4D94212D48842704780427047DA42FF
:1042C00003D59A42F9D5814270475B004200DA4239
:1042D00004D24A00DA4201D28142704710B5024A44
:1042E000FCF7C2FE10BD00BF090012040123DB056C
:1042F00002000A430DD4DA4203D49A4207D488421A
:104300007047D84214D4D94212D4884270478042B0
:104310007047DA4203D59A42F9D5814270475B0073
:104320004200DA4204D24A00DA4201D281427047A6
:1043300010B5024AFCF798FE10BD00BF0900130437
:104340000123DB0502000A430DD4DA4203D49A426A
:1043500007D488427047D84214D4D94212D4884234
:10436000704780427047DA4203D59A42F9D58142BC
:1043700070475B004200DA4204D24A00DA4201D2BE
:104380008142704710B5024AFCF76EFE10BD00BFB7
:104390000900160470B5420064414B005C41120EE6
:1043A00039D01B0E38D0FF2A3CD0FF2B3AD0D21880
:1043B0007F3A40024902400A490A4518ED010600C9
:1043C0004E43000A090A48430104731A4019190CA4
:1043D0004318990F04D05B08012149075B1A521C4E
:1043E000D80904D3401CF50301D19D0607D0FF2A4C
:1043F00008D2D50506D0E4072043401970BD012539
:10440000A843F4E7002A01DCE00770BD2402FF2086
:104410002043C00570BD1B0EFF2A03D0FF2B01D027
:10442000E00770BDFF2636064500B54206D84D00B0
:10443000B54203D8D218FF2A00D0E7E7004870BD84
:104440000000C07F70B50125ED07684004004C40B6
:1044500002D5694000F008F8FFF7DEFE70B50125CF
:10446000ED0704004C4022D4441A02D26C40001BD9
:104470000919C60D4B00F2B2FF2A4BD01B0E50D0CB
:1044800000020C02A8432C43D31ADC40051B05D5BF
:10449000AD0019D36D08761E521E37D0F605280AD6
:1044A00001D2801970BD70416D0603D070BD6940A6
:1044B000FFF7B2FE9C4009026140490001D0401E56
:1044C00070BD0124A04370BD6D081DD001202B0CD0
:1044D00001D12D0410302B0E01D12D0208302B0FED
:1044E00001D12D01001DAB0F01D1AD00801CEB0FE0
:1044F00001D16D00401C361A121A6D00680AF505CC
:104500004019012A02DB70BD002070BDC036300AA0
:10451000C00770BD1B0E440201D1FF2B00D1024821
:1045200070BD002AF0D070BD0000C07F80807F7E0B
:104530007D7C7B7A79787776767574737271717019
:104540006F6E6E6D6C6C6B6A6A69686867666665CB
:104550006464636362616160605F5F5E5E5D5D5C59
:104560005C5B5B5A5A5959585857575656555555CA
:104570005454535352525251515050504F4F4F4E2A
:104580004E4D4D4D4C4C4C4B4B4B4A4A4A49494978
:1045900048484847474747464646454545444444BA
:1045A00044434343434242424241414181828384E6
:1045B00085868788898B8C8D8E8F9192939596971F
:1045C000999A9C9D9FA0A2A3A5A7A8AAACAEB0B2A1
:1045D000B3B5B7B9BCBEC0C2C5C7C9CCCED1D4D79C
:1045E000D9DCDFE2E6E9ECF0F3F7FAFE00000000C8
:1045F0004FBB610567ACDD3F182D4454FB21E93FFB
:104600009BF681D20B73EF3F182D4454FB21F93FE9
:10461000E2652F227F2B7A3C075C143326A6813C6F
:10462000BDCBF07A8807703C075C143326A6913C1A
:10463000C4EB98999999C9BF711623FEC671BCBF86
:104640006D9A74AFF2B0B3BF9AFDDE522DDEADBFEE
:104650002F6C6A2C44B4A2BF0D5555555555D53F06
:10466000FF8300922449C23F6E204CC5CD45B73F21
:10467000513DD0A0660DB13FEB0D76244B7BA93F99
:1046800011DA22E33AAD903F000000006E83F9A2F8
:104690002915444ED15727FCC0DD34F5999562DBCE
:1046A0004190433CAB6351FE00000000000000005D
:1046B000002F000000000700070000147F147F1483
:1046C00000242A7F2A120062640813230036495509
:1046D000225000000503000000001C2241000000E1
:1046E00041221C000014083E08140008083E080877
:1046F000000000A0600000080808080800006060D2
:104700000000002010080402003E5149453E000010
:10471000427F4000004261514946002141454B31F2
:10472000001814127F10002745454539003C4A49BE
:104730004930000171090503003649494936000630
:104740004949291E00003636000000005636000098
:104750000008142241000014141414140000412213
:10476000140800020151090600324959513E007CEB
:104770001211127C007F49494936003E41414122D5
:10478000007F4141221C007F49494941007F0909BE
:104790000901003E4149497A007F0808087F00006E
:1047A000417F4100002040413F01007F0814224129
:1047B000007F40404040007F020C027F007F0408E1
:1047C000107F003E4141413E007F09090906003E3D
:1047D0004151215E007F0919294600464949493166
:1047E0000001017F0101003F4040403F001F204089
:1047F000201F003F4038403F006314081463000747
:104800000870080700615149454300007F4141009D
:1048100000552A552A55000041417F00000402013D
:10482000020400404040404000000102040000201B
:1048300054545478007F4844443800384444442059
:1048400000384444487F00385454541800087E0906
:1048500001020018A4A4A47C007F080404780000CE
:10486000447D4000004080847D00007F102844008B
:104870000000417F4000007C04180478007C08049C
:10488000047800384444443800FC242424180018D8
:10489000242418FC007C08040408004854545420C4
:1048A00000043F444020003C4040207C001C20404D
:1048B000201C003C4030403C004428102844001C90
:1048C000A0A0A07C004464544C4414141414141488
:1048D0000006000000000000080008004F00000073
:1048E000E80300002001000008076300E80300005F
:1048F0002000000008000400000300000710000072
:1049000003000000000000000000000000000000A4
:104910000000000010000000000100000300000083
:10492000000000003400C441080000000200000044
:104930003F9C00000000000000000000000000009C
:104940000800000018000000003000000000000017
:1049500070490000000020204000000020010000FD
:10496000B049000040002020C006000048010000BF
:10497000680A0000000000000000000000000000C5
:104980000000000000000000000000000000000027
:10499000000000000000A0410000A0410000000055
:1049A0000000000000000000000000000000000007
:04000005000000C136
:00000001FF
