:020000040000FA
:10000000680120206D0100007101000073010000F3
:1000100000000000000000000000000000000000E0
:10002000000000000000000000000000750100005A
:1000300000000000000000007701000079010000CE
:100040007B0100007B0100007B0100007B010000C0
:100050007B0100007B0100007B0100007B010000B0
:10006000000000007B0100007B0100000000000098
:10007000000000007B0100007B0100007B0100000C
:100080006D0600007B0100007B0100007B01000089
:100090007B0100007B010000000000000000000068
:1000A0007B0100007B010000000000000000000058
:1000B0007B010000000000007B0100007B010000CC
:1000C00000F002F800F042F812A030C808382418F6
:1000D0002D18AC4201D100F039F80FCCA246AB4646
:1000E0000CA730CF2D1B083F3F197C427F1E544484
:1000F0002D090426F441641EAC4201D300F026F819
:100100000126334200D0FB1A3343984754465D46DC
:10011000DFE7000094060000A406000000000000D5
:100120007047000000000000002300240025002686
:10013000103A01D378C1FBD8520700D330C100D5A3
:100140000B6070471FB51FBD10B510BD00F027F83C
:100150001146FFF7F7FF00F0C5FA00F03FF803B4CF
:10016000FFF7F2FF03BC00F045F800000648004727
:10017000FEE7FEE7FEE7FEE7FEE7FEE70348044989
:10018000024A044B70470000C100000068002020B4
:10019000680120206800202070477047704775462E
:1001A00000F024F8AE46050069465346C008C0007A
:1001B000854618B020B5FFF7E1FF60BCB6460026C3
:1001C0000027C0C5C0C5C0C5C0C5C0C5C0C5C0C565
:1001D000C0C5403D490849008D46704710B50446EA
:1001E000C046C0462046FFF7BAFF10BD0048704722
:1001F0000000202001491820ABBEFEE726000200C7
:10020000704782B001900199881E001F00BFFCD288
:10021000009002B0704784B003900291019203985D
:100220000068009000980199884300900098029916
:10023000019A114008430399086004B0704784B0E4
:100240000390029101920398006800900098019930
:100250008843009000980299019A1140084303993D
:10026000086004B0704782B0019000910098019935
:1002700095225201885002B07047000082B0019070
:10028000009100980199024A885002B07047C04618
:10029000D012000081B0009000990120C2023648BF
:1002A000885001B07047C04681B00090009881002E
:1002B000024A8120885001B07047C0460480424005
:1002C00081B000900099754A7548885001B0704718
:1002D00082B00190009100980199024A885002B0C2
:1002E0007047C0469012000082B0019000910098C3
:1002F0000199024A885002B07047C046B01200000F
:1003000081B001466846017000780249086001B07A
:100310007047C04608030B4080B582B0014601A873
:100320000170017802480322FFF789FF02B080BD07
:1003300000010B4081B000900099024A01208850D2
:1003400001B070470811000082B001900091009B3D
:100350000199034A88581843885002B07047C04634
:100360002810000081B0009000990120C2020248CC
:10037000885001B07047C0460100002681B000904F
:100380000098812149014058C0B201B07047000077
:1003900080B584B00390029103980299496800F0F7
:1003A000DDF8029800780190222856D80198810043
:1003B00001A040588746C046510400005B0400007D
:1003C000510400005B0400005B0400005B040000BB
:1003D0005B0400005B0400005B0400005B040000A1
:1003E0005B0400005B0400005B0400005B04000091
:1003F0005B0400005B040000450400005B04000097
:10040000450400005B0400005B0400005B04000086
:100410005B0400005B0400005B0400005B04000060
:100420005B0400005B0400005B0400005B04000050
:100430005B0400005B040000450400005B04000056
:100440004504000003980121490700F079F805E010
:100450000398002100F074F800E0FFE70398029988
:10046000098A0022009200F03BF8009B0398029951
:10047000C9681A4600F016F802990878097A084304
:100480000399414A885004B080BDC04681B00090B5
:100490000099024A0248885001B0704704080000E1
:1004A000030000B110B586B005900491039202A834
:1004B00003700599084A891801910178019889000B
:1004C0004018019001980499039A1143034AFFF7D9
:1004D000A2FE06B010BDC0463018000077770200BB
:1004E00084B00390029101A802700399064A89180A
:1004F00000910178009889004018009002980099B6
:10050000086004B07047C0461018000082B0019027
:100510000091009800780199074A88500098407827
:100520000199012212038850009880780199034AAA
:10053000885002B07047C046081000000C1100003F
:1005400080B582B00190009101980F494018009940
:1005500003221207FFF75FFE02B080BD82B0019058
:10056000009100980199024A885002B07047C04635
:100570000818000081B000900099034A88580123B0
:100580001843885001B070470418000080B586B049
:100590000020FFF789FE3820FFF786FE3920FFF79D
:1005A00083FE31200390FFF77FFE4C48019001212C
:1005B0000291FFF78DFE01980299FFF75FFE039805
:1005C0008105059146480490FFF74DFE0498059972
:1005D000FFF754FE06B080BD80B582B000200190C8
:1005E000FFF78EFE0198FFF797FE02B080BD000076
:1005F00080B582B0084965480190FFF787FF0198F0
:100600000649FFF7C5FE01980121FFF79DFE0198FD
:10061000FFF790FE02B080BD900700009407000035
:1006200080B500F007F8FFF7B1FFFFF7D5FFFFF740
:10063000DFFF80BD80B584B028480190FFF740FE01
:1006400027480290FFF73CFE50480390FFF71EFF3B
:100650000198FFF71FFE0298FFF71CFE0398FFF7B3
:1006600081FE1020FFF7CDFD04B080BD80B5474866
:10067000FFF784FE012803D1FFE700F043F800E014
:10068000FFE780BD81B001466846017000214056F9
:10069000002809D4FFE7684601781F2001400120A7
:1006A000884002490860FFE701B0704700E100E0C0
:1006B00080B531480078002801D1FFE70CE02E49D1
:1006C0000020087005480121FFF70EFE312081054A
:1006D0000348FFF709FEFFE780BDC04600000A405F
:1006E00000200A4080B582B00020019000F004F89C
:1006F000FFE7FFF7DDFFFCE780B5FFF791FF00F0B4
:100700003DF880BD17490878401C0870C0B20A281F
:1007100007DBFFE714490120087012490020087028
:10072000FFE712490878401C0870C0B2642807DB54
:10073000FFE70F49012008700C4900200870FFE70F
:100740000C490888401C088080B27D2189008842BD
:1007500007DBFFE7084901200870064900200880F0
:10076000FFE7704764002020610020206300202004
:1007700060002020660020206200202080B510202C
:10078000FFF780FF0148FFF7F5FE80BD00400840FD
:100790000800000002000000FF7C000000000000D4
:1007A0000000000000000000B8070000000020204A
:0807B0006801000028010000AF
:04000005000000C136
:00000001FF
