:020000040000FA
:10000000A80220208D010000910100009301000052
:1000100000000000000000000000000000000000E0
:10002000000000000000000000000000950100003A
:10003000000000000000000097010000990100008E
:100040009B0100009B0100009B0100009B01000040
:100050009B0100009B0100009B0100009B01000030
:10006000000000009B0100009B0100000000000058
:10007000000000009B0100009B0100009B010000AC
:10008000911000009B0100009B0100009B010000FB
:100090009B0100009B010000000000000000000028
:1000A0009B0100009B010000000000000000000018
:1000B0009B010000000000009B0100009B0100006C
:1000C00000F002F800F052F812A030C808382418E6
:1000D0002D18AC4201D100F049F80FCCA246AB4636
:1000E0000CA730CF2D1B083F3F197C427F1E544484
:1000F0002D090426F441641EAC4201D300F036F809
:100100000126334200D0FB1A3343984754465D46DC
:10011000DFE70000A4130000C4130000000000008B
:10012000103A02D378C878C1FAD8520701D330C840
:1001300030C101D504680C60704700000000000069
:100140007047000000000000002300240025002666
:10015000103A01D378C1FBD8520700D330C100D583
:100160000B6070471FB51FBD10B510BD00F072F8D1
:100170001146FFF7F7FF00F0E7FF00F08AF803B43D
:10018000FFF7F2FF03BC00F0DFF80000064800476D
:10019000FEE7FEE7FEE7FEE7FEE7FEE70348044969
:1001A000024A044B70470000C1000000A801202053
:1001B000A8022020A8012020704770477047010244
:1001C000C21504D00123DB071943002A0ADB9E2352
:1001D0009A1A02D40846D0407047FF224100120606
:1001E000914201D900207047C017C04370470000FA
:1001F00010B5FF231B0644009C421DD84C009C42B6
:100200001AD80346124A0B4307D4401A02D3EFF31D
:10021000008010BDEFF3008010BD081A03D3EFF388
:100220000080904305E0EFF3008001219043C9076F
:10023000084380F3008810BD0D231B041A4204D02C
:100240001146002000F02DF810BD00F041F810BD5F
:1002500000000090754600F043F8AE460500694680
:100260005346C008C000854618B020B5FFF796FF7A
:1002700060BCB64600260027C0C5C0C5C0C5C0C505
:10028000C0C5C0C5C0C5C0C5403D490849008D4670
:10029000704710B50446C046C0462046FFF76FFFC2
:1002A00010BDC80212D54803400F002804D0C8036F
:1002B000C043012188407047EFF30080000100092E
:1002C00003210907084380F3008870470020704726
:1002D00010B5024800F008F810BD00000000C07F13
:1002E000004870470800202010B50C461107090F80
:1002F000092904D00A290AD008290CD104E01146A2
:100300000820FFF7CEFF06E0510606D501E05106B2
:1003100001D50120C007214610BDD10607D5010136
:100320000909CC084907000E0006044309E0410F03
:1003300020024907000A0143200E00061D22D14178
:1003400001430846E7E7000001491820ABBEFEE77D
:1003500026000200704781B0009001B07047000095
:1003600080B582B0019001987449884210D1FFE7AE
:1003700001204105754800F069FA024650424241A9
:10038000019908785200FD23184080180870FFE793
:1003900001986D49884210D1FFE70120C1056B48E3
:1003A00000F054FA02465042424101990878520046
:1003B000FD23184080180870FFE7019865498842BE
:1003C00010D1FFE701200106604800F03FFA024625
:1003D00050424241019908785200FD23184080188C
:1003E0000870FFE7019908788207D20FFE231840B2
:1003F0008018087002B080BD81B0009001B07047D5
:1004000082B0019000910098C849087001990020BD
:10041000087501990861C4480068002807D1FFE702
:100420000198C149086001980649086007E00198F1
:1004300004490A681061086800690860FFE702B0B3
:100440007047C0469C01202081B0009001B07047E9
:1004500081B0009001B0704781B0009001B070474A
:1004600080B582B001900198007F012834D1FFE768
:100470000198324988420AD1FFE73148012100F052
:100480008BF930483F21090600F0C8FEFFE70198CC
:100490002D4988420BD1FFE7012081062B4800F04F
:1004A000E9F92B483F21090600F0B8FEFFE7019863
:1004B000284988420FD1FFE70120C106234800F0F8
:1004C000D9F923480021009100F0A8FE00991D48A9
:1004D00000F0A4FEFFE7FFE70198007F02282BD180
:1004E000FFE70198154988420AD1FFE71448012126
:1004F00000F0C0F91348BF21090600F08FFEFFE7A6
:100500000198114988420BD1FFE7012081060F486D
:1005100000F042F90E48BF21090600F07FFEFFE718
:1005200001980C49884206D1FFE70120C10607481F
:1005300000F032F9FFE7FFE702B080BD680020203D
:1005400000000A40940120208800202000200A405A
:100550008C012020A800202080B582B0724800685D
:100560000190FFE70198002800D1DAE00198FFF739
:10057000F7FE019800788007C00F00280DD1FFE733
:100580000198007D032804D1FFE70199486888613C
:10059000FFE7019900204860FFE7019801784808CB
:1005A0000840C007002807D0FFE76048027801999B
:1005B000486880184860FFE70198007D042807D14B
:1005C000FFE75A480278019988688018886003E03C
:1005D000019900208860FFE70198007D00900428C1
:1005E00000D999E00098810001A040588746C04694
:1005F00005060000230600005506000099060000CD
:10060000E50600000199002008770198007880072E
:10061000C00F002804D0FFE7019901200875FFE70B
:100620007AE0019800788007C00F002804D1FFE726
:100630000199002008750CE001984068152807D33F
:10064000FFE70199022008750198FFF7FDFEFFE71B
:10065000FFE761E0019800788007C00F002808D10B
:10066000FFE70199042008750199087F401C08776D
:1006700011E0019840682E4988420BD3FFE70199A9
:100680000320087501991920000188810198FFF75E
:1006900062FEFFE7FFE73FE001988089012807DB62
:1006A000FFE72248027801998889801A888107E04B
:1006B00001991920000188810198FFF79DFEFFE74D
:1006C000019800788007C00F00280AD1FFE7019841
:1006D000FFF7C2FE0198FFF7BBFE019900200875E5
:1006E000FFE719E001988068C9280AD3FFE701985D
:1006F000FFF7B6FE0198FFF7ABFE019900200875E1
:1007000009E001984068152804D3FFE70199022009
:100710000875FFE7FFE7FFE7FFE701980069019031
:1007200020E702B080BDC0468801202000002020C4
:100730002103000082B001900199881E001F00BFB4
:10074000FCD2009002B0704784B0039002910192F5
:1007500003980068009000980199884300900098E1
:100760000299019A114008430399086004B0704748
:1007700084B0039002910192039800680090009861
:1007800001998843009000980299019A114008430A
:100790000399086004B0704782B0019000910098FE
:1007A000019995225201885002B0704782B00190A1
:1007B00000910098019995225201885002B070472B
:1007C00082B00190009100980199024A885002B0CD
:1007D0007047C046D012000081B0009000990120FF
:1007E000C2028848885001B07047C04610B584B036
:1007F000069C03900291019200930298019908438C
:10080000009908430699084303490843039989005E
:100810000D4A885004B010BD8100040081B00090E2
:1008200000988100084A8120885001B07047C04676
:1008300082B00190009100988021084301998900BD
:10084000014A885002B070470480424082B0019053
:10085000009101982721C90140580099084002B031
:100860007047000081B000900099F24AF248885029
:1008700001B0704782B00190009100980199074A39
:10088000885002B07047C04682B001900091009835
:100890000199024A885002B07047C0469012000089
:1008A00081B001466846017000780249086001B0D5
:1008B0007047C04608030B4080B582B0014601A8CE
:1008C0000170017802480322FFF752FF02B080BD99
:1008D00000010B4080B58CB00B900A910A984079CA
:1008E000C00700285CD0FFE70A980079079000282D
:1008F00004D0FFE7079820280CD018E00B98882137
:100900000691022200F0BCF906990B98032200F030
:10091000B7F919E00B98212109010591022200F095
:10092000AFF905990B98032200F0AAF90CE00B9897
:100930000521C9010491022200F0A2F904990B9843
:10094000032200F09DF9FFE70B9800220292022398
:100950000193114600F0AEF9029A0B98032303931A
:10096000114600F0A7F90199029B0B9800911946D6
:100970001A4600F0D7F9029B03990B98009119468B
:100980001A4600F0CFF9019B029A0B98114600F02D
:10099000AFF9029A039B0B98114600F0A9F9FFE703
:1009A0000A98006808900A98007908A908710A98BE
:1009B000807948710B9800F031F80CB080BD0000D0
:1009C00081B000900099024A0120885001B0704720
:1009D0000811000082B001900091009B0199034A28
:1009E00088581843885002B07047C046281000004D
:1009F00081B0009000990120C2020248885001B0E5
:100A00007047C0460100002681B000900098812107
:100A100049014058C0B201B07047000080B58AB0AB
:100A200009900891089800790790002804D0FFE702
:100A30000798202812D029E0099808990968491ECA
:100A400000F0CEF9099888210691002200F018F9EB
:100A500006990998012200F013F92AE009980899EB
:100A60000968491E00F0BCF909982D49049100223B
:100A700000F006F9049909980122059200F000F9A6
:100A800005990998490700F09DF912E0099808991D
:100A90000968490800F0A4F909980521C9010391E2
:100AA000002200F0EDF803990998012200F0E8F81F
:100AB000FFE709980023019319461A4600F0FAF857
:100AC000019A099801230293114600F0F3F8019B63
:100AD0000998009319461A4600F024F9019B0299DF
:100AE0000998009119461A4600F01CF9019B0998D3
:100AF00019461A4600F0FCF8019A029B0998114623
:100B000000F0F6F80998C6494018089A1179527908
:100B1000114302221143034AFFF716FE0AB080BDBB
:100B200001040000BFFF003080B584B00390029143
:100B300003980299496800F053F9029800780190EF
:100B4000222856D80198810001A040588746C04607
:100B5000E90B0000F30B0000E90B0000F30B0000B1
:100B6000F30B0000F30B0000F30B0000F30B00008D
:100B7000F30B0000F30B0000F30B0000F30B00007D
:100B8000F30B0000F30B0000F30B0000F30B00006D
:100B9000DD0B0000F30B0000DD0B0000F30B000089
:100BA000F30B0000F30B0000F30B0000F30B00004D
:100BB000F30B0000F30B0000F30B0000F30B00003D
:100BC000F30B0000F30B0000F30B0000F30B00002D
:100BD000DD0B0000F30B0000DD0B0000039801218A
:100BE000490700F0EFF805E00398002100F0EAF86B
:100BF00000E0FFE703980299098A0022009200F0C2
:100C0000B1F8009B03980299C9681A4600F052F89F
:100C100002990878097A08430399814A885004B0F8
:100C200080BDC04681B000900099024A02488850B9
:100C300001B0704704080000030000B182B00190C9
:100C400000910098019911221202885002B0704759
:100C500080B584B00390029101A802700399224AE2
:100C60008918009101780098890040180090009838
:100C7000029907229204FFF767FD04B080BDC046C9
:100C800080B584B00390029101A802700399074ACD
:100C90008918009101780098890040180090009808
:100CA0000299034AFFF750FD04B080BD70180000A0
:100CB000DBB6C1FF10B586B005900491039202A87F
:100CC00003700599084A89180191017801988900F3
:100CD0004018019001980499039A1143034AFFF7C1
:100CE00033FD06B010BDC046301800007777020013
:100CF00010B586B005900491039202A8037005997F
:100D00003122D20189180191017801988900401897
:100D1000019001980499039A11438F22FFF714FD63
:100D200006B010BD10B587B000910446009809992F
:100D3000069405900492039302A801700699084A4C
:100D4000891801910178019889004018019005984F
:100D500004990843039908430199086007B010BD3E
:100D60005018000084B00390029101A8027003990A
:100D7000064A89180091017800988900401800906F
:100D800002980099086004B07047C046101800002F
:100D900082B001900091009800780199074A88502C
:100DA00000984078019901221203885000988078B9
:100DB0000199034A885002B07047C04608100000ED
:100DC0000C11000080B582B0019000910198144987
:100DD0004018009903221207FFF7B6FC02B080BD4D
:100DE00082B00190009100980199024A885002B0A7
:100DF0007047C0460818000081B000900099084A6A
:100E0000885801231843885001B0704781B0009082
:100E10000099034A885801231843885001B070474D
:100E20000418000080B588B02E49D9480790FFF714
:100E3000AFFF07982C49FFF74DFD07980023059356
:100E4000009319461A46FFF76DFF059A0798114659
:100E5000FFF7FEFE059A07981146FFF783FF059BF3
:100E6000079801210291009119461A46FFF75AFF8F
:100E7000029A05990798FFF7EBFE029A05990798E1
:100E8000FFF770FF059B0798022103910091102244
:100E900004921946FFF746FF039A05990798FFF752
:100EA000D7FE039A05990798FFF75CFF049A059B04
:100EB00007980321069100911946FFF733FF059922
:100EC000069A0798FFF7C4FE0599069A0798FFF758
:100ED00049FF0798FFF774FD07980F21FFF7AEFE53
:100EE00008B080BD901400009414000080B58CB050
:100EF0001E2007210291FFF79BFC0120089081032F
:100F000059480A90FFF75CFC029808210391FFF70B
:100F10008FFC039953480790FFF752FC0D200521E1
:100F20000491FFF785FC07988021FFF749FC03989F
:100F30000499FFF77DFC07981021FFF741FC002082
:100F40000690FFF76BFC3820FFF768FC3920FFF7AD
:100F500065FC31200990FFF761FC069B089800931F
:100F60004204059230201946FFF740FC059A069B83
:100F7000009332201946FFF739FC059A069B00932F
:100F800033201946FFF732FC07980899FFF77CFCDD
:100F900007980899FFF714FC09990A9889050B919D
:100FA000FFF704FC0A980B99FFF70AFC0CB080BD10
:100FB00080B582B000200190FFF772FC0198FFF726
:100FC0007BFC02B080BD000080B582B00849CE48ED
:100FD0000190FFF7DDFE01980649FFF7A5FD019896
:100FE0000121FFF7F7FC0198FFF7EAFC02B080BD92
:100FF0009C140000A014000080B500F00FF8FFF76B
:1010000075FFFFF7D5FFFFF70DFFFFF7DDFF024983
:10101000B8220020885480BDCC00202080B584B048
:1010200010480090FFF71EFC0F480190FFF71AFCD4
:1010300079480290FFF7F6FDB3480390FFF7F2FD01
:101040000098FFF7C9FB0198FFF7C6FB0298FFF76E
:10105000CFFC0398FFF7CCFC1020FFF76BFB04B02C
:1010600080BDC04600000A4000200A4083B00290C4
:1010700001A80170684602700198029908700098F2
:101080000299487002990020486003B07047000040
:1010900080B59D48FFF7B8FC012803D1FFE700F0B9
:1010A000F1F800E0FFE780BD81B0014668460170BD
:1010B00000214056002809D4FFE7684601781F2028
:1010C00001400120884002490860FFE701B07047F5
:1010D00000E100E080B582B001900198002100F0AD
:1010E00020F9002803D1FFE70198009005E001985E
:1010F0000121C90748400090FFE7009802B080BD79
:1011000080B582B007480A210191FFF779F901996A
:101110000548FFF775F901990448FFF771F902B026
:1011200080BDC0466800202088002020A800202024
:1011300070480078002801D1FFE703E06D490020E6
:101140000870FFE77047C04680B582B0002001906C
:1011500000F004F8FFE7FFF7EBFFFCE780B5FFF7CF
:101160004BFF00F0C9F8FFF7CBFF00F001F880BD9E
:1011700080B52948FFF74AFE064801210022FFF703
:1011800075FF054802210322FFF770FF80BDC046AE
:10119000000086408C0120209401202080B586B07C
:1011A000059004A80190017005981A4900F018F9FB
:1011B000FFF705F801460198039100780290032893
:1011C00024D80298810001A040588746DD11000014
:1011D000E9110000F51100000112000003990E480A
:1011E0000022FFF7BFFD12E003990B480122FFF731
:1011F000B9FD0CE0039908480222FFF7B3FD06E0B1
:10120000039905480322FFF7ADFD00E0FFE706B0B4
:1012100080BDC04600007A440000864080B582B0A0
:101220000190009100980199486001984068002160
:1012300000F077F800280DD1FFE70098FFF74AFF8C
:1012400001990978FFF7AAFF019841780020FFF77C
:10125000A5FF14E00098002100F058F800280DD1F7
:10126000FFE7019801780020FFF798FF0098FFF74B
:1012700031FF01994978FFF791FFFFE7FFE702B0DF
:1012800080BD000080B517490878401C0870C0B2C6
:101290000A2806DBFFE7FFF75FF912490020087014
:1012A000FFE711490878401C0870C0B2642807DBCA
:1012B000FFE70E49012008700B4900200870FFE786
:1012C0000B490888401C088080B27D218900884233
:1012D00007DBFFE707490120087005490020088067
:1012E000FFE780BDA1012020A0012020C800202010
:1012F000A2012020C900202080B51020FFF7D4FED5
:101300000148FFF779FD80BD0040084010B500F0AE
:1013100013F8EFF30080800001D5012010BD0020FC
:1013200010BD10B500F032F8EFF30080800001D45A
:10133000012010BD002010BD0123DB0502000A437F
:101340000DD4DA4203D49A4207D488427047D84277
:1013500014D4D94212D48842704780427047DA428E
:1013600003D59A42F9D5814270475B004200DA42C8
:1013700004D24A00DA4201D28142704710B5024AD3
:10138000FEF736FF10BD00BF090013040123DB0583
:1013900002000A430DD4DA4203D49A4207D48842A9
:1013A0007047D84214D4D94212D488427047804240
:1013B0007047DA4203D59A42F9D5814270475B0003
:1013C0004200DA4204D24A00DA4201D28142704736
:1013D00010B5024AFEF70CFF10BD00BF090016044D
:1013E00070B5420064414B005C41120E39D01B0EB7
:1013F00038D0FF2A3CD0FF2B3AD0D2187F3A400297
:101400004902400A490A4518ED0106004E43000A08
:10141000090A48430104731A4019190C4318990F1B
:1014200004D05B08012149075B1A521CD80904D378
:10143000401CF50301D19D0607D0FF2A08D2D5052F
:1014400006D0E4072043401970BD0125A843F4E706
:10145000002A01DCE00770BD2402FF202043C00504
:1014600070BD1B0EFF2A03D0FF2B01D0E00770BD1B
:10147000FF2636064500B54206D84D00B54203D8D2
:10148000D218FF2A00D0E7E7004870BD0000C07FF7
:1014900008001F00E8030000200100000800000011
:1014A00002000000FF7C00000000000000000000BF
:1014B0000000000000000000D81400000000202000
:1014C0000800000020010000E014000008002020B7
:1014D000A0020000480100000A0000000000000017
:04000005000000C136
:00000001FF
